{
  "_format": "hh-sol-artifact-1",
  "contractName": "Lock",
  "sourceName": "contracts/Lock.sol",
  "abi": [
    {
      "inputs": [],
      "stateMutability": "nonpayable",
      "type": "constructor"
    },
    {
      "inputs": [
        {
          "internalType": "address",
          "name": "sender",
          "type": "address"
        },
        {
          "internalType": "uint256",
          "name": "tokenId",
          "type": "uint256"
        },
        {
          "internalType": "address",
          "name": "owner",
          "type": "address"
        }
      ],
      "name": "ERC721IncorrectOwner",
      "type": "error"
    },
    {
      "inputs": [
        {
          "internalType": "address",
          "name": "operator",
          "type": "address"
        },
        {
          "internalType": "uint256",
          "name": "tokenId",
          "type": "uint256"
        }
      ],
      "name": "ERC721InsufficientApproval",
      "type": "error"
    },
    {
      "inputs": [
        {
          "internalType": "address",
          "name": "approver",
          "type": "address"
        }
      ],
      "name": "ERC721InvalidApprover",
      "type": "error"
    },
    {
      "inputs": [
        {
          "internalType": "address",
          "name": "operator",
          "type": "address"
        }
      ],
      "name": "ERC721InvalidOperator",
      "type": "error"
    },
    {
      "inputs": [
        {
          "internalType": "address",
          "name": "owner",
          "type": "address"
        }
      ],
      "name": "ERC721InvalidOwner",
      "type": "error"
    },
    {
      "inputs": [
        {
          "internalType": "address",
          "name": "receiver",
          "type": "address"
        }
      ],
      "name": "ERC721InvalidReceiver",
      "type": "error"
    },
    {
      "inputs": [
        {
          "internalType": "address",
          "name": "sender",
          "type": "address"
        }
      ],
      "name": "ERC721InvalidSender",
      "type": "error"
    },
    {
      "inputs": [
        {
          "internalType": "uint256",
          "name": "tokenId",
          "type": "uint256"
        }
      ],
      "name": "ERC721NonexistentToken",
      "type": "error"
    },
    {
      "inputs": [
        {
          "internalType": "address",
          "name": "owner",
          "type": "address"
        }
      ],
      "name": "OwnableInvalidOwner",
      "type": "error"
    },
    {
      "inputs": [
        {
          "internalType": "address",
          "name": "account",
          "type": "address"
        }
      ],
      "name": "OwnableUnauthorizedAccount",
      "type": "error"
    },
    {
      "anonymous": false,
      "inputs": [
        {
          "indexed": true,
          "internalType": "address",
          "name": "owner",
          "type": "address"
        },
        {
          "indexed": true,
          "internalType": "address",
          "name": "approved",
          "type": "address"
        },
        {
          "indexed": true,
          "internalType": "uint256",
          "name": "tokenId",
          "type": "uint256"
        }
      ],
      "name": "Approval",
      "type": "event"
    },
    {
      "anonymous": false,
      "inputs": [
        {
          "indexed": true,
          "internalType": "address",
          "name": "owner",
          "type": "address"
        },
        {
          "indexed": true,
          "internalType": "address",
          "name": "operator",
          "type": "address"
        },
        {
          "indexed": false,
          "internalType": "bool",
          "name": "approved",
          "type": "bool"
        }
      ],
      "name": "ApprovalForAll",
      "type": "event"
    },
    {
      "anonymous": false,
      "inputs": [
        {
          "indexed": true,
          "internalType": "address",
          "name": "previousOwner",
          "type": "address"
        },
        {
          "indexed": true,
          "internalType": "address",
          "name": "newOwner",
          "type": "address"
        }
      ],
      "name": "OwnershipTransferred",
      "type": "event"
    },
    {
      "anonymous": false,
      "inputs": [
        {
          "indexed": true,
          "internalType": "address",
          "name": "from",
          "type": "address"
        },
        {
          "indexed": true,
          "internalType": "address",
          "name": "to",
          "type": "address"
        },
        {
          "indexed": true,
          "internalType": "uint256",
          "name": "tokenId",
          "type": "uint256"
        }
      ],
      "name": "Transfer",
      "type": "event"
    },
    {
      "inputs": [],
      "name": "MINT_PRICE",
      "outputs": [
        {
          "internalType": "uint256",
          "name": "",
          "type": "uint256"
        }
      ],
      "stateMutability": "view",
      "type": "function"
    },
    {
      "inputs": [
        {
          "internalType": "address[]",
          "name": "addresses",
          "type": "address[]"
        }
      ],
      "name": "addToWhitelist",
      "outputs": [],
      "stateMutability": "nonpayable",
      "type": "function"
    },
    {
      "inputs": [
        {
          "internalType": "address",
          "name": "to",
          "type": "address"
        },
        {
          "internalType": "uint256",
          "name": "tokenId",
          "type": "uint256"
        }
      ],
      "name": "approve",
      "outputs": [],
      "stateMutability": "nonpayable",
      "type": "function"
    },
    {
      "inputs": [
        {
          "internalType": "address",
          "name": "owner",
          "type": "address"
        }
      ],
      "name": "balanceOf",
      "outputs": [
        {
          "internalType": "uint256",
          "name": "",
          "type": "uint256"
        }
      ],
      "stateMutability": "view",
      "type": "function"
    },
    {
      "inputs": [
        {
          "internalType": "address[]",
          "name": "addresses",
          "type": "address[]"
        }
      ],
      "name": "batchAirdrop",
      "outputs": [],
      "stateMutability": "nonpayable",
      "type": "function"
    },
    {
      "inputs": [],
      "name": "blastContract",
      "outputs": [
        {
          "internalType": "contract IBlast",
          "name": "",
          "type": "address"
        }
      ],
      "stateMutability": "view",
      "type": "function"
    },
    {
      "inputs": [
        {
          "internalType": "address",
          "name": "recipient",
          "type": "address"
        }
      ],
      "name": "claimGasFees",
      "outputs": [],
      "stateMutability": "nonpayable",
      "type": "function"
    },
    {
      "inputs": [
        {
          "internalType": "uint256",
          "name": "tokenId",
          "type": "uint256"
        }
      ],
      "name": "getApproved",
      "outputs": [
        {
          "internalType": "address",
          "name": "",
          "type": "address"
        }
      ],
      "stateMutability": "view",
      "type": "function"
    },
    {
      "inputs": [],
      "name": "getWhitelistAddresses",
      "outputs": [
        {
          "internalType": "address[]",
          "name": "",
          "type": "address[]"
        }
      ],
      "stateMutability": "view",
      "type": "function"
    },
    {
      "inputs": [
        {
          "internalType": "address",
          "name": "owner",
          "type": "address"
        },
        {
          "internalType": "address",
          "name": "operator",
          "type": "address"
        }
      ],
      "name": "isApprovedForAll",
      "outputs": [
        {
          "internalType": "bool",
          "name": "",
          "type": "bool"
        }
      ],
      "stateMutability": "view",
      "type": "function"
    },
    {
      "inputs": [
        {
          "internalType": "address",
          "name": "addr",
          "type": "address"
        }
      ],
      "name": "isWhitelisted",
      "outputs": [
        {
          "internalType": "bool",
          "name": "",
          "type": "bool"
        }
      ],
      "stateMutability": "view",
      "type": "function"
    },
    {
      "inputs": [],
      "name": "mint",
      "outputs": [],
      "stateMutability": "payable",
      "type": "function"
    },
    {
      "inputs": [],
      "name": "name",
      "outputs": [
        {
          "internalType": "string",
          "name": "",
          "type": "string"
        }
      ],
      "stateMutability": "view",
      "type": "function"
    },
    {
      "inputs": [],
      "name": "owner",
      "outputs": [
        {
          "internalType": "address",
          "name": "",
          "type": "address"
        }
      ],
      "stateMutability": "view",
      "type": "function"
    },
    {
      "inputs": [
        {
          "internalType": "uint256",
          "name": "tokenId",
          "type": "uint256"
        }
      ],
      "name": "ownerOf",
      "outputs": [
        {
          "internalType": "address",
          "name": "",
          "type": "address"
        }
      ],
      "stateMutability": "view",
      "type": "function"
    },
    {
      "inputs": [
        {
          "internalType": "address[]",
          "name": "addresses",
          "type": "address[]"
        }
      ],
      "name": "removeFromWhitelist",
      "outputs": [],
      "stateMutability": "nonpayable",
      "type": "function"
    },
    {
      "inputs": [],
      "name": "renounceOwnership",
      "outputs": [],
      "stateMutability": "nonpayable",
      "type": "function"
    },
    {
      "inputs": [
        {
          "internalType": "address",
          "name": "from",
          "type": "address"
        },
        {
          "internalType": "address",
          "name": "to",
          "type": "address"
        },
        {
          "internalType": "uint256",
          "name": "tokenId",
          "type": "uint256"
        }
      ],
      "name": "safeTransferFrom",
      "outputs": [],
      "stateMutability": "nonpayable",
      "type": "function"
    },
    {
      "inputs": [
        {
          "internalType": "address",
          "name": "from",
          "type": "address"
        },
        {
          "internalType": "address",
          "name": "to",
          "type": "address"
        },
        {
          "internalType": "uint256",
          "name": "tokenId",
          "type": "uint256"
        },
        {
          "internalType": "bytes",
          "name": "data",
          "type": "bytes"
        }
      ],
      "name": "safeTransferFrom",
      "outputs": [],
      "stateMutability": "nonpayable",
      "type": "function"
    },
    {
      "inputs": [
        {
          "internalType": "address",
          "name": "operator",
          "type": "address"
        },
        {
          "internalType": "bool",
          "name": "approved",
          "type": "bool"
        }
      ],
      "name": "setApprovalForAll",
      "outputs": [],
      "stateMutability": "nonpayable",
      "type": "function"
    },
    {
      "inputs": [
        {
          "internalType": "string",
          "name": "baseURI",
          "type": "string"
        }
      ],
      "name": "setBaseURI",
      "outputs": [],
      "stateMutability": "nonpayable",
      "type": "function"
    },
    {
      "inputs": [
        {
          "internalType": "bytes4",
          "name": "interfaceId",
          "type": "bytes4"
        }
      ],
      "name": "supportsInterface",
      "outputs": [
        {
          "internalType": "bool",
          "name": "",
          "type": "bool"
        }
      ],
      "stateMutability": "view",
      "type": "function"
    },
    {
      "inputs": [],
      "name": "symbol",
      "outputs": [
        {
          "internalType": "string",
          "name": "",
          "type": "string"
        }
      ],
      "stateMutability": "view",
      "type": "function"
    },
    {
      "inputs": [
        {
          "internalType": "uint256",
          "name": "tokenId",
          "type": "uint256"
        }
      ],
      "name": "tokenURI",
      "outputs": [
        {
          "internalType": "string",
          "name": "",
          "type": "string"
        }
      ],
      "stateMutability": "view",
      "type": "function"
    },
    {
      "inputs": [
        {
          "internalType": "address",
          "name": "from",
          "type": "address"
        },
        {
          "internalType": "address",
          "name": "to",
          "type": "address"
        },
        {
          "internalType": "uint256",
          "name": "tokenId",
          "type": "uint256"
        }
      ],
      "name": "transferFrom",
      "outputs": [],
      "stateMutability": "nonpayable",
      "type": "function"
    },
    {
      "inputs": [
        {
          "internalType": "address",
          "name": "newOwner",
          "type": "address"
        }
      ],
      "name": "transferOwnership",
      "outputs": [],
      "stateMutability": "nonpayable",
      "type": "function"
    },
    {
      "inputs": [],
      "name": "withdraw",
      "outputs": [],
      "stateMutability": "nonpayable",
      "type": "function"
    }
  ],
  "bytecode": "0x60806040523480156200001157600080fd5b50336040518060400160405280600d81526020017f4d79455243373231546f6b656e000000000000000000000000000000000000008152506040518060400160405280600381526020017f4d4554000000000000000000000000000000000000000000000000000000000081525081600090816200009091906200054b565b508060019081620000a291906200054b565b505050600073ffffffffffffffffffffffffffffffffffffffff168173ffffffffffffffffffffffffffffffffffffffff16036200011a5760006040517f1e4fbdf700000000000000000000000000000000000000000000000000000000815260040162000111919062000677565b60405180910390fd5b6200012b816200020b60201b60201c565b50734300000000000000000000000000000000000002600a60006101000a81548173ffffffffffffffffffffffffffffffffffffffff021916908373ffffffffffffffffffffffffffffffffffffffff160217905550600a60009054906101000a900473ffffffffffffffffffffffffffffffffffffffff1673ffffffffffffffffffffffffffffffffffffffff16634e606c476040518163ffffffff1660e01b8152600401600060405180830381600087803b158015620001ec57600080fd5b505af115801562000201573d6000803e3d6000fd5b5050505062000694565b6000600660009054906101000a900473ffffffffffffffffffffffffffffffffffffffff16905081600660006101000a81548173ffffffffffffffffffffffffffffffffffffffff021916908373ffffffffffffffffffffffffffffffffffffffff1602179055508173ffffffffffffffffffffffffffffffffffffffff168173ffffffffffffffffffffffffffffffffffffffff167f8be0079c531659141344cd1fd0a4f28419497f9722a3daafe3b4186f6b6457e060405160405180910390a35050565b600081519050919050565b7f4e487b7100000000000000000000000000000000000000000000000000000000600052604160045260246000fd5b7f4e487b7100000000000000000000000000000000000000000000000000000000600052602260045260246000fd5b600060028204905060018216806200035357607f821691505b6020821081036200036957620003686200030b565b5b50919050565b60008190508160005260206000209050919050565b60006020601f8301049050919050565b600082821b905092915050565b600060088302620003d37fffffffffffffffffffffffffffffffffffffffffffffffffffffffffffffffff8262000394565b620003df868362000394565b95508019841693508086168417925050509392505050565b6000819050919050565b6000819050919050565b60006200042c620004266200042084620003f7565b62000401565b620003f7565b9050919050565b6000819050919050565b62000448836200040b565b62000460620004578262000433565b848454620003a1565b825550505050565b600090565b6200047762000468565b620004848184846200043d565b505050565b5b81811015620004ac57620004a06000826200046d565b6001810190506200048a565b5050565b601f821115620004fb57620004c5816200036f565b620004d08462000384565b81016020851015620004e0578190505b620004f8620004ef8562000384565b83018262000489565b50505b505050565b600082821c905092915050565b6000620005206000198460080262000500565b1980831691505092915050565b60006200053b83836200050d565b9150826002028217905092915050565b6200055682620002d1565b67ffffffffffffffff811115620005725762000571620002dc565b5b6200057e82546200033a565b6200058b828285620004b0565b600060209050601f831160018114620005c35760008415620005ae578287015190505b620005ba85826200052d565b8655506200062a565b601f198416620005d3866200036f565b60005b82811015620005fd57848901518255600182019150602085019450602081019050620005d6565b868310156200061d578489015162000619601f8916826200050d565b8355505b6001600288020188555050505b505050505050565b600073ffffffffffffffffffffffffffffffffffffffff82169050919050565b60006200065f8262000632565b9050919050565b620006718162000652565b82525050565b60006020820190506200068e600083018462000666565b92915050565b61321280620006a46000396000f3fe60806040526004361061019c5760003560e01c806370a08231116100ec578063a22cb4651161008a578063c87b56dd11610064578063c87b56dd1461057b578063e985e9c5146105b8578063f2fde38b146105f5578063fce14af61461061e5761019c565b8063a22cb465146104fe578063b88d4fde14610527578063c002d23d146105505761019c565b80638da5cb5b116100c65780638da5cb5b1461045657806395d89b4114610481578063992f9f4b146104ac5780639edfbec9146104d55761019c565b806370a08231146103d9578063715018a6146104165780637f6497831461042d5761019c565b80633af32abf11610159578063548db17411610133578063548db1741461031f57806355f804b314610348578063578cbd1f146103715780636352211e1461039c5761019c565b80633af32abf146102a25780633ccfd60b146102df57806342842e0e146102f65761019c565b806301ffc9a7146101a157806306fdde03146101de578063081812fc14610209578063095ea7b3146102465780631249c58b1461026f57806323b872dd14610279575b600080fd5b3480156101ad57600080fd5b506101c860048036038101906101c391906122bf565b610649565b6040516101d59190612307565b60405180910390f35b3480156101ea57600080fd5b506101f361072b565b60405161020091906123b2565b60405180910390f35b34801561021557600080fd5b50610230600480360381019061022b919061240a565b6107bd565b60405161023d9190612478565b60405180910390f35b34801561025257600080fd5b5061026d600480360381019061026891906124bf565b6107d9565b005b6102776107ef565b005b34801561028557600080fd5b506102a0600480360381019061029b91906124ff565b610861565b005b3480156102ae57600080fd5b506102c960048036038101906102c49190612552565b610963565b6040516102d69190612307565b60405180910390f35b3480156102eb57600080fd5b506102f4610980565b005b34801561030257600080fd5b5061031d600480360381019061031891906124ff565b610a21565b005b34801561032b57600080fd5b50610346600480360381019061034191906125e4565b610a41565b005b34801561035457600080fd5b5061036f600480360381019061036a9190612761565b610aa5565b005b34801561037d57600080fd5b50610386610ac0565b6040516103939190612868565b60405180910390f35b3480156103a857600080fd5b506103c360048036038101906103be919061240a565b610b9f565b6040516103d09190612478565b60405180910390f35b3480156103e557600080fd5b5061040060048036038101906103fb9190612552565b610bb1565b60405161040d9190612899565b60405180910390f35b34801561042257600080fd5b5061042b610c6b565b005b34801561043957600080fd5b50610454600480360381019061044f91906125e4565b610c7f565b005b34801561046257600080fd5b5061046b610ce3565b6040516104789190612478565b60405180910390f35b34801561048d57600080fd5b50610496610d0d565b6040516104a391906123b2565b60405180910390f35b3480156104b857600080fd5b506104d360048036038101906104ce9190612552565b610d9f565b005b3480156104e157600080fd5b506104fc60048036038101906104f791906125e4565b610e4b565b005b34801561050a57600080fd5b50610525600480360381019061052091906128e0565b610ec0565b005b34801561053357600080fd5b5061054e600480360381019061054991906129c1565b610ed6565b005b34801561055c57600080fd5b50610565610ef3565b6040516105729190612899565b60405180910390f35b34801561058757600080fd5b506105a2600480360381019061059d919061240a565b610eff565b6040516105af91906123b2565b60405180910390f35b3480156105c457600080fd5b506105df60048036038101906105da9190612a44565b610f68565b6040516105ec9190612307565b60405180910390f35b34801561060157600080fd5b5061061c60048036038101906106179190612552565b610ffc565b005b34801561062a57600080fd5b50610633611082565b6040516106409190612ae3565b60405180910390f35b60007f80ac58cd000000000000000000000000000000000000000000000000000000007bffffffffffffffffffffffffffffffffffffffffffffffffffffffff1916827bffffffffffffffffffffffffffffffffffffffffffffffffffffffff1916148061071457507f5b5e139f000000000000000000000000000000000000000000000000000000007bffffffffffffffffffffffffffffffffffffffffffffffffffffffff1916827bffffffffffffffffffffffffffffffffffffffffffffffffffffffff1916145b806107245750610723826110a8565b5b9050919050565b60606000805461073a90612b2d565b80601f016020809104026020016040519081016040528092919081815260200182805461076690612b2d565b80156107b35780601f10610788576101008083540402835291602001916107b3565b820191906000526020600020905b81548152906001019060200180831161079657829003601f168201915b5050505050905090565b60006107c882611112565b506107d28261119a565b9050919050565b6107eb82826107e66111d7565b6111df565b5050565b6706f05b59d3b200003414610839576040517f08c379a000000000000000000000000000000000000000000000000000000000815260040161083090612baa565b60405180910390fd5b60016009600082825461084c9190612bf9565b9250508190555061085f336009546111f1565b565b600073ffffffffffffffffffffffffffffffffffffffff168273ffffffffffffffffffffffffffffffffffffffff16036108d35760006040517f64a0ae920000000000000000000000000000000000000000000000000000000081526004016108ca9190612478565b60405180910390fd5b60006108e783836108e26111d7565b6112ea565b90508373ffffffffffffffffffffffffffffffffffffffff168173ffffffffffffffffffffffffffffffffffffffff161461095d578382826040517f64283d7b00000000000000000000000000000000000000000000000000000000815260040161095493929190612c2d565b60405180910390fd5b50505050565b600061097982600761150490919063ffffffff16565b9050919050565b610988611534565b6000479050600081116109d0576040517f08c379a00000000000000000000000000000000000000000000000000000000081526004016109c790612cb0565b60405180910390fd5b6109d8610ce3565b73ffffffffffffffffffffffffffffffffffffffff166108fc829081150290604051600060405180830381858888f19350505050158015610a1d573d6000803e3d6000fd5b5050565b610a3c83838360405180602001604052806000815250610ed6565b505050565b610a49611534565b60005b82829050811015610aa057610a92838383818110610a6d57610a6c612cd0565b5b9050602002016020810190610a829190612552565b60076115bb90919063ffffffff16565b508080600101915050610a4c565b505050565b610aad611534565b80600b9081610abc9190612ea1565b5050565b60606000610ace60076115eb565b905060008167ffffffffffffffff811115610aec57610aeb612636565b5b604051908082528060200260200182016040528015610b1a5781602001602082028036833780820191505090505b50905060005b82811015610b9657610b3c81600761160090919063ffffffff16565b828281518110610b4f57610b4e612cd0565b5b602002602001019073ffffffffffffffffffffffffffffffffffffffff16908173ffffffffffffffffffffffffffffffffffffffff16815250508080600101915050610b20565b50809250505090565b6000610baa82611112565b9050919050565b60008073ffffffffffffffffffffffffffffffffffffffff168273ffffffffffffffffffffffffffffffffffffffff1603610c245760006040517f89c62b64000000000000000000000000000000000000000000000000000000008152600401610c1b9190612478565b60405180910390fd5b600360008373ffffffffffffffffffffffffffffffffffffffff1673ffffffffffffffffffffffffffffffffffffffff168152602001908152602001600020549050919050565b610c73611534565b610c7d600061161a565b565b610c87611534565b60005b82829050811015610cde57610cd0838383818110610cab57610caa612cd0565b5b9050602002016020810190610cc09190612552565b60076116e090919063ffffffff16565b508080600101915050610c8a565b505050565b6000600660009054906101000a900473ffffffffffffffffffffffffffffffffffffffff16905090565b606060018054610d1c90612b2d565b80601f0160208091040260200160405190810160405280929190818152602001828054610d4890612b2d565b8015610d955780601f10610d6a57610100808354040283529160200191610d95565b820191906000526020600020905b815481529060010190602001808311610d7857829003601f168201915b5050505050905090565b610da7611534565b600a60009054906101000a900473ffffffffffffffffffffffffffffffffffffffff1673ffffffffffffffffffffffffffffffffffffffff1663954fa5ee30836040518363ffffffff1660e01b8152600401610e04929190612f73565b6020604051808303816000875af1158015610e23573d6000803e3d6000fd5b505050506040513d601f19601f82011682018060405250810190610e479190612fb1565b5050565b610e53611534565b60005b82829050811015610ebb57600160096000828254610e749190612bf9565b92505081905550610eae838383818110610e9157610e90612cd0565b5b9050602002016020810190610ea69190612552565b6009546111f1565b8080600101915050610e56565b505050565b610ed2610ecb6111d7565b8383611710565b5050565b610ee1848484610861565b610eed8484848461187f565b50505050565b6706f05b59d3b2000081565b6060610f0a82611112565b506000610f15611a36565b90506000815111610f355760405180602001604052806000815250610f60565b80610f3f84611ac8565b604051602001610f5092919061301a565b6040516020818303038152906040525b915050919050565b6000600560008473ffffffffffffffffffffffffffffffffffffffff1673ffffffffffffffffffffffffffffffffffffffff16815260200190815260200160002060008373ffffffffffffffffffffffffffffffffffffffff1673ffffffffffffffffffffffffffffffffffffffff16815260200190815260200160002060009054906101000a900460ff16905092915050565b611004611534565b600073ffffffffffffffffffffffffffffffffffffffff168173ffffffffffffffffffffffffffffffffffffffff16036110765760006040517f1e4fbdf700000000000000000000000000000000000000000000000000000000815260040161106d9190612478565b60405180910390fd5b61107f8161161a565b50565b600a60009054906101000a900473ffffffffffffffffffffffffffffffffffffffff1681565b60007f01ffc9a7000000000000000000000000000000000000000000000000000000007bffffffffffffffffffffffffffffffffffffffffffffffffffffffff1916827bffffffffffffffffffffffffffffffffffffffffffffffffffffffff1916149050919050565b60008061111e83611b96565b9050600073ffffffffffffffffffffffffffffffffffffffff168173ffffffffffffffffffffffffffffffffffffffff160361119157826040517f7e2732890000000000000000000000000000000000000000000000000000000081526004016111889190612899565b60405180910390fd5b80915050919050565b60006004600083815260200190815260200160002060009054906101000a900473ffffffffffffffffffffffffffffffffffffffff169050919050565b600033905090565b6111ec8383836001611bd3565b505050565b600073ffffffffffffffffffffffffffffffffffffffff168273ffffffffffffffffffffffffffffffffffffffff16036112635760006040517f64a0ae9200000000000000000000000000000000000000000000000000000000815260040161125a9190612478565b60405180910390fd5b6000611271838360006112ea565b9050600073ffffffffffffffffffffffffffffffffffffffff168173ffffffffffffffffffffffffffffffffffffffff16146112e55760006040517f73c6ac6e0000000000000000000000000000000000000000000000000000000081526004016112dc9190612478565b60405180910390fd5b505050565b6000806112f684611b96565b9050600073ffffffffffffffffffffffffffffffffffffffff168373ffffffffffffffffffffffffffffffffffffffff161461133857611337818486611d98565b5b600073ffffffffffffffffffffffffffffffffffffffff168173ffffffffffffffffffffffffffffffffffffffff16146113c95761137a600085600080611bd3565b6001600360008373ffffffffffffffffffffffffffffffffffffffff1673ffffffffffffffffffffffffffffffffffffffff168152602001908152602001600020600082825403925050819055505b600073ffffffffffffffffffffffffffffffffffffffff168573ffffffffffffffffffffffffffffffffffffffff161461144c576001600360008773ffffffffffffffffffffffffffffffffffffffff1673ffffffffffffffffffffffffffffffffffffffff168152602001908152602001600020600082825401925050819055505b846002600086815260200190815260200160002060006101000a81548173ffffffffffffffffffffffffffffffffffffffff021916908373ffffffffffffffffffffffffffffffffffffffff160217905550838573ffffffffffffffffffffffffffffffffffffffff168273ffffffffffffffffffffffffffffffffffffffff167fddf252ad1be2c89b69c2b068fc378daa952ba7f163c4a11628f55a4df523b3ef60405160405180910390a4809150509392505050565b600061152c836000018373ffffffffffffffffffffffffffffffffffffffff1660001b611e5c565b905092915050565b61153c6111d7565b73ffffffffffffffffffffffffffffffffffffffff1661155a610ce3565b73ffffffffffffffffffffffffffffffffffffffff16146115b95761157d6111d7565b6040517f118cdaa70000000000000000000000000000000000000000000000000000000081526004016115b09190612478565b60405180910390fd5b565b60006115e3836000018373ffffffffffffffffffffffffffffffffffffffff1660001b611e7f565b905092915050565b60006115f982600001611f93565b9050919050565b600061160f8360000183611fa4565b60001c905092915050565b6000600660009054906101000a900473ffffffffffffffffffffffffffffffffffffffff16905081600660006101000a81548173ffffffffffffffffffffffffffffffffffffffff021916908373ffffffffffffffffffffffffffffffffffffffff1602179055508173ffffffffffffffffffffffffffffffffffffffff168173ffffffffffffffffffffffffffffffffffffffff167f8be0079c531659141344cd1fd0a4f28419497f9722a3daafe3b4186f6b6457e060405160405180910390a35050565b6000611708836000018373ffffffffffffffffffffffffffffffffffffffff1660001b611fcf565b905092915050565b600073ffffffffffffffffffffffffffffffffffffffff168273ffffffffffffffffffffffffffffffffffffffff160361178157816040517f5b08ba180000000000000000000000000000000000000000000000000000000081526004016117789190612478565b60405180910390fd5b80600560008573ffffffffffffffffffffffffffffffffffffffff1673ffffffffffffffffffffffffffffffffffffffff16815260200190815260200160002060008473ffffffffffffffffffffffffffffffffffffffff1673ffffffffffffffffffffffffffffffffffffffff16815260200190815260200160002060006101000a81548160ff0219169083151502179055508173ffffffffffffffffffffffffffffffffffffffff168373ffffffffffffffffffffffffffffffffffffffff167f17307eab39ab6107e8899845ad3d59bd9653f200f220920489ca2b5937696c31836040516118729190612307565b60405180910390a3505050565b60008373ffffffffffffffffffffffffffffffffffffffff163b1115611a30578273ffffffffffffffffffffffffffffffffffffffff1663150b7a026118c36111d7565b8685856040518563ffffffff1660e01b81526004016118e59493929190613093565b6020604051808303816000875af192505050801561192157506040513d601f19601f8201168201806040525081019061191e91906130f4565b60015b6119a5573d8060008114611951576040519150601f19603f3d011682016040523d82523d6000602084013e611956565b606091505b50600081510361199d57836040517f64a0ae920000000000000000000000000000000000000000000000000000000081526004016119949190612478565b60405180910390fd5b805181602001fd5b63150b7a0260e01b7bffffffffffffffffffffffffffffffffffffffffffffffffffffffff1916817bffffffffffffffffffffffffffffffffffffffffffffffffffffffff191614611a2e57836040517f64a0ae92000000000000000000000000000000000000000000000000000000008152600401611a259190612478565b60405180910390fd5b505b50505050565b6060600b8054611a4590612b2d565b80601f0160208091040260200160405190810160405280929190818152602001828054611a7190612b2d565b8015611abe5780601f10611a9357610100808354040283529160200191611abe565b820191906000526020600020905b815481529060010190602001808311611aa157829003601f168201915b5050505050905090565b606060006001611ad78461203f565b01905060008167ffffffffffffffff811115611af657611af5612636565b5b6040519080825280601f01601f191660200182016040528015611b285781602001600182028036833780820191505090505b509050600082602001820190505b600115611b8b578080600190039150507f3031323334353637383961626364656600000000000000000000000000000000600a86061a8153600a8581611b7f57611b7e613121565b5b04945060008503611b36575b819350505050919050565b60006002600083815260200190815260200160002060009054906101000a900473ffffffffffffffffffffffffffffffffffffffff169050919050565b8080611c0c5750600073ffffffffffffffffffffffffffffffffffffffff168273ffffffffffffffffffffffffffffffffffffffff1614155b15611d40576000611c1c84611112565b9050600073ffffffffffffffffffffffffffffffffffffffff168373ffffffffffffffffffffffffffffffffffffffff1614158015611c8757508273ffffffffffffffffffffffffffffffffffffffff168173ffffffffffffffffffffffffffffffffffffffff1614155b8015611c9a5750611c988184610f68565b155b15611cdc57826040517fa9fbf51f000000000000000000000000000000000000000000000000000000008152600401611cd39190612478565b60405180910390fd5b8115611d3e57838573ffffffffffffffffffffffffffffffffffffffff168273ffffffffffffffffffffffffffffffffffffffff167f8c5be1e5ebec7d5bd14f71427d1e84f3dd0314c0f7b2291e5b200ac8c7c3b92560405160405180910390a45b505b836004600085815260200190815260200160002060006101000a81548173ffffffffffffffffffffffffffffffffffffffff021916908373ffffffffffffffffffffffffffffffffffffffff16021790555050505050565b611da3838383612192565b611e5757600073ffffffffffffffffffffffffffffffffffffffff168373ffffffffffffffffffffffffffffffffffffffff1603611e1857806040517f7e273289000000000000000000000000000000000000000000000000000000008152600401611e0f9190612899565b60405180910390fd5b81816040517f177e802f000000000000000000000000000000000000000000000000000000008152600401611e4e929190613150565b60405180910390fd5b505050565b600080836001016000848152602001908152602001600020541415905092915050565b60008083600101600084815260200190815260200160002054905060008114611f87576000600182611eb19190613179565b9050600060018660000180549050611ec99190613179565b9050808214611f38576000866000018281548110611eea57611ee9612cd0565b5b9060005260206000200154905080876000018481548110611f0e57611f0d612cd0565b5b90600052602060002001819055508387600101600083815260200190815260200160002081905550505b85600001805480611f4c57611f4b6131ad565b5b600190038181906000526020600020016000905590558560010160008681526020019081526020016000206000905560019350505050611f8d565b60009150505b92915050565b600081600001805490509050919050565b6000826000018281548110611fbc57611fbb612cd0565b5b9060005260206000200154905092915050565b6000611fdb8383611e5c565b612034578260000182908060018154018082558091505060019003906000526020600020016000909190919091505582600001805490508360010160008481526020019081526020016000208190555060019050612039565b600090505b92915050565b600080600090507a184f03e93ff9f4daa797ed6e38ed64bf6a1f010000000000000000831061209d577a184f03e93ff9f4daa797ed6e38ed64bf6a1f010000000000000000838161209357612092613121565b5b0492506040810190505b6d04ee2d6d415b85acef810000000083106120da576d04ee2d6d415b85acef810000000083816120d0576120cf613121565b5b0492506020810190505b662386f26fc10000831061210957662386f26fc1000083816120ff576120fe613121565b5b0492506010810190505b6305f5e1008310612132576305f5e100838161212857612127613121565b5b0492506008810190505b612710831061215757612710838161214d5761214c613121565b5b0492506004810190505b6064831061217a57606483816121705761216f613121565b5b0492506002810190505b600a8310612189576001810190505b80915050919050565b60008073ffffffffffffffffffffffffffffffffffffffff168373ffffffffffffffffffffffffffffffffffffffff161415801561224a57508273ffffffffffffffffffffffffffffffffffffffff168473ffffffffffffffffffffffffffffffffffffffff16148061220b575061220a8484610f68565b5b8061224957508273ffffffffffffffffffffffffffffffffffffffff166122318361119a565b73ffffffffffffffffffffffffffffffffffffffff16145b5b90509392505050565b6000604051905090565b600080fd5b600080fd5b60007fffffffff0000000000000000000000000000000000000000000000000000000082169050919050565b61229c81612267565b81146122a757600080fd5b50565b6000813590506122b981612293565b92915050565b6000602082840312156122d5576122d461225d565b5b60006122e3848285016122aa565b91505092915050565b60008115159050919050565b612301816122ec565b82525050565b600060208201905061231c60008301846122f8565b92915050565b600081519050919050565b600082825260208201905092915050565b60005b8381101561235c578082015181840152602081019050612341565b60008484015250505050565b6000601f19601f8301169050919050565b600061238482612322565b61238e818561232d565b935061239e81856020860161233e565b6123a781612368565b840191505092915050565b600060208201905081810360008301526123cc8184612379565b905092915050565b6000819050919050565b6123e7816123d4565b81146123f257600080fd5b50565b600081359050612404816123de565b92915050565b6000602082840312156124205761241f61225d565b5b600061242e848285016123f5565b91505092915050565b600073ffffffffffffffffffffffffffffffffffffffff82169050919050565b600061246282612437565b9050919050565b61247281612457565b82525050565b600060208201905061248d6000830184612469565b92915050565b61249c81612457565b81146124a757600080fd5b50565b6000813590506124b981612493565b92915050565b600080604083850312156124d6576124d561225d565b5b60006124e4858286016124aa565b92505060206124f5858286016123f5565b9150509250929050565b6000806000606084860312156125185761251761225d565b5b6000612526868287016124aa565b9350506020612537868287016124aa565b9250506040612548868287016123f5565b9150509250925092565b6000602082840312156125685761256761225d565b5b6000612576848285016124aa565b91505092915050565b600080fd5b600080fd5b600080fd5b60008083601f8401126125a4576125a361257f565b5b8235905067ffffffffffffffff8111156125c1576125c0612584565b5b6020830191508360208202830111156125dd576125dc612589565b5b9250929050565b600080602083850312156125fb576125fa61225d565b5b600083013567ffffffffffffffff81111561261957612618612262565b5b6126258582860161258e565b92509250509250929050565b600080fd5b7f4e487b7100000000000000000000000000000000000000000000000000000000600052604160045260246000fd5b61266e82612368565b810181811067ffffffffffffffff8211171561268d5761268c612636565b5b80604052505050565b60006126a0612253565b90506126ac8282612665565b919050565b600067ffffffffffffffff8211156126cc576126cb612636565b5b6126d582612368565b9050602081019050919050565b82818337600083830152505050565b60006127046126ff846126b1565b612696565b9050828152602081018484840111156127205761271f612631565b5b61272b8482856126e2565b509392505050565b600082601f8301126127485761274761257f565b5b81356127588482602086016126f1565b91505092915050565b6000602082840312156127775761277661225d565b5b600082013567ffffffffffffffff81111561279557612794612262565b5b6127a184828501612733565b91505092915050565b600081519050919050565b600082825260208201905092915050565b6000819050602082019050919050565b6127df81612457565b82525050565b60006127f183836127d6565b60208301905092915050565b6000602082019050919050565b6000612815826127aa565b61281f81856127b5565b935061282a836127c6565b8060005b8381101561285b57815161284288826127e5565b975061284d836127fd565b92505060018101905061282e565b5085935050505092915050565b60006020820190508181036000830152612882818461280a565b905092915050565b612893816123d4565b82525050565b60006020820190506128ae600083018461288a565b92915050565b6128bd816122ec565b81146128c857600080fd5b50565b6000813590506128da816128b4565b92915050565b600080604083850312156128f7576128f661225d565b5b6000612905858286016124aa565b9250506020612916858286016128cb565b9150509250929050565b600067ffffffffffffffff82111561293b5761293a612636565b5b61294482612368565b9050602081019050919050565b600061296461295f84612920565b612696565b9050828152602081018484840111156129805761297f612631565b5b61298b8482856126e2565b509392505050565b600082601f8301126129a8576129a761257f565b5b81356129b8848260208601612951565b91505092915050565b600080600080608085870312156129db576129da61225d565b5b60006129e9878288016124aa565b94505060206129fa878288016124aa565b9350506040612a0b878288016123f5565b925050606085013567ffffffffffffffff811115612a2c57612a2b612262565b5b612a3887828801612993565b91505092959194509250565b60008060408385031215612a5b57612a5a61225d565b5b6000612a69858286016124aa565b9250506020612a7a858286016124aa565b9150509250929050565b6000819050919050565b6000612aa9612aa4612a9f84612437565b612a84565b612437565b9050919050565b6000612abb82612a8e565b9050919050565b6000612acd82612ab0565b9050919050565b612add81612ac2565b82525050565b6000602082019050612af86000830184612ad4565b92915050565b7f4e487b7100000000000000000000000000000000000000000000000000000000600052602260045260246000fd5b60006002820490506001821680612b4557607f821691505b602082108103612b5857612b57612afe565b5b50919050565b7f496e636f72726563742076616c75652073656e74000000000000000000000000600082015250565b6000612b9460148361232d565b9150612b9f82612b5e565b602082019050919050565b60006020820190508181036000830152612bc381612b87565b9050919050565b7f4e487b7100000000000000000000000000000000000000000000000000000000600052601160045260246000fd5b6000612c04826123d4565b9150612c0f836123d4565b9250828201905080821115612c2757612c26612bca565b5b92915050565b6000606082019050612c426000830186612469565b612c4f602083018561288a565b612c5c6040830184612469565b949350505050565b7f4e6f2066756e647320617661696c61626c650000000000000000000000000000600082015250565b6000612c9a60128361232d565b9150612ca582612c64565b602082019050919050565b60006020820190508181036000830152612cc981612c8d565b9050919050565b7f4e487b7100000000000000000000000000000000000000000000000000000000600052603260045260246000fd5b60008190508160005260206000209050919050565b60006020601f8301049050919050565b600082821b905092915050565b600060088302612d617fffffffffffffffffffffffffffffffffffffffffffffffffffffffffffffffff82612d24565b612d6b8683612d24565b95508019841693508086168417925050509392505050565b6000612d9e612d99612d94846123d4565b612a84565b6123d4565b9050919050565b6000819050919050565b612db883612d83565b612dcc612dc482612da5565b848454612d31565b825550505050565b600090565b612de1612dd4565b612dec818484612daf565b505050565b5b81811015612e1057612e05600082612dd9565b600181019050612df2565b5050565b601f821115612e5557612e2681612cff565b612e2f84612d14565b81016020851015612e3e578190505b612e52612e4a85612d14565b830182612df1565b50505b505050565b600082821c905092915050565b6000612e7860001984600802612e5a565b1980831691505092915050565b6000612e918383612e67565b9150826002028217905092915050565b612eaa82612322565b67ffffffffffffffff811115612ec357612ec2612636565b5b612ecd8254612b2d565b612ed8828285612e14565b600060209050601f831160018114612f0b5760008415612ef9578287015190505b612f038582612e85565b865550612f6b565b601f198416612f1986612cff565b60005b82811015612f4157848901518255600182019150602085019450602081019050612f1c565b86831015612f5e5784890151612f5a601f891682612e67565b8355505b6001600288020188555050505b505050505050565b6000604082019050612f886000830185612469565b612f956020830184612469565b9392505050565b600081519050612fab816123de565b92915050565b600060208284031215612fc757612fc661225d565b5b6000612fd584828501612f9c565b91505092915050565b600081905092915050565b6000612ff482612322565b612ffe8185612fde565b935061300e81856020860161233e565b80840191505092915050565b60006130268285612fe9565b91506130328284612fe9565b91508190509392505050565b600081519050919050565b600082825260208201905092915050565b60006130658261303e565b61306f8185613049565b935061307f81856020860161233e565b61308881612368565b840191505092915050565b60006080820190506130a86000830187612469565b6130b56020830186612469565b6130c2604083018561288a565b81810360608301526130d4818461305a565b905095945050505050565b6000815190506130ee81612293565b92915050565b60006020828403121561310a5761310961225d565b5b6000613118848285016130df565b91505092915050565b7f4e487b7100000000000000000000000000000000000000000000000000000000600052601260045260246000fd5b60006040820190506131656000830185612469565b613172602083018461288a565b9392505050565b6000613184826123d4565b915061318f836123d4565b92508282039050818111156131a7576131a6612bca565b5b92915050565b7f4e487b7100000000000000000000000000000000000000000000000000000000600052603160045260246000fdfea26469706673582212204f54484de31154a258a7fff674c9239377be558b6ba717b3be82ea656545854d64736f6c63430008180033",
  "linkReferences": {},
  "deployedLinkReferences": {}
}