{
  "_format": "hh-sol-artifact-1",
  "contractName": "Lock",
  "sourceName": "contracts/Lock.sol",
  "abi": [
    {
      "inputs": [],
      "stateMutability": "nonpayable",
      "type": "constructor"
    },
    {
      "inputs": [
        {
          "internalType": "address",
          "name": "sender",
          "type": "address"
        },
        {
          "internalType": "uint256",
          "name": "tokenId",
          "type": "uint256"
        },
        {
          "internalType": "address",
          "name": "owner",
          "type": "address"
        }
      ],
      "name": "ERC721IncorrectOwner",
      "type": "error"
    },
    {
      "inputs": [
        {
          "internalType": "address",
          "name": "operator",
          "type": "address"
        },
        {
          "internalType": "uint256",
          "name": "tokenId",
          "type": "uint256"
        }
      ],
      "name": "ERC721InsufficientApproval",
      "type": "error"
    },
    {
      "inputs": [
        {
          "internalType": "address",
          "name": "approver",
          "type": "address"
        }
      ],
      "name": "ERC721InvalidApprover",
      "type": "error"
    },
    {
      "inputs": [
        {
          "internalType": "address",
          "name": "operator",
          "type": "address"
        }
      ],
      "name": "ERC721InvalidOperator",
      "type": "error"
    },
    {
      "inputs": [
        {
          "internalType": "address",
          "name": "owner",
          "type": "address"
        }
      ],
      "name": "ERC721InvalidOwner",
      "type": "error"
    },
    {
      "inputs": [
        {
          "internalType": "address",
          "name": "receiver",
          "type": "address"
        }
      ],
      "name": "ERC721InvalidReceiver",
      "type": "error"
    },
    {
      "inputs": [
        {
          "internalType": "address",
          "name": "sender",
          "type": "address"
        }
      ],
      "name": "ERC721InvalidSender",
      "type": "error"
    },
    {
      "inputs": [
        {
          "internalType": "uint256",
          "name": "tokenId",
          "type": "uint256"
        }
      ],
      "name": "ERC721NonexistentToken",
      "type": "error"
    },
    {
      "inputs": [
        {
          "internalType": "address",
          "name": "owner",
          "type": "address"
        }
      ],
      "name": "OwnableInvalidOwner",
      "type": "error"
    },
    {
      "inputs": [
        {
          "internalType": "address",
          "name": "account",
          "type": "address"
        }
      ],
      "name": "OwnableUnauthorizedAccount",
      "type": "error"
    },
    {
      "anonymous": false,
      "inputs": [
        {
          "indexed": true,
          "internalType": "address",
          "name": "owner",
          "type": "address"
        },
        {
          "indexed": true,
          "internalType": "address",
          "name": "approved",
          "type": "address"
        },
        {
          "indexed": true,
          "internalType": "uint256",
          "name": "tokenId",
          "type": "uint256"
        }
      ],
      "name": "Approval",
      "type": "event"
    },
    {
      "anonymous": false,
      "inputs": [
        {
          "indexed": true,
          "internalType": "address",
          "name": "owner",
          "type": "address"
        },
        {
          "indexed": true,
          "internalType": "address",
          "name": "operator",
          "type": "address"
        },
        {
          "indexed": false,
          "internalType": "bool",
          "name": "approved",
          "type": "bool"
        }
      ],
      "name": "ApprovalForAll",
      "type": "event"
    },
    {
      "anonymous": false,
      "inputs": [
        {
          "indexed": true,
          "internalType": "address",
          "name": "previousOwner",
          "type": "address"
        },
        {
          "indexed": true,
          "internalType": "address",
          "name": "newOwner",
          "type": "address"
        }
      ],
      "name": "OwnershipTransferred",
      "type": "event"
    },
    {
      "anonymous": false,
      "inputs": [
        {
          "indexed": true,
          "internalType": "address",
          "name": "from",
          "type": "address"
        },
        {
          "indexed": true,
          "internalType": "address",
          "name": "to",
          "type": "address"
        },
        {
          "indexed": true,
          "internalType": "uint256",
          "name": "tokenId",
          "type": "uint256"
        }
      ],
      "name": "Transfer",
      "type": "event"
    },
    {
      "inputs": [],
      "name": "MINT_PRICE",
      "outputs": [
        {
          "internalType": "uint256",
          "name": "",
          "type": "uint256"
        }
      ],
      "stateMutability": "view",
      "type": "function"
    },
    {
      "inputs": [
        {
          "internalType": "address[]",
          "name": "addresses",
          "type": "address[]"
        }
      ],
      "name": "addToWhitelist",
      "outputs": [],
      "stateMutability": "nonpayable",
      "type": "function"
    },
    {
      "inputs": [
        {
          "internalType": "address",
          "name": "to",
          "type": "address"
        },
        {
          "internalType": "uint256",
          "name": "tokenId",
          "type": "uint256"
        }
      ],
      "name": "approve",
      "outputs": [],
      "stateMutability": "nonpayable",
      "type": "function"
    },
    {
      "inputs": [
        {
          "internalType": "address",
          "name": "owner",
          "type": "address"
        }
      ],
      "name": "balanceOf",
      "outputs": [
        {
          "internalType": "uint256",
          "name": "",
          "type": "uint256"
        }
      ],
      "stateMutability": "view",
      "type": "function"
    },
    {
      "inputs": [
        {
          "internalType": "address[]",
          "name": "addresses",
          "type": "address[]"
        }
      ],
      "name": "batchAirdrop",
      "outputs": [],
      "stateMutability": "nonpayable",
      "type": "function"
    },
    {
      "inputs": [],
      "name": "blastContract",
      "outputs": [
        {
          "internalType": "contract IBlast",
          "name": "",
          "type": "address"
        }
      ],
      "stateMutability": "view",
      "type": "function"
    },
    {
      "inputs": [
        {
          "internalType": "address",
          "name": "recipient",
          "type": "address"
        }
      ],
      "name": "claimGasFees",
      "outputs": [],
      "stateMutability": "nonpayable",
      "type": "function"
    },
    {
      "inputs": [
        {
          "internalType": "uint256",
          "name": "tokenId",
          "type": "uint256"
        }
      ],
      "name": "getApproved",
      "outputs": [
        {
          "internalType": "address",
          "name": "",
          "type": "address"
        }
      ],
      "stateMutability": "view",
      "type": "function"
    },
    {
      "inputs": [],
      "name": "getWhitelistAddresses",
      "outputs": [
        {
          "internalType": "address[]",
          "name": "",
          "type": "address[]"
        }
      ],
      "stateMutability": "view",
      "type": "function"
    },
    {
      "inputs": [
        {
          "internalType": "address",
          "name": "",
          "type": "address"
        }
      ],
      "name": "hasMintedInWhitelist",
      "outputs": [
        {
          "internalType": "bool",
          "name": "",
          "type": "bool"
        }
      ],
      "stateMutability": "view",
      "type": "function"
    },
    {
      "inputs": [
        {
          "internalType": "address",
          "name": "owner",
          "type": "address"
        },
        {
          "internalType": "address",
          "name": "operator",
          "type": "address"
        }
      ],
      "name": "isApprovedForAll",
      "outputs": [
        {
          "internalType": "bool",
          "name": "",
          "type": "bool"
        }
      ],
      "stateMutability": "view",
      "type": "function"
    },
    {
      "inputs": [
        {
          "internalType": "address",
          "name": "addr",
          "type": "address"
        }
      ],
      "name": "isWhitelisted",
      "outputs": [
        {
          "internalType": "bool",
          "name": "",
          "type": "bool"
        }
      ],
      "stateMutability": "view",
      "type": "function"
    },
    {
      "inputs": [],
      "name": "mint",
      "outputs": [],
      "stateMutability": "payable",
      "type": "function"
    },
    {
      "inputs": [],
      "name": "name",
      "outputs": [
        {
          "internalType": "string",
          "name": "",
          "type": "string"
        }
      ],
      "stateMutability": "view",
      "type": "function"
    },
    {
      "inputs": [],
      "name": "owner",
      "outputs": [
        {
          "internalType": "address",
          "name": "",
          "type": "address"
        }
      ],
      "stateMutability": "view",
      "type": "function"
    },
    {
      "inputs": [
        {
          "internalType": "uint256",
          "name": "tokenId",
          "type": "uint256"
        }
      ],
      "name": "ownerOf",
      "outputs": [
        {
          "internalType": "address",
          "name": "",
          "type": "address"
        }
      ],
      "stateMutability": "view",
      "type": "function"
    },
    {
      "inputs": [
        {
          "internalType": "address[]",
          "name": "addresses",
          "type": "address[]"
        }
      ],
      "name": "removeFromWhitelist",
      "outputs": [],
      "stateMutability": "nonpayable",
      "type": "function"
    },
    {
      "inputs": [],
      "name": "renounceOwnership",
      "outputs": [],
      "stateMutability": "nonpayable",
      "type": "function"
    },
    {
      "inputs": [
        {
          "internalType": "address",
          "name": "from",
          "type": "address"
        },
        {
          "internalType": "address",
          "name": "to",
          "type": "address"
        },
        {
          "internalType": "uint256",
          "name": "tokenId",
          "type": "uint256"
        }
      ],
      "name": "safeTransferFrom",
      "outputs": [],
      "stateMutability": "nonpayable",
      "type": "function"
    },
    {
      "inputs": [
        {
          "internalType": "address",
          "name": "from",
          "type": "address"
        },
        {
          "internalType": "address",
          "name": "to",
          "type": "address"
        },
        {
          "internalType": "uint256",
          "name": "tokenId",
          "type": "uint256"
        },
        {
          "internalType": "bytes",
          "name": "data",
          "type": "bytes"
        }
      ],
      "name": "safeTransferFrom",
      "outputs": [],
      "stateMutability": "nonpayable",
      "type": "function"
    },
    {
      "inputs": [],
      "name": "salePhase",
      "outputs": [
        {
          "internalType": "enum Lock.SalePhase",
          "name": "",
          "type": "uint8"
        }
      ],
      "stateMutability": "view",
      "type": "function"
    },
    {
      "inputs": [
        {
          "internalType": "address",
          "name": "operator",
          "type": "address"
        },
        {
          "internalType": "bool",
          "name": "approved",
          "type": "bool"
        }
      ],
      "name": "setApprovalForAll",
      "outputs": [],
      "stateMutability": "nonpayable",
      "type": "function"
    },
    {
      "inputs": [
        {
          "internalType": "string",
          "name": "baseURI",
          "type": "string"
        }
      ],
      "name": "setBaseURI",
      "outputs": [],
      "stateMutability": "nonpayable",
      "type": "function"
    },
    {
      "inputs": [
        {
          "internalType": "enum Lock.SalePhase",
          "name": "phase",
          "type": "uint8"
        }
      ],
      "name": "setSalePhase",
      "outputs": [],
      "stateMutability": "nonpayable",
      "type": "function"
    },
    {
      "inputs": [
        {
          "internalType": "bytes4",
          "name": "interfaceId",
          "type": "bytes4"
        }
      ],
      "name": "supportsInterface",
      "outputs": [
        {
          "internalType": "bool",
          "name": "",
          "type": "bool"
        }
      ],
      "stateMutability": "view",
      "type": "function"
    },
    {
      "inputs": [],
      "name": "symbol",
      "outputs": [
        {
          "internalType": "string",
          "name": "",
          "type": "string"
        }
      ],
      "stateMutability": "view",
      "type": "function"
    },
    {
      "inputs": [
        {
          "internalType": "uint256",
          "name": "tokenId",
          "type": "uint256"
        }
      ],
      "name": "tokenURI",
      "outputs": [
        {
          "internalType": "string",
          "name": "",
          "type": "string"
        }
      ],
      "stateMutability": "view",
      "type": "function"
    },
    {
      "inputs": [
        {
          "internalType": "address",
          "name": "from",
          "type": "address"
        },
        {
          "internalType": "address",
          "name": "to",
          "type": "address"
        },
        {
          "internalType": "uint256",
          "name": "tokenId",
          "type": "uint256"
        }
      ],
      "name": "transferFrom",
      "outputs": [],
      "stateMutability": "nonpayable",
      "type": "function"
    },
    {
      "inputs": [
        {
          "internalType": "address",
          "name": "newOwner",
          "type": "address"
        }
      ],
      "name": "transferOwnership",
      "outputs": [],
      "stateMutability": "nonpayable",
      "type": "function"
    },
    {
      "inputs": [],
      "name": "withdraw",
      "outputs": [],
      "stateMutability": "nonpayable",
      "type": "function"
    }
  ],
  "bytecode": "0x60806040523480156200001157600080fd5b50336040518060400160405280600d81526020017f4d79455243373231546f6b656e000000000000000000000000000000000000008152506040518060400160405280600381526020017f4d45540000000000000000000000000000000000000000000000000000000000815250816000908162000090919062000579565b508060019081620000a2919062000579565b505050600073ffffffffffffffffffffffffffffffffffffffff168173ffffffffffffffffffffffffffffffffffffffff16036200011a5760006040517f1e4fbdf7000000000000000000000000000000000000000000000000000000008152600401620001119190620006a5565b60405180910390fd5b6200012b816200023960201b60201c565b506000600d60006101000a81548160ff02191690836001811115620001555762000154620006c2565b5b0217905550734300000000000000000000000000000000000002600a60006101000a81548173ffffffffffffffffffffffffffffffffffffffff021916908373ffffffffffffffffffffffffffffffffffffffff160217905550600a60009054906101000a900473ffffffffffffffffffffffffffffffffffffffff1673ffffffffffffffffffffffffffffffffffffffff16634e606c476040518163ffffffff1660e01b8152600401600060405180830381600087803b1580156200021a57600080fd5b505af11580156200022f573d6000803e3d6000fd5b50505050620006f1565b6000600660009054906101000a900473ffffffffffffffffffffffffffffffffffffffff16905081600660006101000a81548173ffffffffffffffffffffffffffffffffffffffff021916908373ffffffffffffffffffffffffffffffffffffffff1602179055508173ffffffffffffffffffffffffffffffffffffffff168173ffffffffffffffffffffffffffffffffffffffff167f8be0079c531659141344cd1fd0a4f28419497f9722a3daafe3b4186f6b6457e060405160405180910390a35050565b600081519050919050565b7f4e487b7100000000000000000000000000000000000000000000000000000000600052604160045260246000fd5b7f4e487b7100000000000000000000000000000000000000000000000000000000600052602260045260246000fd5b600060028204905060018216806200038157607f821691505b60208210810362000397576200039662000339565b5b50919050565b60008190508160005260206000209050919050565b60006020601f8301049050919050565b600082821b905092915050565b600060088302620004017fffffffffffffffffffffffffffffffffffffffffffffffffffffffffffffffff82620003c2565b6200040d8683620003c2565b95508019841693508086168417925050509392505050565b6000819050919050565b6000819050919050565b60006200045a620004546200044e8462000425565b6200042f565b62000425565b9050919050565b6000819050919050565b620004768362000439565b6200048e620004858262000461565b848454620003cf565b825550505050565b600090565b620004a562000496565b620004b28184846200046b565b505050565b5b81811015620004da57620004ce6000826200049b565b600181019050620004b8565b5050565b601f8211156200052957620004f3816200039d565b620004fe84620003b2565b810160208510156200050e578190505b620005266200051d85620003b2565b830182620004b7565b50505b505050565b600082821c905092915050565b60006200054e600019846008026200052e565b1980831691505092915050565b60006200056983836200053b565b9150826002028217905092915050565b6200058482620002ff565b67ffffffffffffffff811115620005a0576200059f6200030a565b5b620005ac825462000368565b620005b9828285620004de565b600060209050601f831160018114620005f15760008415620005dc578287015190505b620005e885826200055b565b86555062000658565b601f19841662000601866200039d565b60005b828110156200062b5784890151825560018201915060208501945060208101905062000604565b868310156200064b578489015162000647601f8916826200053b565b8355505b6001600288020188555050505b505050505050565b600073ffffffffffffffffffffffffffffffffffffffff82169050919050565b60006200068d8262000660565b9050919050565b6200069f8162000680565b82525050565b6000602082019050620006bc600083018462000694565b92915050565b7f4e487b7100000000000000000000000000000000000000000000000000000000600052602160045260246000fd5b61366180620007016000396000f3fe6080604052600436106101cd5760003560e01c8063715018a6116100f7578063a22cb46511610095578063e4f2487a11610064578063e4f2487a1461064f578063e985e9c51461067a578063f2fde38b146106b7578063fce14af6146106e0576101cd565b8063a22cb46514610595578063b88d4fde146105be578063c002d23d146105e7578063c87b56dd14610612576101cd565b80638da5cb5b116100d15780638da5cb5b146104ed57806395d89b4114610518578063992f9f4b146105435780639edfbec91461056c576101cd565b8063715018a6146104845780637ad594311461049b5780637f649783146104c4576101cd565b80633af32abf1161016f57806355f804b31161013e57806355f804b3146103b6578063578cbd1f146103df5780636352211e1461040a57806370a0823114610447576101cd565b80633af32abf146103105780633ccfd60b1461034d57806342842e0e14610364578063548db1741461038d576101cd565b8063095ea7b3116101ab578063095ea7b3146102775780630a8b062b146102a05780631249c58b146102dd57806323b872dd146102e7576101cd565b806301ffc9a7146101d257806306fdde031461020f578063081812fc1461023a575b600080fd5b3480156101de57600080fd5b506101f960048036038101906101f49190612552565b61070b565b604051610206919061259a565b60405180910390f35b34801561021b57600080fd5b506102246107ed565b6040516102319190612645565b60405180910390f35b34801561024657600080fd5b50610261600480360381019061025c919061269d565b61087f565b60405161026e919061270b565b60405180910390f35b34801561028357600080fd5b5061029e60048036038101906102999190612752565b61089b565b005b3480156102ac57600080fd5b506102c760048036038101906102c29190612792565b6108b1565b6040516102d4919061259a565b60405180910390f35b6102e56108d1565b005b3480156102f357600080fd5b5061030e600480360381019061030991906127bf565b610aac565b005b34801561031c57600080fd5b5061033760048036038101906103329190612792565b610bae565b604051610344919061259a565b60405180910390f35b34801561035957600080fd5b50610362610bcb565b005b34801561037057600080fd5b5061038b600480360381019061038691906127bf565b610c6c565b005b34801561039957600080fd5b506103b460048036038101906103af9190612877565b610c8c565b005b3480156103c257600080fd5b506103dd60048036038101906103d891906129f4565b610cf0565b005b3480156103eb57600080fd5b506103f4610d0b565b6040516104019190612afb565b60405180910390f35b34801561041657600080fd5b50610431600480360381019061042c919061269d565b610dea565b60405161043e919061270b565b60405180910390f35b34801561045357600080fd5b5061046e60048036038101906104699190612792565b610dfc565b60405161047b9190612b2c565b60405180910390f35b34801561049057600080fd5b50610499610eb6565b005b3480156104a757600080fd5b506104c260048036038101906104bd9190612b6c565b610eca565b005b3480156104d057600080fd5b506104eb60048036038101906104e69190612877565b610eff565b005b3480156104f957600080fd5b50610502610f63565b60405161050f919061270b565b60405180910390f35b34801561052457600080fd5b5061052d610f8d565b60405161053a9190612645565b60405180910390f35b34801561054f57600080fd5b5061056a60048036038101906105659190612792565b61101f565b005b34801561057857600080fd5b50610593600480360381019061058e9190612877565b6110cb565b005b3480156105a157600080fd5b506105bc60048036038101906105b79190612bc5565b611140565b005b3480156105ca57600080fd5b506105e560048036038101906105e09190612ca6565b611156565b005b3480156105f357600080fd5b506105fc611173565b6040516106099190612b2c565b60405180910390f35b34801561061e57600080fd5b506106396004803603810190610634919061269d565b61117f565b6040516106469190612645565b60405180910390f35b34801561065b57600080fd5b506106646111e8565b6040516106719190612da0565b60405180910390f35b34801561068657600080fd5b506106a1600480360381019061069c9190612dbb565b6111fb565b6040516106ae919061259a565b60405180910390f35b3480156106c357600080fd5b506106de60048036038101906106d99190612792565b61128f565b005b3480156106ec57600080fd5b506106f5611315565b6040516107029190612e5a565b60405180910390f35b60007f80ac58cd000000000000000000000000000000000000000000000000000000007bffffffffffffffffffffffffffffffffffffffffffffffffffffffff1916827bffffffffffffffffffffffffffffffffffffffffffffffffffffffff191614806107d657507f5b5e139f000000000000000000000000000000000000000000000000000000007bffffffffffffffffffffffffffffffffffffffffffffffffffffffff1916827bffffffffffffffffffffffffffffffffffffffffffffffffffffffff1916145b806107e657506107e58261133b565b5b9050919050565b6060600080546107fc90612ea4565b80601f016020809104026020016040519081016040528092919081815260200182805461082890612ea4565b80156108755780601f1061084a57610100808354040283529160200191610875565b820191906000526020600020905b81548152906001019060200180831161085857829003601f168201915b5050505050905090565b600061088a826113a5565b506108948261142d565b9050919050565b6108ad82826108a861146a565b611472565b5050565b600c6020528060005260406000206000915054906101000a900460ff1681565b6706f05b59d3b20000341461091b576040517f08c379a000000000000000000000000000000000000000000000000000000000815260040161091290612f21565b60405180910390fd5b6000600181111561092f5761092e612d29565b5b600d60009054906101000a900460ff16600181111561095157610950612d29565b5b03610a845761095f33610bae565b61099e576040517f08c379a000000000000000000000000000000000000000000000000000000000815260040161099590612f8d565b60405180910390fd5b600c60003373ffffffffffffffffffffffffffffffffffffffff1673ffffffffffffffffffffffffffffffffffffffff16815260200190815260200160002060009054906101000a900460ff1615610a2b576040517f08c379a0000000000000000000000000000000000000000000000000000000008152600401610a2290612ff9565b60405180910390fd5b6001600c60003373ffffffffffffffffffffffffffffffffffffffff1673ffffffffffffffffffffffffffffffffffffffff16815260200190815260200160002060006101000a81548160ff0219169083151502179055505b600160096000828254610a979190613048565b92505081905550610aaa33600954611484565b565b600073ffffffffffffffffffffffffffffffffffffffff168273ffffffffffffffffffffffffffffffffffffffff1603610b1e5760006040517f64a0ae92000000000000000000000000000000000000000000000000000000008152600401610b15919061270b565b60405180910390fd5b6000610b328383610b2d61146a565b61157d565b90508373ffffffffffffffffffffffffffffffffffffffff168173ffffffffffffffffffffffffffffffffffffffff1614610ba8578382826040517f64283d7b000000000000000000000000000000000000000000000000000000008152600401610b9f9392919061307c565b60405180910390fd5b50505050565b6000610bc482600761179790919063ffffffff16565b9050919050565b610bd36117c7565b600047905060008111610c1b576040517f08c379a0000000000000000000000000000000000000000000000000000000008152600401610c12906130ff565b60405180910390fd5b610c23610f63565b73ffffffffffffffffffffffffffffffffffffffff166108fc829081150290604051600060405180830381858888f19350505050158015610c68573d6000803e3d6000fd5b5050565b610c8783838360405180602001604052806000815250611156565b505050565b610c946117c7565b60005b82829050811015610ceb57610cdd838383818110610cb857610cb761311f565b5b9050602002016020810190610ccd9190612792565b600761184e90919063ffffffff16565b508080600101915050610c97565b505050565b610cf86117c7565b80600b9081610d0791906132f0565b5050565b60606000610d19600761187e565b905060008167ffffffffffffffff811115610d3757610d366128c9565b5b604051908082528060200260200182016040528015610d655781602001602082028036833780820191505090505b50905060005b82811015610de157610d8781600761189390919063ffffffff16565b828281518110610d9a57610d9961311f565b5b602002602001019073ffffffffffffffffffffffffffffffffffffffff16908173ffffffffffffffffffffffffffffffffffffffff16815250508080600101915050610d6b565b50809250505090565b6000610df5826113a5565b9050919050565b60008073ffffffffffffffffffffffffffffffffffffffff168273ffffffffffffffffffffffffffffffffffffffff1603610e6f5760006040517f89c62b64000000000000000000000000000000000000000000000000000000008152600401610e66919061270b565b60405180910390fd5b600360008373ffffffffffffffffffffffffffffffffffffffff1673ffffffffffffffffffffffffffffffffffffffff168152602001908152602001600020549050919050565b610ebe6117c7565b610ec860006118ad565b565b610ed26117c7565b80600d60006101000a81548160ff02191690836001811115610ef757610ef6612d29565b5b021790555050565b610f076117c7565b60005b82829050811015610f5e57610f50838383818110610f2b57610f2a61311f565b5b9050602002016020810190610f409190612792565b600761197390919063ffffffff16565b508080600101915050610f0a565b505050565b6000600660009054906101000a900473ffffffffffffffffffffffffffffffffffffffff16905090565b606060018054610f9c90612ea4565b80601f0160208091040260200160405190810160405280929190818152602001828054610fc890612ea4565b80156110155780601f10610fea57610100808354040283529160200191611015565b820191906000526020600020905b815481529060010190602001808311610ff857829003601f168201915b5050505050905090565b6110276117c7565b600a60009054906101000a900473ffffffffffffffffffffffffffffffffffffffff1673ffffffffffffffffffffffffffffffffffffffff1663954fa5ee30836040518363ffffffff1660e01b81526004016110849291906133c2565b6020604051808303816000875af11580156110a3573d6000803e3d6000fd5b505050506040513d601f19601f820116820180604052508101906110c79190613400565b5050565b6110d36117c7565b60005b8282905081101561113b576001600960008282546110f49190613048565b9250508190555061112e8383838181106111115761111061311f565b5b90506020020160208101906111269190612792565b600954611484565b80806001019150506110d6565b505050565b61115261114b61146a565b83836119a3565b5050565b611161848484610aac565b61116d84848484611b12565b50505050565b6706f05b59d3b2000081565b606061118a826113a5565b506000611195611cc9565b905060008151116111b557604051806020016040528060008152506111e0565b806111bf84611d5b565b6040516020016111d0929190613469565b6040516020818303038152906040525b915050919050565b600d60009054906101000a900460ff1681565b6000600560008473ffffffffffffffffffffffffffffffffffffffff1673ffffffffffffffffffffffffffffffffffffffff16815260200190815260200160002060008373ffffffffffffffffffffffffffffffffffffffff1673ffffffffffffffffffffffffffffffffffffffff16815260200190815260200160002060009054906101000a900460ff16905092915050565b6112976117c7565b600073ffffffffffffffffffffffffffffffffffffffff168173ffffffffffffffffffffffffffffffffffffffff16036113095760006040517f1e4fbdf7000000000000000000000000000000000000000000000000000000008152600401611300919061270b565b60405180910390fd5b611312816118ad565b50565b600a60009054906101000a900473ffffffffffffffffffffffffffffffffffffffff1681565b60007f01ffc9a7000000000000000000000000000000000000000000000000000000007bffffffffffffffffffffffffffffffffffffffffffffffffffffffff1916827bffffffffffffffffffffffffffffffffffffffffffffffffffffffff1916149050919050565b6000806113b183611e29565b9050600073ffffffffffffffffffffffffffffffffffffffff168173ffffffffffffffffffffffffffffffffffffffff160361142457826040517f7e27328900000000000000000000000000000000000000000000000000000000815260040161141b9190612b2c565b60405180910390fd5b80915050919050565b60006004600083815260200190815260200160002060009054906101000a900473ffffffffffffffffffffffffffffffffffffffff169050919050565b600033905090565b61147f8383836001611e66565b505050565b600073ffffffffffffffffffffffffffffffffffffffff168273ffffffffffffffffffffffffffffffffffffffff16036114f65760006040517f64a0ae920000000000000000000000000000000000000000000000000000000081526004016114ed919061270b565b60405180910390fd5b60006115048383600061157d565b9050600073ffffffffffffffffffffffffffffffffffffffff168173ffffffffffffffffffffffffffffffffffffffff16146115785760006040517f73c6ac6e00000000000000000000000000000000000000000000000000000000815260040161156f919061270b565b60405180910390fd5b505050565b60008061158984611e29565b9050600073ffffffffffffffffffffffffffffffffffffffff168373ffffffffffffffffffffffffffffffffffffffff16146115cb576115ca81848661202b565b5b600073ffffffffffffffffffffffffffffffffffffffff168173ffffffffffffffffffffffffffffffffffffffff161461165c5761160d600085600080611e66565b6001600360008373ffffffffffffffffffffffffffffffffffffffff1673ffffffffffffffffffffffffffffffffffffffff168152602001908152602001600020600082825403925050819055505b600073ffffffffffffffffffffffffffffffffffffffff168573ffffffffffffffffffffffffffffffffffffffff16146116df576001600360008773ffffffffffffffffffffffffffffffffffffffff1673ffffffffffffffffffffffffffffffffffffffff168152602001908152602001600020600082825401925050819055505b846002600086815260200190815260200160002060006101000a81548173ffffffffffffffffffffffffffffffffffffffff021916908373ffffffffffffffffffffffffffffffffffffffff160217905550838573ffffffffffffffffffffffffffffffffffffffff168273ffffffffffffffffffffffffffffffffffffffff167fddf252ad1be2c89b69c2b068fc378daa952ba7f163c4a11628f55a4df523b3ef60405160405180910390a4809150509392505050565b60006117bf836000018373ffffffffffffffffffffffffffffffffffffffff1660001b6120ef565b905092915050565b6117cf61146a565b73ffffffffffffffffffffffffffffffffffffffff166117ed610f63565b73ffffffffffffffffffffffffffffffffffffffff161461184c5761181061146a565b6040517f118cdaa7000000000000000000000000000000000000000000000000000000008152600401611843919061270b565b60405180910390fd5b565b6000611876836000018373ffffffffffffffffffffffffffffffffffffffff1660001b612112565b905092915050565b600061188c82600001612226565b9050919050565b60006118a28360000183612237565b60001c905092915050565b6000600660009054906101000a900473ffffffffffffffffffffffffffffffffffffffff16905081600660006101000a81548173ffffffffffffffffffffffffffffffffffffffff021916908373ffffffffffffffffffffffffffffffffffffffff1602179055508173ffffffffffffffffffffffffffffffffffffffff168173ffffffffffffffffffffffffffffffffffffffff167f8be0079c531659141344cd1fd0a4f28419497f9722a3daafe3b4186f6b6457e060405160405180910390a35050565b600061199b836000018373ffffffffffffffffffffffffffffffffffffffff1660001b612262565b905092915050565b600073ffffffffffffffffffffffffffffffffffffffff168273ffffffffffffffffffffffffffffffffffffffff1603611a1457816040517f5b08ba18000000000000000000000000000000000000000000000000000000008152600401611a0b919061270b565b60405180910390fd5b80600560008573ffffffffffffffffffffffffffffffffffffffff1673ffffffffffffffffffffffffffffffffffffffff16815260200190815260200160002060008473ffffffffffffffffffffffffffffffffffffffff1673ffffffffffffffffffffffffffffffffffffffff16815260200190815260200160002060006101000a81548160ff0219169083151502179055508173ffffffffffffffffffffffffffffffffffffffff168373ffffffffffffffffffffffffffffffffffffffff167f17307eab39ab6107e8899845ad3d59bd9653f200f220920489ca2b5937696c3183604051611b05919061259a565b60405180910390a3505050565b60008373ffffffffffffffffffffffffffffffffffffffff163b1115611cc3578273ffffffffffffffffffffffffffffffffffffffff1663150b7a02611b5661146a565b8685856040518563ffffffff1660e01b8152600401611b7894939291906134e2565b6020604051808303816000875af1925050508015611bb457506040513d601f19601f82011682018060405250810190611bb19190613543565b60015b611c38573d8060008114611be4576040519150601f19603f3d011682016040523d82523d6000602084013e611be9565b606091505b506000815103611c3057836040517f64a0ae92000000000000000000000000000000000000000000000000000000008152600401611c27919061270b565b60405180910390fd5b805181602001fd5b63150b7a0260e01b7bffffffffffffffffffffffffffffffffffffffffffffffffffffffff1916817bffffffffffffffffffffffffffffffffffffffffffffffffffffffff191614611cc157836040517f64a0ae92000000000000000000000000000000000000000000000000000000008152600401611cb8919061270b565b60405180910390fd5b505b50505050565b6060600b8054611cd890612ea4565b80601f0160208091040260200160405190810160405280929190818152602001828054611d0490612ea4565b8015611d515780601f10611d2657610100808354040283529160200191611d51565b820191906000526020600020905b815481529060010190602001808311611d3457829003601f168201915b5050505050905090565b606060006001611d6a846122d2565b01905060008167ffffffffffffffff811115611d8957611d886128c9565b5b6040519080825280601f01601f191660200182016040528015611dbb5781602001600182028036833780820191505090505b509050600082602001820190505b600115611e1e578080600190039150507f3031323334353637383961626364656600000000000000000000000000000000600a86061a8153600a8581611e1257611e11613570565b5b04945060008503611dc9575b819350505050919050565b60006002600083815260200190815260200160002060009054906101000a900473ffffffffffffffffffffffffffffffffffffffff169050919050565b8080611e9f5750600073ffffffffffffffffffffffffffffffffffffffff168273ffffffffffffffffffffffffffffffffffffffff1614155b15611fd3576000611eaf846113a5565b9050600073ffffffffffffffffffffffffffffffffffffffff168373ffffffffffffffffffffffffffffffffffffffff1614158015611f1a57508273ffffffffffffffffffffffffffffffffffffffff168173ffffffffffffffffffffffffffffffffffffffff1614155b8015611f2d5750611f2b81846111fb565b155b15611f6f57826040517fa9fbf51f000000000000000000000000000000000000000000000000000000008152600401611f66919061270b565b60405180910390fd5b8115611fd157838573ffffffffffffffffffffffffffffffffffffffff168273ffffffffffffffffffffffffffffffffffffffff167f8c5be1e5ebec7d5bd14f71427d1e84f3dd0314c0f7b2291e5b200ac8c7c3b92560405160405180910390a45b505b836004600085815260200190815260200160002060006101000a81548173ffffffffffffffffffffffffffffffffffffffff021916908373ffffffffffffffffffffffffffffffffffffffff16021790555050505050565b612036838383612425565b6120ea57600073ffffffffffffffffffffffffffffffffffffffff168373ffffffffffffffffffffffffffffffffffffffff16036120ab57806040517f7e2732890000000000000000000000000000000000000000000000000000000081526004016120a29190612b2c565b60405180910390fd5b81816040517f177e802f0000000000000000000000000000000000000000000000000000000081526004016120e192919061359f565b60405180910390fd5b505050565b600080836001016000848152602001908152602001600020541415905092915050565b6000808360010160008481526020019081526020016000205490506000811461221a57600060018261214491906135c8565b905060006001866000018054905061215c91906135c8565b90508082146121cb57600086600001828154811061217d5761217c61311f565b5b90600052602060002001549050808760000184815481106121a1576121a061311f565b5b90600052602060002001819055508387600101600083815260200190815260200160002081905550505b856000018054806121df576121de6135fc565b5b600190038181906000526020600020016000905590558560010160008681526020019081526020016000206000905560019350505050612220565b60009150505b92915050565b600081600001805490509050919050565b600082600001828154811061224f5761224e61311f565b5b9060005260206000200154905092915050565b600061226e83836120ef565b6122c75782600001829080600181540180825580915050600190039060005260206000200160009091909190915055826000018054905083600101600084815260200190815260200160002081905550600190506122cc565b600090505b92915050565b600080600090507a184f03e93ff9f4daa797ed6e38ed64bf6a1f0100000000000000008310612330577a184f03e93ff9f4daa797ed6e38ed64bf6a1f010000000000000000838161232657612325613570565b5b0492506040810190505b6d04ee2d6d415b85acef8100000000831061236d576d04ee2d6d415b85acef8100000000838161236357612362613570565b5b0492506020810190505b662386f26fc10000831061239c57662386f26fc10000838161239257612391613570565b5b0492506010810190505b6305f5e10083106123c5576305f5e10083816123bb576123ba613570565b5b0492506008810190505b61271083106123ea5761271083816123e0576123df613570565b5b0492506004810190505b6064831061240d576064838161240357612402613570565b5b0492506002810190505b600a831061241c576001810190505b80915050919050565b60008073ffffffffffffffffffffffffffffffffffffffff168373ffffffffffffffffffffffffffffffffffffffff16141580156124dd57508273ffffffffffffffffffffffffffffffffffffffff168473ffffffffffffffffffffffffffffffffffffffff16148061249e575061249d84846111fb565b5b806124dc57508273ffffffffffffffffffffffffffffffffffffffff166124c48361142d565b73ffffffffffffffffffffffffffffffffffffffff16145b5b90509392505050565b6000604051905090565b600080fd5b600080fd5b60007fffffffff0000000000000000000000000000000000000000000000000000000082169050919050565b61252f816124fa565b811461253a57600080fd5b50565b60008135905061254c81612526565b92915050565b600060208284031215612568576125676124f0565b5b60006125768482850161253d565b91505092915050565b60008115159050919050565b6125948161257f565b82525050565b60006020820190506125af600083018461258b565b92915050565b600081519050919050565b600082825260208201905092915050565b60005b838110156125ef5780820151818401526020810190506125d4565b60008484015250505050565b6000601f19601f8301169050919050565b6000612617826125b5565b61262181856125c0565b93506126318185602086016125d1565b61263a816125fb565b840191505092915050565b6000602082019050818103600083015261265f818461260c565b905092915050565b6000819050919050565b61267a81612667565b811461268557600080fd5b50565b60008135905061269781612671565b92915050565b6000602082840312156126b3576126b26124f0565b5b60006126c184828501612688565b91505092915050565b600073ffffffffffffffffffffffffffffffffffffffff82169050919050565b60006126f5826126ca565b9050919050565b612705816126ea565b82525050565b600060208201905061272060008301846126fc565b92915050565b61272f816126ea565b811461273a57600080fd5b50565b60008135905061274c81612726565b92915050565b60008060408385031215612769576127686124f0565b5b60006127778582860161273d565b925050602061278885828601612688565b9150509250929050565b6000602082840312156127a8576127a76124f0565b5b60006127b68482850161273d565b91505092915050565b6000806000606084860312156127d8576127d76124f0565b5b60006127e68682870161273d565b93505060206127f78682870161273d565b925050604061280886828701612688565b9150509250925092565b600080fd5b600080fd5b600080fd5b60008083601f84011261283757612836612812565b5b8235905067ffffffffffffffff81111561285457612853612817565b5b6020830191508360208202830111156128705761286f61281c565b5b9250929050565b6000806020838503121561288e5761288d6124f0565b5b600083013567ffffffffffffffff8111156128ac576128ab6124f5565b5b6128b885828601612821565b92509250509250929050565b600080fd5b7f4e487b7100000000000000000000000000000000000000000000000000000000600052604160045260246000fd5b612901826125fb565b810181811067ffffffffffffffff821117156129205761291f6128c9565b5b80604052505050565b60006129336124e6565b905061293f82826128f8565b919050565b600067ffffffffffffffff82111561295f5761295e6128c9565b5b612968826125fb565b9050602081019050919050565b82818337600083830152505050565b600061299761299284612944565b612929565b9050828152602081018484840111156129b3576129b26128c4565b5b6129be848285612975565b509392505050565b600082601f8301126129db576129da612812565b5b81356129eb848260208601612984565b91505092915050565b600060208284031215612a0a57612a096124f0565b5b600082013567ffffffffffffffff811115612a2857612a276124f5565b5b612a34848285016129c6565b91505092915050565b600081519050919050565b600082825260208201905092915050565b6000819050602082019050919050565b612a72816126ea565b82525050565b6000612a848383612a69565b60208301905092915050565b6000602082019050919050565b6000612aa882612a3d565b612ab28185612a48565b9350612abd83612a59565b8060005b83811015612aee578151612ad58882612a78565b9750612ae083612a90565b925050600181019050612ac1565b5085935050505092915050565b60006020820190508181036000830152612b158184612a9d565b905092915050565b612b2681612667565b82525050565b6000602082019050612b416000830184612b1d565b92915050565b60028110612b5457600080fd5b50565b600081359050612b6681612b47565b92915050565b600060208284031215612b8257612b816124f0565b5b6000612b9084828501612b57565b91505092915050565b612ba28161257f565b8114612bad57600080fd5b50565b600081359050612bbf81612b99565b92915050565b60008060408385031215612bdc57612bdb6124f0565b5b6000612bea8582860161273d565b9250506020612bfb85828601612bb0565b9150509250929050565b600067ffffffffffffffff821115612c2057612c1f6128c9565b5b612c29826125fb565b9050602081019050919050565b6000612c49612c4484612c05565b612929565b905082815260208101848484011115612c6557612c646128c4565b5b612c70848285612975565b509392505050565b600082601f830112612c8d57612c8c612812565b5b8135612c9d848260208601612c36565b91505092915050565b60008060008060808587031215612cc057612cbf6124f0565b5b6000612cce8782880161273d565b9450506020612cdf8782880161273d565b9350506040612cf087828801612688565b925050606085013567ffffffffffffffff811115612d1157612d106124f5565b5b612d1d87828801612c78565b91505092959194509250565b7f4e487b7100000000000000000000000000000000000000000000000000000000600052602160045260246000fd5b60028110612d6957612d68612d29565b5b50565b6000819050612d7a82612d58565b919050565b6000612d8a82612d6c565b9050919050565b612d9a81612d7f565b82525050565b6000602082019050612db56000830184612d91565b92915050565b60008060408385031215612dd257612dd16124f0565b5b6000612de08582860161273d565b9250506020612df18582860161273d565b9150509250929050565b6000819050919050565b6000612e20612e1b612e16846126ca565b612dfb565b6126ca565b9050919050565b6000612e3282612e05565b9050919050565b6000612e4482612e27565b9050919050565b612e5481612e39565b82525050565b6000602082019050612e6f6000830184612e4b565b92915050565b7f4e487b7100000000000000000000000000000000000000000000000000000000600052602260045260246000fd5b60006002820490506001821680612ebc57607f821691505b602082108103612ecf57612ece612e75565b5b50919050565b7f496e636f72726563742076616c75652073656e74000000000000000000000000600082015250565b6000612f0b6014836125c0565b9150612f1682612ed5565b602082019050919050565b60006020820190508181036000830152612f3a81612efe565b9050919050565b7f4e6f7420696e2077686974656c69737400000000000000000000000000000000600082015250565b6000612f776010836125c0565b9150612f8282612f41565b602082019050919050565b60006020820190508181036000830152612fa681612f6a565b9050919050565b7f416c7265616479206d696e74656420696e207468697320706861736500000000600082015250565b6000612fe3601c836125c0565b9150612fee82612fad565b602082019050919050565b6000602082019050818103600083015261301281612fd6565b9050919050565b7f4e487b7100000000000000000000000000000000000000000000000000000000600052601160045260246000fd5b600061305382612667565b915061305e83612667565b925082820190508082111561307657613075613019565b5b92915050565b600060608201905061309160008301866126fc565b61309e6020830185612b1d565b6130ab60408301846126fc565b949350505050565b7f4e6f2066756e647320617661696c61626c650000000000000000000000000000600082015250565b60006130e96012836125c0565b91506130f4826130b3565b602082019050919050565b60006020820190508181036000830152613118816130dc565b9050919050565b7f4e487b7100000000000000000000000000000000000000000000000000000000600052603260045260246000fd5b60008190508160005260206000209050919050565b60006020601f8301049050919050565b600082821b905092915050565b6000600883026131b07fffffffffffffffffffffffffffffffffffffffffffffffffffffffffffffffff82613173565b6131ba8683613173565b95508019841693508086168417925050509392505050565b60006131ed6131e86131e384612667565b612dfb565b612667565b9050919050565b6000819050919050565b613207836131d2565b61321b613213826131f4565b848454613180565b825550505050565b600090565b613230613223565b61323b8184846131fe565b505050565b5b8181101561325f57613254600082613228565b600181019050613241565b5050565b601f8211156132a4576132758161314e565b61327e84613163565b8101602085101561328d578190505b6132a161329985613163565b830182613240565b50505b505050565b600082821c905092915050565b60006132c7600019846008026132a9565b1980831691505092915050565b60006132e083836132b6565b9150826002028217905092915050565b6132f9826125b5565b67ffffffffffffffff811115613312576133116128c9565b5b61331c8254612ea4565b613327828285613263565b600060209050601f83116001811461335a5760008415613348578287015190505b61335285826132d4565b8655506133ba565b601f1984166133688661314e565b60005b828110156133905784890151825560018201915060208501945060208101905061336b565b868310156133ad57848901516133a9601f8916826132b6565b8355505b6001600288020188555050505b505050505050565b60006040820190506133d760008301856126fc565b6133e460208301846126fc565b9392505050565b6000815190506133fa81612671565b92915050565b600060208284031215613416576134156124f0565b5b6000613424848285016133eb565b91505092915050565b600081905092915050565b6000613443826125b5565b61344d818561342d565b935061345d8185602086016125d1565b80840191505092915050565b60006134758285613438565b91506134818284613438565b91508190509392505050565b600081519050919050565b600082825260208201905092915050565b60006134b48261348d565b6134be8185613498565b93506134ce8185602086016125d1565b6134d7816125fb565b840191505092915050565b60006080820190506134f760008301876126fc565b61350460208301866126fc565b6135116040830185612b1d565b818103606083015261352381846134a9565b905095945050505050565b60008151905061353d81612526565b92915050565b600060208284031215613559576135586124f0565b5b60006135678482850161352e565b91505092915050565b7f4e487b7100000000000000000000000000000000000000000000000000000000600052601260045260246000fd5b60006040820190506135b460008301856126fc565b6135c16020830184612b1d565b9392505050565b60006135d382612667565b91506135de83612667565b92508282039050818111156135f6576135f5613019565b5b92915050565b7f4e487b7100000000000000000000000000000000000000000000000000000000600052603160045260246000fdfea2646970667358221220f3bb797bfaf7e1561813b6b402e954a9f55b24882b76ef393bc4e43ca072ad4864736f6c63430008180033",
  "linkReferences": {},
  "deployedLinkReferences": {}
}