{
  "_format": "hh-sol-artifact-1",
  "contractName": "Lock",
  "sourceName": "contracts/Lock.sol",
  "abi": [
    {
      "inputs": [],
      "stateMutability": "nonpayable",
      "type": "constructor"
    },
    {
      "inputs": [
        {
          "internalType": "address",
          "name": "sender",
          "type": "address"
        },
        {
          "internalType": "uint256",
          "name": "tokenId",
          "type": "uint256"
        },
        {
          "internalType": "address",
          "name": "owner",
          "type": "address"
        }
      ],
      "name": "ERC721IncorrectOwner",
      "type": "error"
    },
    {
      "inputs": [
        {
          "internalType": "address",
          "name": "operator",
          "type": "address"
        },
        {
          "internalType": "uint256",
          "name": "tokenId",
          "type": "uint256"
        }
      ],
      "name": "ERC721InsufficientApproval",
      "type": "error"
    },
    {
      "inputs": [
        {
          "internalType": "address",
          "name": "approver",
          "type": "address"
        }
      ],
      "name": "ERC721InvalidApprover",
      "type": "error"
    },
    {
      "inputs": [
        {
          "internalType": "address",
          "name": "operator",
          "type": "address"
        }
      ],
      "name": "ERC721InvalidOperator",
      "type": "error"
    },
    {
      "inputs": [
        {
          "internalType": "address",
          "name": "owner",
          "type": "address"
        }
      ],
      "name": "ERC721InvalidOwner",
      "type": "error"
    },
    {
      "inputs": [
        {
          "internalType": "address",
          "name": "receiver",
          "type": "address"
        }
      ],
      "name": "ERC721InvalidReceiver",
      "type": "error"
    },
    {
      "inputs": [
        {
          "internalType": "address",
          "name": "sender",
          "type": "address"
        }
      ],
      "name": "ERC721InvalidSender",
      "type": "error"
    },
    {
      "inputs": [
        {
          "internalType": "uint256",
          "name": "tokenId",
          "type": "uint256"
        }
      ],
      "name": "ERC721NonexistentToken",
      "type": "error"
    },
    {
      "inputs": [
        {
          "internalType": "address",
          "name": "owner",
          "type": "address"
        }
      ],
      "name": "OwnableInvalidOwner",
      "type": "error"
    },
    {
      "inputs": [
        {
          "internalType": "address",
          "name": "account",
          "type": "address"
        }
      ],
      "name": "OwnableUnauthorizedAccount",
      "type": "error"
    },
    {
      "anonymous": false,
      "inputs": [
        {
          "indexed": true,
          "internalType": "address",
          "name": "owner",
          "type": "address"
        },
        {
          "indexed": true,
          "internalType": "address",
          "name": "approved",
          "type": "address"
        },
        {
          "indexed": true,
          "internalType": "uint256",
          "name": "tokenId",
          "type": "uint256"
        }
      ],
      "name": "Approval",
      "type": "event"
    },
    {
      "anonymous": false,
      "inputs": [
        {
          "indexed": true,
          "internalType": "address",
          "name": "owner",
          "type": "address"
        },
        {
          "indexed": true,
          "internalType": "address",
          "name": "operator",
          "type": "address"
        },
        {
          "indexed": false,
          "internalType": "bool",
          "name": "approved",
          "type": "bool"
        }
      ],
      "name": "ApprovalForAll",
      "type": "event"
    },
    {
      "anonymous": false,
      "inputs": [
        {
          "indexed": true,
          "internalType": "address",
          "name": "previousOwner",
          "type": "address"
        },
        {
          "indexed": true,
          "internalType": "address",
          "name": "newOwner",
          "type": "address"
        }
      ],
      "name": "OwnershipTransferred",
      "type": "event"
    },
    {
      "anonymous": false,
      "inputs": [
        {
          "indexed": true,
          "internalType": "address",
          "name": "from",
          "type": "address"
        },
        {
          "indexed": true,
          "internalType": "address",
          "name": "to",
          "type": "address"
        },
        {
          "indexed": true,
          "internalType": "uint256",
          "name": "tokenId",
          "type": "uint256"
        }
      ],
      "name": "Transfer",
      "type": "event"
    },
    {
      "inputs": [
        {
          "internalType": "address[]",
          "name": "addresses",
          "type": "address[]"
        }
      ],
      "name": "addToWhitelist",
      "outputs": [],
      "stateMutability": "nonpayable",
      "type": "function"
    },
    {
      "inputs": [
        {
          "internalType": "address",
          "name": "to",
          "type": "address"
        }
      ],
      "name": "airdrop",
      "outputs": [],
      "stateMutability": "nonpayable",
      "type": "function"
    },
    {
      "inputs": [
        {
          "internalType": "address",
          "name": "to",
          "type": "address"
        },
        {
          "internalType": "uint256",
          "name": "tokenId",
          "type": "uint256"
        }
      ],
      "name": "approve",
      "outputs": [],
      "stateMutability": "nonpayable",
      "type": "function"
    },
    {
      "inputs": [
        {
          "internalType": "address",
          "name": "owner",
          "type": "address"
        }
      ],
      "name": "balanceOf",
      "outputs": [
        {
          "internalType": "uint256",
          "name": "",
          "type": "uint256"
        }
      ],
      "stateMutability": "view",
      "type": "function"
    },
    {
      "inputs": [
        {
          "internalType": "address[]",
          "name": "addresses",
          "type": "address[]"
        }
      ],
      "name": "batchAirdrop",
      "outputs": [],
      "stateMutability": "nonpayable",
      "type": "function"
    },
    {
      "inputs": [],
      "name": "blastContract",
      "outputs": [
        {
          "internalType": "contract IBlast",
          "name": "",
          "type": "address"
        }
      ],
      "stateMutability": "view",
      "type": "function"
    },
    {
      "inputs": [
        {
          "internalType": "address",
          "name": "recipient",
          "type": "address"
        }
      ],
      "name": "claimGasFees",
      "outputs": [],
      "stateMutability": "nonpayable",
      "type": "function"
    },
    {
      "inputs": [
        {
          "internalType": "uint256",
          "name": "tokenId",
          "type": "uint256"
        }
      ],
      "name": "getApproved",
      "outputs": [
        {
          "internalType": "address",
          "name": "",
          "type": "address"
        }
      ],
      "stateMutability": "view",
      "type": "function"
    },
    {
      "inputs": [
        {
          "internalType": "address",
          "name": "owner",
          "type": "address"
        },
        {
          "internalType": "address",
          "name": "operator",
          "type": "address"
        }
      ],
      "name": "isApprovedForAll",
      "outputs": [
        {
          "internalType": "bool",
          "name": "",
          "type": "bool"
        }
      ],
      "stateMutability": "view",
      "type": "function"
    },
    {
      "inputs": [
        {
          "internalType": "address",
          "name": "addr",
          "type": "address"
        }
      ],
      "name": "isWhitelisted",
      "outputs": [
        {
          "internalType": "bool",
          "name": "",
          "type": "bool"
        }
      ],
      "stateMutability": "view",
      "type": "function"
    },
    {
      "inputs": [],
      "name": "name",
      "outputs": [
        {
          "internalType": "string",
          "name": "",
          "type": "string"
        }
      ],
      "stateMutability": "view",
      "type": "function"
    },
    {
      "inputs": [],
      "name": "owner",
      "outputs": [
        {
          "internalType": "address",
          "name": "",
          "type": "address"
        }
      ],
      "stateMutability": "view",
      "type": "function"
    },
    {
      "inputs": [
        {
          "internalType": "uint256",
          "name": "tokenId",
          "type": "uint256"
        }
      ],
      "name": "ownerOf",
      "outputs": [
        {
          "internalType": "address",
          "name": "",
          "type": "address"
        }
      ],
      "stateMutability": "view",
      "type": "function"
    },
    {
      "inputs": [
        {
          "internalType": "address[]",
          "name": "addresses",
          "type": "address[]"
        }
      ],
      "name": "removeFromWhitelist",
      "outputs": [],
      "stateMutability": "nonpayable",
      "type": "function"
    },
    {
      "inputs": [],
      "name": "renounceOwnership",
      "outputs": [],
      "stateMutability": "nonpayable",
      "type": "function"
    },
    {
      "inputs": [
        {
          "internalType": "address",
          "name": "from",
          "type": "address"
        },
        {
          "internalType": "address",
          "name": "to",
          "type": "address"
        },
        {
          "internalType": "uint256",
          "name": "tokenId",
          "type": "uint256"
        }
      ],
      "name": "safeTransferFrom",
      "outputs": [],
      "stateMutability": "nonpayable",
      "type": "function"
    },
    {
      "inputs": [
        {
          "internalType": "address",
          "name": "from",
          "type": "address"
        },
        {
          "internalType": "address",
          "name": "to",
          "type": "address"
        },
        {
          "internalType": "uint256",
          "name": "tokenId",
          "type": "uint256"
        },
        {
          "internalType": "bytes",
          "name": "data",
          "type": "bytes"
        }
      ],
      "name": "safeTransferFrom",
      "outputs": [],
      "stateMutability": "nonpayable",
      "type": "function"
    },
    {
      "inputs": [
        {
          "internalType": "address",
          "name": "operator",
          "type": "address"
        },
        {
          "internalType": "bool",
          "name": "approved",
          "type": "bool"
        }
      ],
      "name": "setApprovalForAll",
      "outputs": [],
      "stateMutability": "nonpayable",
      "type": "function"
    },
    {
      "inputs": [
        {
          "internalType": "bytes4",
          "name": "interfaceId",
          "type": "bytes4"
        }
      ],
      "name": "supportsInterface",
      "outputs": [
        {
          "internalType": "bool",
          "name": "",
          "type": "bool"
        }
      ],
      "stateMutability": "view",
      "type": "function"
    },
    {
      "inputs": [],
      "name": "symbol",
      "outputs": [
        {
          "internalType": "string",
          "name": "",
          "type": "string"
        }
      ],
      "stateMutability": "view",
      "type": "function"
    },
    {
      "inputs": [
        {
          "internalType": "uint256",
          "name": "tokenId",
          "type": "uint256"
        }
      ],
      "name": "tokenURI",
      "outputs": [
        {
          "internalType": "string",
          "name": "",
          "type": "string"
        }
      ],
      "stateMutability": "view",
      "type": "function"
    },
    {
      "inputs": [
        {
          "internalType": "address",
          "name": "from",
          "type": "address"
        },
        {
          "internalType": "address",
          "name": "to",
          "type": "address"
        },
        {
          "internalType": "uint256",
          "name": "tokenId",
          "type": "uint256"
        }
      ],
      "name": "transferFrom",
      "outputs": [],
      "stateMutability": "nonpayable",
      "type": "function"
    },
    {
      "inputs": [
        {
          "internalType": "address",
          "name": "newOwner",
          "type": "address"
        }
      ],
      "name": "transferOwnership",
      "outputs": [],
      "stateMutability": "nonpayable",
      "type": "function"
    }
  ],
  "bytecode": "0x60806040523480156200001157600080fd5b50336040518060400160405280600d81526020017f4d79455243373231546f6b656e000000000000000000000000000000000000008152506040518060400160405280600381526020017f4d4554000000000000000000000000000000000000000000000000000000000081525081600090816200009091906200054b565b508060019081620000a291906200054b565b505050600073ffffffffffffffffffffffffffffffffffffffff168173ffffffffffffffffffffffffffffffffffffffff16036200011a5760006040517f1e4fbdf700000000000000000000000000000000000000000000000000000000815260040162000111919062000677565b60405180910390fd5b6200012b816200020b60201b60201c565b50734300000000000000000000000000000000000002600a60006101000a81548173ffffffffffffffffffffffffffffffffffffffff021916908373ffffffffffffffffffffffffffffffffffffffff160217905550600a60009054906101000a900473ffffffffffffffffffffffffffffffffffffffff1673ffffffffffffffffffffffffffffffffffffffff16634e606c476040518163ffffffff1660e01b8152600401600060405180830381600087803b158015620001ec57600080fd5b505af115801562000201573d6000803e3d6000fd5b5050505062000694565b6000600660009054906101000a900473ffffffffffffffffffffffffffffffffffffffff16905081600660006101000a81548173ffffffffffffffffffffffffffffffffffffffff021916908373ffffffffffffffffffffffffffffffffffffffff1602179055508173ffffffffffffffffffffffffffffffffffffffff168173ffffffffffffffffffffffffffffffffffffffff167f8be0079c531659141344cd1fd0a4f28419497f9722a3daafe3b4186f6b6457e060405160405180910390a35050565b600081519050919050565b7f4e487b7100000000000000000000000000000000000000000000000000000000600052604160045260246000fd5b7f4e487b7100000000000000000000000000000000000000000000000000000000600052602260045260246000fd5b600060028204905060018216806200035357607f821691505b6020821081036200036957620003686200030b565b5b50919050565b60008190508160005260206000209050919050565b60006020601f8301049050919050565b600082821b905092915050565b600060088302620003d37fffffffffffffffffffffffffffffffffffffffffffffffffffffffffffffffff8262000394565b620003df868362000394565b95508019841693508086168417925050509392505050565b6000819050919050565b6000819050919050565b60006200042c620004266200042084620003f7565b62000401565b620003f7565b9050919050565b6000819050919050565b62000448836200040b565b62000460620004578262000433565b848454620003a1565b825550505050565b600090565b6200047762000468565b620004848184846200043d565b505050565b5b81811015620004ac57620004a06000826200046d565b6001810190506200048a565b5050565b601f821115620004fb57620004c5816200036f565b620004d08462000384565b81016020851015620004e0578190505b620004f8620004ef8562000384565b83018262000489565b50505b505050565b600082821c905092915050565b6000620005206000198460080262000500565b1980831691505092915050565b60006200053b83836200050d565b9150826002028217905092915050565b6200055682620002d1565b67ffffffffffffffff811115620005725762000571620002dc565b5b6200057e82546200033a565b6200058b828285620004b0565b600060209050601f831160018114620005c35760008415620005ae578287015190505b620005ba85826200052d565b8655506200062a565b601f198416620005d3866200036f565b60005b82811015620005fd57848901518255600182019150602085019450602081019050620005d6565b868310156200061d578489015162000619601f8916826200050d565b8355505b6001600288020188555050505b505050505050565b600073ffffffffffffffffffffffffffffffffffffffff82169050919050565b60006200065f8262000632565b9050919050565b620006718162000652565b82525050565b60006020820190506200068e600083018462000666565b92915050565b61296080620006a46000396000f3fe608060405234801561001057600080fd5b506004361061014d5760003560e01c8063715018a6116100c3578063a22cb4651161007c578063a22cb46514610386578063b88d4fde146103a2578063c87b56dd146103be578063e985e9c5146103ee578063f2fde38b1461041e578063fce14af61461043a5761014d565b8063715018a6146102ec5780637f649783146102f65780638da5cb5b1461031257806395d89b4114610330578063992f9f4b1461034e5780639edfbec91461036a5761014d565b806323b872dd1161011557806323b872dd146102085780633af32abf1461022457806342842e0e14610254578063548db174146102705780636352211e1461028c57806370a08231146102bc5761014d565b806301ffc9a71461015257806306fdde0314610182578063081812fc146101a0578063095ea7b3146101d057806321860a05146101ec575b600080fd5b61016c60048036038101906101679190611eb7565b610458565b6040516101799190611eff565b60405180910390f35b61018a61053a565b6040516101979190611faa565b60405180910390f35b6101ba60048036038101906101b59190612002565b6105cc565b6040516101c79190612070565b60405180910390f35b6101ea60048036038101906101e591906120b7565b6105e8565b005b610206600480360381019061020191906120f7565b6105fe565b005b610222600480360381019061021d9190612124565b610677565b005b61023e600480360381019061023991906120f7565b610779565b60405161024b9190611eff565b60405180910390f35b61026e60048036038101906102699190612124565b610796565b005b61028a600480360381019061028591906121dc565b6107b6565b005b6102a660048036038101906102a19190612002565b61081a565b6040516102b39190612070565b60405180910390f35b6102d660048036038101906102d191906120f7565b61082c565b6040516102e39190612238565b60405180910390f35b6102f46108e6565b005b610310600480360381019061030b91906121dc565b6108fa565b005b61031a61095e565b6040516103279190612070565b60405180910390f35b610338610988565b6040516103459190611faa565b60405180910390f35b610368600480360381019061036391906120f7565b610a1a565b005b610384600480360381019061037f91906121dc565b610ac6565b005b6103a0600480360381019061039b919061227f565b610baa565b005b6103bc60048036038101906103b791906123ef565b610bc0565b005b6103d860048036038101906103d39190612002565b610bdd565b6040516103e59190611faa565b60405180910390f35b61040860048036038101906104039190612472565b610c46565b6040516104159190611eff565b60405180910390f35b610438600480360381019061043391906120f7565b610cda565b005b610442610d60565b60405161044f9190612511565b60405180910390f35b60007f80ac58cd000000000000000000000000000000000000000000000000000000007bffffffffffffffffffffffffffffffffffffffffffffffffffffffff1916827bffffffffffffffffffffffffffffffffffffffffffffffffffffffff1916148061052357507f5b5e139f000000000000000000000000000000000000000000000000000000007bffffffffffffffffffffffffffffffffffffffffffffffffffffffff1916827bffffffffffffffffffffffffffffffffffffffffffffffffffffffff1916145b80610533575061053282610d86565b5b9050919050565b6060600080546105499061255b565b80601f01602080910402602001604051908101604052809291908181526020018280546105759061255b565b80156105c25780601f10610597576101008083540402835291602001916105c2565b820191906000526020600020905b8154815290600101906020018083116105a557829003601f168201915b5050505050905090565b60006105d782610df0565b506105e182610e78565b9050919050565b6105fa82826105f5610eb5565b610ebd565b5050565b610606610ecf565b61060f81610779565b61064e576040517f08c379a0000000000000000000000000000000000000000000000000000000008152600401610645906125d8565b60405180910390fd5b6001600960008282546106619190612627565b9250508190555061067481600954610f56565b50565b600073ffffffffffffffffffffffffffffffffffffffff168273ffffffffffffffffffffffffffffffffffffffff16036106e95760006040517f64a0ae920000000000000000000000000000000000000000000000000000000081526004016106e09190612070565b60405180910390fd5b60006106fd83836106f8610eb5565b61104f565b90508373ffffffffffffffffffffffffffffffffffffffff168173ffffffffffffffffffffffffffffffffffffffff1614610773578382826040517f64283d7b00000000000000000000000000000000000000000000000000000000815260040161076a9392919061265b565b60405180910390fd5b50505050565b600061078f82600761126990919063ffffffff16565b9050919050565b6107b183838360405180602001604052806000815250610bc0565b505050565b6107be610ecf565b60005b82829050811015610815576108078383838181106107e2576107e1612692565b5b90506020020160208101906107f791906120f7565b600761129990919063ffffffff16565b5080806001019150506107c1565b505050565b600061082582610df0565b9050919050565b60008073ffffffffffffffffffffffffffffffffffffffff168273ffffffffffffffffffffffffffffffffffffffff160361089f5760006040517f89c62b640000000000000000000000000000000000000000000000000000000081526004016108969190612070565b60405180910390fd5b600360008373ffffffffffffffffffffffffffffffffffffffff1673ffffffffffffffffffffffffffffffffffffffff168152602001908152602001600020549050919050565b6108ee610ecf565b6108f860006112c9565b565b610902610ecf565b60005b828290508110156109595761094b83838381811061092657610925612692565b5b905060200201602081019061093b91906120f7565b600761138f90919063ffffffff16565b508080600101915050610905565b505050565b6000600660009054906101000a900473ffffffffffffffffffffffffffffffffffffffff16905090565b6060600180546109979061255b565b80601f01602080910402602001604051908101604052809291908181526020018280546109c39061255b565b8015610a105780601f106109e557610100808354040283529160200191610a10565b820191906000526020600020905b8154815290600101906020018083116109f357829003601f168201915b5050505050905090565b610a22610ecf565b600a60009054906101000a900473ffffffffffffffffffffffffffffffffffffffff1673ffffffffffffffffffffffffffffffffffffffff1663954fa5ee30836040518363ffffffff1660e01b8152600401610a7f9291906126c1565b6020604051808303816000875af1158015610a9e573d6000803e3d6000fd5b505050506040513d601f19601f82011682018060405250810190610ac291906126ff565b5050565b610ace610ecf565b60005b82829050811015610ba557610b0c838383818110610af257610af1612692565b5b9050602002016020810190610b0791906120f7565b610779565b610b4b576040517f08c379a0000000000000000000000000000000000000000000000000000000008152600401610b42906125d8565b60405180910390fd5b600160096000828254610b5e9190612627565b92505081905550610b98838383818110610b7b57610b7a612692565b5b9050602002016020810190610b9091906120f7565b600954610f56565b8080600101915050610ad1565b505050565b610bbc610bb5610eb5565b83836113bf565b5050565b610bcb848484610677565b610bd78484848461152e565b50505050565b6060610be882610df0565b506000610bf36116e5565b90506000815111610c135760405180602001604052806000815250610c3e565b80610c1d846116fc565b604051602001610c2e929190612768565b6040516020818303038152906040525b915050919050565b6000600560008473ffffffffffffffffffffffffffffffffffffffff1673ffffffffffffffffffffffffffffffffffffffff16815260200190815260200160002060008373ffffffffffffffffffffffffffffffffffffffff1673ffffffffffffffffffffffffffffffffffffffff16815260200190815260200160002060009054906101000a900460ff16905092915050565b610ce2610ecf565b600073ffffffffffffffffffffffffffffffffffffffff168173ffffffffffffffffffffffffffffffffffffffff1603610d545760006040517f1e4fbdf7000000000000000000000000000000000000000000000000000000008152600401610d4b9190612070565b60405180910390fd5b610d5d816112c9565b50565b600a60009054906101000a900473ffffffffffffffffffffffffffffffffffffffff1681565b60007f01ffc9a7000000000000000000000000000000000000000000000000000000007bffffffffffffffffffffffffffffffffffffffffffffffffffffffff1916827bffffffffffffffffffffffffffffffffffffffffffffffffffffffff1916149050919050565b600080610dfc836117ca565b9050600073ffffffffffffffffffffffffffffffffffffffff168173ffffffffffffffffffffffffffffffffffffffff1603610e6f57826040517f7e273289000000000000000000000000000000000000000000000000000000008152600401610e669190612238565b60405180910390fd5b80915050919050565b60006004600083815260200190815260200160002060009054906101000a900473ffffffffffffffffffffffffffffffffffffffff169050919050565b600033905090565b610eca8383836001611807565b505050565b610ed7610eb5565b73ffffffffffffffffffffffffffffffffffffffff16610ef561095e565b73ffffffffffffffffffffffffffffffffffffffff1614610f5457610f18610eb5565b6040517f118cdaa7000000000000000000000000000000000000000000000000000000008152600401610f4b9190612070565b60405180910390fd5b565b600073ffffffffffffffffffffffffffffffffffffffff168273ffffffffffffffffffffffffffffffffffffffff1603610fc85760006040517f64a0ae92000000000000000000000000000000000000000000000000000000008152600401610fbf9190612070565b60405180910390fd5b6000610fd68383600061104f565b9050600073ffffffffffffffffffffffffffffffffffffffff168173ffffffffffffffffffffffffffffffffffffffff161461104a5760006040517f73c6ac6e0000000000000000000000000000000000000000000000000000000081526004016110419190612070565b60405180910390fd5b505050565b60008061105b846117ca565b9050600073ffffffffffffffffffffffffffffffffffffffff168373ffffffffffffffffffffffffffffffffffffffff161461109d5761109c8184866119cc565b5b600073ffffffffffffffffffffffffffffffffffffffff168173ffffffffffffffffffffffffffffffffffffffff161461112e576110df600085600080611807565b6001600360008373ffffffffffffffffffffffffffffffffffffffff1673ffffffffffffffffffffffffffffffffffffffff168152602001908152602001600020600082825403925050819055505b600073ffffffffffffffffffffffffffffffffffffffff168573ffffffffffffffffffffffffffffffffffffffff16146111b1576001600360008773ffffffffffffffffffffffffffffffffffffffff1673ffffffffffffffffffffffffffffffffffffffff168152602001908152602001600020600082825401925050819055505b846002600086815260200190815260200160002060006101000a81548173ffffffffffffffffffffffffffffffffffffffff021916908373ffffffffffffffffffffffffffffffffffffffff160217905550838573ffffffffffffffffffffffffffffffffffffffff168273ffffffffffffffffffffffffffffffffffffffff167fddf252ad1be2c89b69c2b068fc378daa952ba7f163c4a11628f55a4df523b3ef60405160405180910390a4809150509392505050565b6000611291836000018373ffffffffffffffffffffffffffffffffffffffff1660001b611a90565b905092915050565b60006112c1836000018373ffffffffffffffffffffffffffffffffffffffff1660001b611ab3565b905092915050565b6000600660009054906101000a900473ffffffffffffffffffffffffffffffffffffffff16905081600660006101000a81548173ffffffffffffffffffffffffffffffffffffffff021916908373ffffffffffffffffffffffffffffffffffffffff1602179055508173ffffffffffffffffffffffffffffffffffffffff168173ffffffffffffffffffffffffffffffffffffffff167f8be0079c531659141344cd1fd0a4f28419497f9722a3daafe3b4186f6b6457e060405160405180910390a35050565b60006113b7836000018373ffffffffffffffffffffffffffffffffffffffff1660001b611bc7565b905092915050565b600073ffffffffffffffffffffffffffffffffffffffff168273ffffffffffffffffffffffffffffffffffffffff160361143057816040517f5b08ba180000000000000000000000000000000000000000000000000000000081526004016114279190612070565b60405180910390fd5b80600560008573ffffffffffffffffffffffffffffffffffffffff1673ffffffffffffffffffffffffffffffffffffffff16815260200190815260200160002060008473ffffffffffffffffffffffffffffffffffffffff1673ffffffffffffffffffffffffffffffffffffffff16815260200190815260200160002060006101000a81548160ff0219169083151502179055508173ffffffffffffffffffffffffffffffffffffffff168373ffffffffffffffffffffffffffffffffffffffff167f17307eab39ab6107e8899845ad3d59bd9653f200f220920489ca2b5937696c31836040516115219190611eff565b60405180910390a3505050565b60008373ffffffffffffffffffffffffffffffffffffffff163b11156116df578273ffffffffffffffffffffffffffffffffffffffff1663150b7a02611572610eb5565b8685856040518563ffffffff1660e01b815260040161159494939291906127e1565b6020604051808303816000875af19250505080156115d057506040513d601f19601f820116820180604052508101906115cd9190612842565b60015b611654573d8060008114611600576040519150601f19603f3d011682016040523d82523d6000602084013e611605565b606091505b50600081510361164c57836040517f64a0ae920000000000000000000000000000000000000000000000000000000081526004016116439190612070565b60405180910390fd5b805181602001fd5b63150b7a0260e01b7bffffffffffffffffffffffffffffffffffffffffffffffffffffffff1916817bffffffffffffffffffffffffffffffffffffffffffffffffffffffff1916146116dd57836040517f64a0ae920000000000000000000000000000000000000000000000000000000081526004016116d49190612070565b60405180910390fd5b505b50505050565b606060405180602001604052806000815250905090565b60606000600161170b84611c37565b01905060008167ffffffffffffffff81111561172a576117296122c4565b5b6040519080825280601f01601f19166020018201604052801561175c5781602001600182028036833780820191505090505b509050600082602001820190505b6001156117bf578080600190039150507f3031323334353637383961626364656600000000000000000000000000000000600a86061a8153600a85816117b3576117b261286f565b5b0494506000850361176a575b819350505050919050565b60006002600083815260200190815260200160002060009054906101000a900473ffffffffffffffffffffffffffffffffffffffff169050919050565b80806118405750600073ffffffffffffffffffffffffffffffffffffffff168273ffffffffffffffffffffffffffffffffffffffff1614155b1561197457600061185084610df0565b9050600073ffffffffffffffffffffffffffffffffffffffff168373ffffffffffffffffffffffffffffffffffffffff16141580156118bb57508273ffffffffffffffffffffffffffffffffffffffff168173ffffffffffffffffffffffffffffffffffffffff1614155b80156118ce57506118cc8184610c46565b155b1561191057826040517fa9fbf51f0000000000000000000000000000000000000000000000000000000081526004016119079190612070565b60405180910390fd5b811561197257838573ffffffffffffffffffffffffffffffffffffffff168273ffffffffffffffffffffffffffffffffffffffff167f8c5be1e5ebec7d5bd14f71427d1e84f3dd0314c0f7b2291e5b200ac8c7c3b92560405160405180910390a45b505b836004600085815260200190815260200160002060006101000a81548173ffffffffffffffffffffffffffffffffffffffff021916908373ffffffffffffffffffffffffffffffffffffffff16021790555050505050565b6119d7838383611d8a565b611a8b57600073ffffffffffffffffffffffffffffffffffffffff168373ffffffffffffffffffffffffffffffffffffffff1603611a4c57806040517f7e273289000000000000000000000000000000000000000000000000000000008152600401611a439190612238565b60405180910390fd5b81816040517f177e802f000000000000000000000000000000000000000000000000000000008152600401611a8292919061289e565b60405180910390fd5b505050565b600080836001016000848152602001908152602001600020541415905092915050565b60008083600101600084815260200190815260200160002054905060008114611bbb576000600182611ae591906128c7565b9050600060018660000180549050611afd91906128c7565b9050808214611b6c576000866000018281548110611b1e57611b1d612692565b5b9060005260206000200154905080876000018481548110611b4257611b41612692565b5b90600052602060002001819055508387600101600083815260200190815260200160002081905550505b85600001805480611b8057611b7f6128fb565b5b600190038181906000526020600020016000905590558560010160008681526020019081526020016000206000905560019350505050611bc1565b60009150505b92915050565b6000611bd38383611a90565b611c2c578260000182908060018154018082558091505060019003906000526020600020016000909190919091505582600001805490508360010160008481526020019081526020016000208190555060019050611c31565b600090505b92915050565b600080600090507a184f03e93ff9f4daa797ed6e38ed64bf6a1f0100000000000000008310611c95577a184f03e93ff9f4daa797ed6e38ed64bf6a1f0100000000000000008381611c8b57611c8a61286f565b5b0492506040810190505b6d04ee2d6d415b85acef81000000008310611cd2576d04ee2d6d415b85acef81000000008381611cc857611cc761286f565b5b0492506020810190505b662386f26fc100008310611d0157662386f26fc100008381611cf757611cf661286f565b5b0492506010810190505b6305f5e1008310611d2a576305f5e1008381611d2057611d1f61286f565b5b0492506008810190505b6127108310611d4f576127108381611d4557611d4461286f565b5b0492506004810190505b60648310611d725760648381611d6857611d6761286f565b5b0492506002810190505b600a8310611d81576001810190505b80915050919050565b60008073ffffffffffffffffffffffffffffffffffffffff168373ffffffffffffffffffffffffffffffffffffffff1614158015611e4257508273ffffffffffffffffffffffffffffffffffffffff168473ffffffffffffffffffffffffffffffffffffffff161480611e035750611e028484610c46565b5b80611e4157508273ffffffffffffffffffffffffffffffffffffffff16611e2983610e78565b73ffffffffffffffffffffffffffffffffffffffff16145b5b90509392505050565b6000604051905090565b600080fd5b600080fd5b60007fffffffff0000000000000000000000000000000000000000000000000000000082169050919050565b611e9481611e5f565b8114611e9f57600080fd5b50565b600081359050611eb181611e8b565b92915050565b600060208284031215611ecd57611ecc611e55565b5b6000611edb84828501611ea2565b91505092915050565b60008115159050919050565b611ef981611ee4565b82525050565b6000602082019050611f146000830184611ef0565b92915050565b600081519050919050565b600082825260208201905092915050565b60005b83811015611f54578082015181840152602081019050611f39565b60008484015250505050565b6000601f19601f8301169050919050565b6000611f7c82611f1a565b611f868185611f25565b9350611f96818560208601611f36565b611f9f81611f60565b840191505092915050565b60006020820190508181036000830152611fc48184611f71565b905092915050565b6000819050919050565b611fdf81611fcc565b8114611fea57600080fd5b50565b600081359050611ffc81611fd6565b92915050565b60006020828403121561201857612017611e55565b5b600061202684828501611fed565b91505092915050565b600073ffffffffffffffffffffffffffffffffffffffff82169050919050565b600061205a8261202f565b9050919050565b61206a8161204f565b82525050565b60006020820190506120856000830184612061565b92915050565b6120948161204f565b811461209f57600080fd5b50565b6000813590506120b18161208b565b92915050565b600080604083850312156120ce576120cd611e55565b5b60006120dc858286016120a2565b92505060206120ed85828601611fed565b9150509250929050565b60006020828403121561210d5761210c611e55565b5b600061211b848285016120a2565b91505092915050565b60008060006060848603121561213d5761213c611e55565b5b600061214b868287016120a2565b935050602061215c868287016120a2565b925050604061216d86828701611fed565b9150509250925092565b600080fd5b600080fd5b600080fd5b60008083601f84011261219c5761219b612177565b5b8235905067ffffffffffffffff8111156121b9576121b861217c565b5b6020830191508360208202830111156121d5576121d4612181565b5b9250929050565b600080602083850312156121f3576121f2611e55565b5b600083013567ffffffffffffffff81111561221157612210611e5a565b5b61221d85828601612186565b92509250509250929050565b61223281611fcc565b82525050565b600060208201905061224d6000830184612229565b92915050565b61225c81611ee4565b811461226757600080fd5b50565b60008135905061227981612253565b92915050565b6000806040838503121561229657612295611e55565b5b60006122a4858286016120a2565b92505060206122b58582860161226a565b9150509250929050565b600080fd5b7f4e487b7100000000000000000000000000000000000000000000000000000000600052604160045260246000fd5b6122fc82611f60565b810181811067ffffffffffffffff8211171561231b5761231a6122c4565b5b80604052505050565b600061232e611e4b565b905061233a82826122f3565b919050565b600067ffffffffffffffff82111561235a576123596122c4565b5b61236382611f60565b9050602081019050919050565b82818337600083830152505050565b600061239261238d8461233f565b612324565b9050828152602081018484840111156123ae576123ad6122bf565b5b6123b9848285612370565b509392505050565b600082601f8301126123d6576123d5612177565b5b81356123e684826020860161237f565b91505092915050565b6000806000806080858703121561240957612408611e55565b5b6000612417878288016120a2565b9450506020612428878288016120a2565b935050604061243987828801611fed565b925050606085013567ffffffffffffffff81111561245a57612459611e5a565b5b612466878288016123c1565b91505092959194509250565b6000806040838503121561248957612488611e55565b5b6000612497858286016120a2565b92505060206124a8858286016120a2565b9150509250929050565b6000819050919050565b60006124d76124d26124cd8461202f565b6124b2565b61202f565b9050919050565b60006124e9826124bc565b9050919050565b60006124fb826124de565b9050919050565b61250b816124f0565b82525050565b60006020820190506125266000830184612502565b92915050565b7f4e487b7100000000000000000000000000000000000000000000000000000000600052602260045260246000fd5b6000600282049050600182168061257357607f821691505b6020821081036125865761258561252c565b5b50919050565b7f41646472657373206973206e6f742077686974656c6973746564000000000000600082015250565b60006125c2601a83611f25565b91506125cd8261258c565b602082019050919050565b600060208201905081810360008301526125f1816125b5565b9050919050565b7f4e487b7100000000000000000000000000000000000000000000000000000000600052601160045260246000fd5b600061263282611fcc565b915061263d83611fcc565b9250828201905080821115612655576126546125f8565b5b92915050565b60006060820190506126706000830186612061565b61267d6020830185612229565b61268a6040830184612061565b949350505050565b7f4e487b7100000000000000000000000000000000000000000000000000000000600052603260045260246000fd5b60006040820190506126d66000830185612061565b6126e36020830184612061565b9392505050565b6000815190506126f981611fd6565b92915050565b60006020828403121561271557612714611e55565b5b6000612723848285016126ea565b91505092915050565b600081905092915050565b600061274282611f1a565b61274c818561272c565b935061275c818560208601611f36565b80840191505092915050565b60006127748285612737565b91506127808284612737565b91508190509392505050565b600081519050919050565b600082825260208201905092915050565b60006127b38261278c565b6127bd8185612797565b93506127cd818560208601611f36565b6127d681611f60565b840191505092915050565b60006080820190506127f66000830187612061565b6128036020830186612061565b6128106040830185612229565b818103606083015261282281846127a8565b905095945050505050565b60008151905061283c81611e8b565b92915050565b60006020828403121561285857612857611e55565b5b60006128668482850161282d565b91505092915050565b7f4e487b7100000000000000000000000000000000000000000000000000000000600052601260045260246000fd5b60006040820190506128b36000830185612061565b6128c06020830184612229565b9392505050565b60006128d282611fcc565b91506128dd83611fcc565b92508282039050818111156128f5576128f46125f8565b5b92915050565b7f4e487b7100000000000000000000000000000000000000000000000000000000600052603160045260246000fdfea26469706673582212202c16fde906f16b639329b262f8357117d259794bc9404fdb0744a77cb2d48dfc64736f6c63430008180033",
  "linkReferences": {},
  "deployedLinkReferences": {}
}