{
  "_format": "hh-sol-artifact-1",
  "contractName": "Lock",
  "sourceName": "contracts/Lock.sol",
  "abi": [
    {
      "inputs": [],
      "stateMutability": "nonpayable",
      "type": "constructor"
    },
    {
      "inputs": [],
      "name": "BLAST",
      "outputs": [
        {
          "internalType": "contract IBlast",
          "name": "",
          "type": "address"
        }
      ],
      "stateMutability": "view",
      "type": "function"
    },
    {
      "inputs": [],
      "name": "claimMyContractsGas",
      "outputs": [],
      "stateMutability": "nonpayable",
      "type": "function"
    }
  ],
  "bytecode": "0x608060405234801561001057600080fd5b5073430000000000000000000000000000000000000273ffffffffffffffffffffffffffffffffffffffff16634e606c476040518163ffffffff1660e01b8152600401600060405180830381600087803b15801561006d57600080fd5b505af1158015610081573d6000803e3d6000fd5b50505050610292806100946000396000f3fe608060405234801561001057600080fd5b50600436106100365760003560e01c806377d5d2dc1461003b57806397d7577614610045575b600080fd5b610043610063565b005b61004d6100f8565b60405161005a919061018f565b60405180910390f35b73430000000000000000000000000000000000000273ffffffffffffffffffffffffffffffffffffffff1663954fa5ee30336040518363ffffffff1660e01b81526004016100b29291906101cb565b6020604051808303816000875af11580156100d1573d6000803e3d6000fd5b505050506040513d601f19601f820116820180604052508101906100f5919061022f565b50565b73430000000000000000000000000000000000000281565b600073ffffffffffffffffffffffffffffffffffffffff82169050919050565b6000819050919050565b600061015561015061014b84610110565b610130565b610110565b9050919050565b60006101678261013a565b9050919050565b60006101798261015c565b9050919050565b6101898161016e565b82525050565b60006020820190506101a46000830184610180565b92915050565b60006101b582610110565b9050919050565b6101c5816101aa565b82525050565b60006040820190506101e060008301856101bc565b6101ed60208301846101bc565b9392505050565b600080fd5b6000819050919050565b61020c816101f9565b811461021757600080fd5b50565b60008151905061022981610203565b92915050565b600060208284031215610245576102446101f4565b5b60006102538482850161021a565b9150509291505056fea26469706673582212206508b7f3ea77e46b48ae5f407624c78228d20d49e34db35ba2ca3b16b407047e64736f6c63430008180033",
  "linkReferences": {},
  "deployedLinkReferences": {}
}