{
  "_format": "hh-sol-artifact-1",
  "contractName": "ERC721NFT",
  "sourceName": "contracts/Lock.sol",
  "abi": [
    {
      "inputs": [],
      "stateMutability": "nonpayable",
      "type": "constructor"
    },
    {
      "inputs": [],
      "name": "AccessControlBadConfirmation",
      "type": "error"
    },
    {
      "inputs": [
        {
          "internalType": "address",
          "name": "account",
          "type": "address"
        },
        {
          "internalType": "bytes32",
          "name": "neededRole",
          "type": "bytes32"
        }
      ],
      "name": "AccessControlUnauthorizedAccount",
      "type": "error"
    },
    {
      "inputs": [
        {
          "internalType": "address",
          "name": "sender",
          "type": "address"
        },
        {
          "internalType": "uint256",
          "name": "tokenId",
          "type": "uint256"
        },
        {
          "internalType": "address",
          "name": "owner",
          "type": "address"
        }
      ],
      "name": "ERC721IncorrectOwner",
      "type": "error"
    },
    {
      "inputs": [
        {
          "internalType": "address",
          "name": "operator",
          "type": "address"
        },
        {
          "internalType": "uint256",
          "name": "tokenId",
          "type": "uint256"
        }
      ],
      "name": "ERC721InsufficientApproval",
      "type": "error"
    },
    {
      "inputs": [
        {
          "internalType": "address",
          "name": "approver",
          "type": "address"
        }
      ],
      "name": "ERC721InvalidApprover",
      "type": "error"
    },
    {
      "inputs": [
        {
          "internalType": "address",
          "name": "operator",
          "type": "address"
        }
      ],
      "name": "ERC721InvalidOperator",
      "type": "error"
    },
    {
      "inputs": [
        {
          "internalType": "address",
          "name": "owner",
          "type": "address"
        }
      ],
      "name": "ERC721InvalidOwner",
      "type": "error"
    },
    {
      "inputs": [
        {
          "internalType": "address",
          "name": "receiver",
          "type": "address"
        }
      ],
      "name": "ERC721InvalidReceiver",
      "type": "error"
    },
    {
      "inputs": [
        {
          "internalType": "address",
          "name": "sender",
          "type": "address"
        }
      ],
      "name": "ERC721InvalidSender",
      "type": "error"
    },
    {
      "inputs": [
        {
          "internalType": "uint256",
          "name": "tokenId",
          "type": "uint256"
        }
      ],
      "name": "ERC721NonexistentToken",
      "type": "error"
    },
    {
      "inputs": [
        {
          "internalType": "address",
          "name": "owner",
          "type": "address"
        }
      ],
      "name": "OwnableInvalidOwner",
      "type": "error"
    },
    {
      "inputs": [
        {
          "internalType": "address",
          "name": "account",
          "type": "address"
        }
      ],
      "name": "OwnableUnauthorizedAccount",
      "type": "error"
    },
    {
      "anonymous": false,
      "inputs": [
        {
          "indexed": true,
          "internalType": "address",
          "name": "owner",
          "type": "address"
        },
        {
          "indexed": true,
          "internalType": "address",
          "name": "approved",
          "type": "address"
        },
        {
          "indexed": true,
          "internalType": "uint256",
          "name": "tokenId",
          "type": "uint256"
        }
      ],
      "name": "Approval",
      "type": "event"
    },
    {
      "anonymous": false,
      "inputs": [
        {
          "indexed": true,
          "internalType": "address",
          "name": "owner",
          "type": "address"
        },
        {
          "indexed": true,
          "internalType": "address",
          "name": "operator",
          "type": "address"
        },
        {
          "indexed": false,
          "internalType": "bool",
          "name": "approved",
          "type": "bool"
        }
      ],
      "name": "ApprovalForAll",
      "type": "event"
    },
    {
      "anonymous": false,
      "inputs": [
        {
          "indexed": true,
          "internalType": "address",
          "name": "previousOwner",
          "type": "address"
        },
        {
          "indexed": true,
          "internalType": "address",
          "name": "newOwner",
          "type": "address"
        }
      ],
      "name": "OwnershipTransferred",
      "type": "event"
    },
    {
      "anonymous": false,
      "inputs": [
        {
          "indexed": true,
          "internalType": "bytes32",
          "name": "role",
          "type": "bytes32"
        },
        {
          "indexed": true,
          "internalType": "bytes32",
          "name": "previousAdminRole",
          "type": "bytes32"
        },
        {
          "indexed": true,
          "internalType": "bytes32",
          "name": "newAdminRole",
          "type": "bytes32"
        }
      ],
      "name": "RoleAdminChanged",
      "type": "event"
    },
    {
      "anonymous": false,
      "inputs": [
        {
          "indexed": true,
          "internalType": "bytes32",
          "name": "role",
          "type": "bytes32"
        },
        {
          "indexed": true,
          "internalType": "address",
          "name": "account",
          "type": "address"
        },
        {
          "indexed": true,
          "internalType": "address",
          "name": "sender",
          "type": "address"
        }
      ],
      "name": "RoleGranted",
      "type": "event"
    },
    {
      "anonymous": false,
      "inputs": [
        {
          "indexed": true,
          "internalType": "bytes32",
          "name": "role",
          "type": "bytes32"
        },
        {
          "indexed": true,
          "internalType": "address",
          "name": "account",
          "type": "address"
        },
        {
          "indexed": true,
          "internalType": "address",
          "name": "sender",
          "type": "address"
        }
      ],
      "name": "RoleRevoked",
      "type": "event"
    },
    {
      "anonymous": false,
      "inputs": [
        {
          "indexed": true,
          "internalType": "address",
          "name": "from",
          "type": "address"
        },
        {
          "indexed": true,
          "internalType": "address",
          "name": "to",
          "type": "address"
        },
        {
          "indexed": true,
          "internalType": "uint256",
          "name": "tokenId",
          "type": "uint256"
        }
      ],
      "name": "Transfer",
      "type": "event"
    },
    {
      "inputs": [],
      "name": "DEFAULT_ADMIN_ROLE",
      "outputs": [
        {
          "internalType": "bytes32",
          "name": "",
          "type": "bytes32"
        }
      ],
      "stateMutability": "view",
      "type": "function"
    },
    {
      "inputs": [],
      "name": "MINT_PRICE",
      "outputs": [
        {
          "internalType": "uint256",
          "name": "",
          "type": "uint256"
        }
      ],
      "stateMutability": "view",
      "type": "function"
    },
    {
      "inputs": [],
      "name": "OPERATOR_ROLE",
      "outputs": [
        {
          "internalType": "bytes32",
          "name": "",
          "type": "bytes32"
        }
      ],
      "stateMutability": "view",
      "type": "function"
    },
    {
      "inputs": [
        {
          "internalType": "address[]",
          "name": "addresses",
          "type": "address[]"
        }
      ],
      "name": "addToWhitelist",
      "outputs": [],
      "stateMutability": "nonpayable",
      "type": "function"
    },
    {
      "inputs": [
        {
          "internalType": "address",
          "name": "to",
          "type": "address"
        },
        {
          "internalType": "uint256",
          "name": "tokenId",
          "type": "uint256"
        }
      ],
      "name": "approve",
      "outputs": [],
      "stateMutability": "nonpayable",
      "type": "function"
    },
    {
      "inputs": [
        {
          "internalType": "address",
          "name": "owner",
          "type": "address"
        }
      ],
      "name": "balanceOf",
      "outputs": [
        {
          "internalType": "uint256",
          "name": "",
          "type": "uint256"
        }
      ],
      "stateMutability": "view",
      "type": "function"
    },
    {
      "inputs": [
        {
          "internalType": "address[]",
          "name": "addresses",
          "type": "address[]"
        }
      ],
      "name": "batchAirdrop",
      "outputs": [],
      "stateMutability": "nonpayable",
      "type": "function"
    },
    {
      "inputs": [],
      "name": "blastContract",
      "outputs": [
        {
          "internalType": "contract IBlast",
          "name": "",
          "type": "address"
        }
      ],
      "stateMutability": "view",
      "type": "function"
    },
    {
      "inputs": [
        {
          "internalType": "address",
          "name": "recipient",
          "type": "address"
        }
      ],
      "name": "claimGasFees",
      "outputs": [],
      "stateMutability": "nonpayable",
      "type": "function"
    },
    {
      "inputs": [
        {
          "internalType": "uint256",
          "name": "tokenId",
          "type": "uint256"
        }
      ],
      "name": "getApproved",
      "outputs": [
        {
          "internalType": "address",
          "name": "",
          "type": "address"
        }
      ],
      "stateMutability": "view",
      "type": "function"
    },
    {
      "inputs": [
        {
          "internalType": "bytes32",
          "name": "role",
          "type": "bytes32"
        }
      ],
      "name": "getRoleAdmin",
      "outputs": [
        {
          "internalType": "bytes32",
          "name": "",
          "type": "bytes32"
        }
      ],
      "stateMutability": "view",
      "type": "function"
    },
    {
      "inputs": [],
      "name": "getWhitelistAddresses",
      "outputs": [
        {
          "internalType": "address[]",
          "name": "",
          "type": "address[]"
        }
      ],
      "stateMutability": "view",
      "type": "function"
    },
    {
      "inputs": [
        {
          "internalType": "bytes32",
          "name": "role",
          "type": "bytes32"
        },
        {
          "internalType": "address",
          "name": "account",
          "type": "address"
        }
      ],
      "name": "grantRole",
      "outputs": [],
      "stateMutability": "nonpayable",
      "type": "function"
    },
    {
      "inputs": [
        {
          "internalType": "address",
          "name": "",
          "type": "address"
        }
      ],
      "name": "hasMintedInWhitelist",
      "outputs": [
        {
          "internalType": "bool",
          "name": "",
          "type": "bool"
        }
      ],
      "stateMutability": "view",
      "type": "function"
    },
    {
      "inputs": [
        {
          "internalType": "bytes32",
          "name": "role",
          "type": "bytes32"
        },
        {
          "internalType": "address",
          "name": "account",
          "type": "address"
        }
      ],
      "name": "hasRole",
      "outputs": [
        {
          "internalType": "bool",
          "name": "",
          "type": "bool"
        }
      ],
      "stateMutability": "view",
      "type": "function"
    },
    {
      "inputs": [
        {
          "internalType": "address",
          "name": "owner",
          "type": "address"
        },
        {
          "internalType": "address",
          "name": "operator",
          "type": "address"
        }
      ],
      "name": "isApprovedForAll",
      "outputs": [
        {
          "internalType": "bool",
          "name": "",
          "type": "bool"
        }
      ],
      "stateMutability": "view",
      "type": "function"
    },
    {
      "inputs": [
        {
          "internalType": "address",
          "name": "addr",
          "type": "address"
        }
      ],
      "name": "isWhitelisted",
      "outputs": [
        {
          "internalType": "bool",
          "name": "",
          "type": "bool"
        }
      ],
      "stateMutability": "view",
      "type": "function"
    },
    {
      "inputs": [],
      "name": "mint",
      "outputs": [],
      "stateMutability": "payable",
      "type": "function"
    },
    {
      "inputs": [],
      "name": "name",
      "outputs": [
        {
          "internalType": "string",
          "name": "",
          "type": "string"
        }
      ],
      "stateMutability": "view",
      "type": "function"
    },
    {
      "inputs": [],
      "name": "owner",
      "outputs": [
        {
          "internalType": "address",
          "name": "",
          "type": "address"
        }
      ],
      "stateMutability": "view",
      "type": "function"
    },
    {
      "inputs": [
        {
          "internalType": "uint256",
          "name": "tokenId",
          "type": "uint256"
        }
      ],
      "name": "ownerOf",
      "outputs": [
        {
          "internalType": "address",
          "name": "",
          "type": "address"
        }
      ],
      "stateMutability": "view",
      "type": "function"
    },
    {
      "inputs": [
        {
          "internalType": "address[]",
          "name": "addresses",
          "type": "address[]"
        }
      ],
      "name": "removeFromWhitelist",
      "outputs": [],
      "stateMutability": "nonpayable",
      "type": "function"
    },
    {
      "inputs": [],
      "name": "renounceOwnership",
      "outputs": [],
      "stateMutability": "nonpayable",
      "type": "function"
    },
    {
      "inputs": [
        {
          "internalType": "bytes32",
          "name": "role",
          "type": "bytes32"
        },
        {
          "internalType": "address",
          "name": "callerConfirmation",
          "type": "address"
        }
      ],
      "name": "renounceRole",
      "outputs": [],
      "stateMutability": "nonpayable",
      "type": "function"
    },
    {
      "inputs": [
        {
          "internalType": "bytes32",
          "name": "role",
          "type": "bytes32"
        },
        {
          "internalType": "address",
          "name": "account",
          "type": "address"
        }
      ],
      "name": "revokeRole",
      "outputs": [],
      "stateMutability": "nonpayable",
      "type": "function"
    },
    {
      "inputs": [
        {
          "internalType": "address",
          "name": "from",
          "type": "address"
        },
        {
          "internalType": "address",
          "name": "to",
          "type": "address"
        },
        {
          "internalType": "uint256",
          "name": "tokenId",
          "type": "uint256"
        }
      ],
      "name": "safeTransferFrom",
      "outputs": [],
      "stateMutability": "nonpayable",
      "type": "function"
    },
    {
      "inputs": [
        {
          "internalType": "address",
          "name": "from",
          "type": "address"
        },
        {
          "internalType": "address",
          "name": "to",
          "type": "address"
        },
        {
          "internalType": "uint256",
          "name": "tokenId",
          "type": "uint256"
        },
        {
          "internalType": "bytes",
          "name": "data",
          "type": "bytes"
        }
      ],
      "name": "safeTransferFrom",
      "outputs": [],
      "stateMutability": "nonpayable",
      "type": "function"
    },
    {
      "inputs": [],
      "name": "salePhase",
      "outputs": [
        {
          "internalType": "enum ERC721NFT.SalePhase",
          "name": "",
          "type": "uint8"
        }
      ],
      "stateMutability": "view",
      "type": "function"
    },
    {
      "inputs": [
        {
          "internalType": "address",
          "name": "operator",
          "type": "address"
        },
        {
          "internalType": "bool",
          "name": "approved",
          "type": "bool"
        }
      ],
      "name": "setApprovalForAll",
      "outputs": [],
      "stateMutability": "nonpayable",
      "type": "function"
    },
    {
      "inputs": [
        {
          "internalType": "string",
          "name": "baseURI",
          "type": "string"
        }
      ],
      "name": "setBaseURI",
      "outputs": [],
      "stateMutability": "nonpayable",
      "type": "function"
    },
    {
      "inputs": [
        {
          "internalType": "enum ERC721NFT.SalePhase",
          "name": "phase",
          "type": "uint8"
        }
      ],
      "name": "setSalePhase",
      "outputs": [],
      "stateMutability": "nonpayable",
      "type": "function"
    },
    {
      "inputs": [
        {
          "internalType": "bytes32",
          "name": "role",
          "type": "bytes32"
        },
        {
          "internalType": "address",
          "name": "account",
          "type": "address"
        }
      ],
      "name": "setupRole",
      "outputs": [],
      "stateMutability": "nonpayable",
      "type": "function"
    },
    {
      "inputs": [
        {
          "internalType": "bytes4",
          "name": "interfaceId",
          "type": "bytes4"
        }
      ],
      "name": "supportsInterface",
      "outputs": [
        {
          "internalType": "bool",
          "name": "",
          "type": "bool"
        }
      ],
      "stateMutability": "view",
      "type": "function"
    },
    {
      "inputs": [],
      "name": "symbol",
      "outputs": [
        {
          "internalType": "string",
          "name": "",
          "type": "string"
        }
      ],
      "stateMutability": "view",
      "type": "function"
    },
    {
      "inputs": [
        {
          "internalType": "uint256",
          "name": "tokenId",
          "type": "uint256"
        }
      ],
      "name": "tokenURI",
      "outputs": [
        {
          "internalType": "string",
          "name": "",
          "type": "string"
        }
      ],
      "stateMutability": "view",
      "type": "function"
    },
    {
      "inputs": [
        {
          "internalType": "address",
          "name": "from",
          "type": "address"
        },
        {
          "internalType": "address",
          "name": "to",
          "type": "address"
        },
        {
          "internalType": "uint256",
          "name": "tokenId",
          "type": "uint256"
        }
      ],
      "name": "transferFrom",
      "outputs": [],
      "stateMutability": "nonpayable",
      "type": "function"
    },
    {
      "inputs": [
        {
          "internalType": "address",
          "name": "newOwner",
          "type": "address"
        }
      ],
      "name": "transferOwnership",
      "outputs": [],
      "stateMutability": "nonpayable",
      "type": "function"
    },
    {
      "inputs": [],
      "name": "withdraw",
      "outputs": [],
      "stateMutability": "nonpayable",
      "type": "function"
    }
  ],
  "bytecode": "0x60806040523480156200001157600080fd5b50336040518060400160405280600d81526020017f4d79455243373231546f6b656e000000000000000000000000000000000000008152506040518060400160405280600381526020017f4d4554000000000000000000000000000000000000000000000000000000000081525081600090816200009091906200082a565b508060019081620000a291906200082a565b505050600073ffffffffffffffffffffffffffffffffffffffff168173ffffffffffffffffffffffffffffffffffffffff16036200011a5760006040517f1e4fbdf700000000000000000000000000000000000000000000000000000000815260040162000111919062000956565b60405180910390fd5b6200012b816200028060201b60201c565b506000600e60006101000a81548160ff0219169083600181111562000155576200015462000973565b5b0217905550734300000000000000000000000000000000000002600b60006101000a81548173ffffffffffffffffffffffffffffffffffffffff021916908373ffffffffffffffffffffffffffffffffffffffff160217905550600b60009054906101000a900473ffffffffffffffffffffffffffffffffffffffff1673ffffffffffffffffffffffffffffffffffffffff16634e606c476040518163ffffffff1660e01b8152600401600060405180830381600087803b1580156200021a57600080fd5b505af11580156200022f573d6000803e3d6000fd5b50505050620002486000801b336200034660201b60201c565b6200027a7f97667070c54ef182b0f5858b034beac1b6f3089aa2d3188bb1e8929f4fa9b929336200034660201b60201c565b620009a2565b6000600660009054906101000a900473ffffffffffffffffffffffffffffffffffffffff16905081600660006101000a81548173ffffffffffffffffffffffffffffffffffffffff021916908373ffffffffffffffffffffffffffffffffffffffff1602179055508173ffffffffffffffffffffffffffffffffffffffff168173ffffffffffffffffffffffffffffffffffffffff167f8be0079c531659141344cd1fd0a4f28419497f9722a3daafe3b4186f6b6457e060405160405180910390a35050565b620003566200036d60201b60201c565b6200036882826200040f60201b60201c565b505050565b6200037d6200051360201b60201c565b73ffffffffffffffffffffffffffffffffffffffff16620003a36200051b60201b60201c565b73ffffffffffffffffffffffffffffffffffffffff16146200040d57620003cf6200051360201b60201c565b6040517f118cdaa700000000000000000000000000000000000000000000000000000000815260040162000404919062000956565b60405180910390fd5b565b60006200042383836200054560201b60201c565b620005085760016007600085815260200190815260200160002060000160008473ffffffffffffffffffffffffffffffffffffffff1673ffffffffffffffffffffffffffffffffffffffff16815260200190815260200160002060006101000a81548160ff021916908315150217905550620004a46200051360201b60201c565b73ffffffffffffffffffffffffffffffffffffffff168273ffffffffffffffffffffffffffffffffffffffff16847f2f8788117e7eff1d82e926ec794901d17c78024a50270940304540a733656f0d60405160405180910390a4600190506200050d565b600090505b92915050565b600033905090565b6000600660009054906101000a900473ffffffffffffffffffffffffffffffffffffffff16905090565b60006007600084815260200190815260200160002060000160008373ffffffffffffffffffffffffffffffffffffffff1673ffffffffffffffffffffffffffffffffffffffff16815260200190815260200160002060009054906101000a900460ff16905092915050565b600081519050919050565b7f4e487b7100000000000000000000000000000000000000000000000000000000600052604160045260246000fd5b7f4e487b7100000000000000000000000000000000000000000000000000000000600052602260045260246000fd5b600060028204905060018216806200063257607f821691505b602082108103620006485762000647620005ea565b5b50919050565b60008190508160005260206000209050919050565b60006020601f8301049050919050565b600082821b905092915050565b600060088302620006b27fffffffffffffffffffffffffffffffffffffffffffffffffffffffffffffffff8262000673565b620006be868362000673565b95508019841693508086168417925050509392505050565b6000819050919050565b6000819050919050565b60006200070b62000705620006ff84620006d6565b620006e0565b620006d6565b9050919050565b6000819050919050565b6200072783620006ea565b6200073f620007368262000712565b84845462000680565b825550505050565b600090565b6200075662000747565b620007638184846200071c565b505050565b5b818110156200078b576200077f6000826200074c565b60018101905062000769565b5050565b601f821115620007da57620007a4816200064e565b620007af8462000663565b81016020851015620007bf578190505b620007d7620007ce8562000663565b83018262000768565b50505b505050565b600082821c905092915050565b6000620007ff60001984600802620007df565b1980831691505092915050565b60006200081a8383620007ec565b9150826002028217905092915050565b6200083582620005b0565b67ffffffffffffffff811115620008515762000850620005bb565b5b6200085d825462000619565b6200086a8282856200078f565b600060209050601f831160018114620008a257600084156200088d578287015190505b6200089985826200080c565b86555062000909565b601f198416620008b2866200064e565b60005b82811015620008dc57848901518255600182019150602085019450602081019050620008b5565b86831015620008fc5784890151620008f8601f891682620007ec565b8355505b6001600288020188555050505b505050505050565b600073ffffffffffffffffffffffffffffffffffffffff82169050919050565b60006200093e8262000911565b9050919050565b620009508162000931565b82525050565b60006020820190506200096d600083018462000945565b92915050565b7f4e487b7100000000000000000000000000000000000000000000000000000000600052602160045260246000fd5b61408d80620009b26000396000f3fe6080604052600436106102255760003560e01c80637ad5943111610123578063b88d4fde116100ab578063e985e9c51161006f578063e985e9c5146107f2578063f2fde38b1461082f578063f5b541a614610858578063fa82ac7614610883578063fce14af6146108ac57610225565b8063b88d4fde1461070d578063c002d23d14610736578063c87b56dd14610761578063d547741f1461079e578063e4f2487a146107c757610225565b806395d89b41116100f257806395d89b411461063c578063992f9f4b146106675780639edfbec914610690578063a217fddf146106b9578063a22cb465146106e457610225565b80637ad59431146105825780637f649783146105ab5780638da5cb5b146105d457806391d14854146105ff57610225565b806336568abe116101b157806355f804b31161017557806355f804b31461049d578063578cbd1f146104c65780636352211e146104f157806370a082311461052e578063715018a61461056b57610225565b806336568abe146103ce5780633af32abf146103f75780633ccfd60b1461043457806342842e0e1461044b578063548db1741461047457610225565b80630a8b062b116101f85780630a8b062b146102f85780631249c58b1461033557806323b872dd1461033f578063248a9ca3146103685780632f2ff15d146103a557610225565b806301ffc9a71461022a57806306fdde0314610267578063081812fc14610292578063095ea7b3146102cf575b600080fd5b34801561023657600080fd5b50610251600480360381019061024c9190612df6565b6108d7565b60405161025e9190612e3e565b60405180910390f35b34801561027357600080fd5b5061027c6108e9565b6040516102899190612ee9565b60405180910390f35b34801561029e57600080fd5b506102b960048036038101906102b49190612f41565b61097b565b6040516102c69190612faf565b60405180910390f35b3480156102db57600080fd5b506102f660048036038101906102f19190612ff6565b610997565b005b34801561030457600080fd5b5061031f600480360381019061031a9190613036565b6109ad565b60405161032c9190612e3e565b60405180910390f35b61033d6109cd565b005b34801561034b57600080fd5b5061036660048036038101906103619190613063565b610ba7565b005b34801561037457600080fd5b5061038f600480360381019061038a91906130ec565b610ca9565b60405161039c9190613128565b60405180910390f35b3480156103b157600080fd5b506103cc60048036038101906103c79190613143565b610cc9565b005b3480156103da57600080fd5b506103f560048036038101906103f09190613143565b610ceb565b005b34801561040357600080fd5b5061041e60048036038101906104199190613036565b610d66565b60405161042b9190612e3e565b60405180910390f35b34801561044057600080fd5b50610449610d83565b005b34801561045757600080fd5b50610472600480360381019061046d9190613063565b610e24565b005b34801561048057600080fd5b5061049b600480360381019061049691906131e8565b610e44565b005b3480156104a957600080fd5b506104c460048036038101906104bf9190613365565b610f46565b005b3480156104d257600080fd5b506104db610fff565b6040516104e8919061346c565b60405180910390f35b3480156104fd57600080fd5b5061051860048036038101906105139190612f41565b6110de565b6040516105259190612faf565b60405180910390f35b34801561053a57600080fd5b5061055560048036038101906105509190613036565b6110f0565b604051610562919061349d565b60405180910390f35b34801561057757600080fd5b506105806111aa565b005b34801561058e57600080fd5b506105a960048036038101906105a491906134dd565b6111be565b005b3480156105b757600080fd5b506105d260048036038101906105cd91906131e8565b611291565b005b3480156105e057600080fd5b506105e9611393565b6040516105f69190612faf565b60405180910390f35b34801561060b57600080fd5b5061062660048036038101906106219190613143565b6113bd565b6040516106339190612e3e565b60405180910390f35b34801561064857600080fd5b50610651611428565b60405161065e9190612ee9565b60405180910390f35b34801561067357600080fd5b5061068e60048036038101906106899190613036565b6114ba565b005b34801561069c57600080fd5b506106b760048036038101906106b291906131e8565b611566565b005b3480156106c557600080fd5b506106ce6115db565b6040516106db9190613128565b60405180910390f35b3480156106f057600080fd5b5061070b60048036038101906107069190613536565b6115e2565b005b34801561071957600080fd5b50610734600480360381019061072f9190613617565b6115f8565b005b34801561074257600080fd5b5061074b611615565b604051610758919061349d565b60405180910390f35b34801561076d57600080fd5b5061078860048036038101906107839190612f41565b611620565b6040516107959190612ee9565b60405180910390f35b3480156107aa57600080fd5b506107c560048036038101906107c09190613143565b611689565b005b3480156107d357600080fd5b506107dc6116ab565b6040516107e99190613711565b60405180910390f35b3480156107fe57600080fd5b506108196004803603810190610814919061372c565b6116be565b6040516108269190612e3e565b60405180910390f35b34801561083b57600080fd5b5061085660048036038101906108519190613036565b611752565b005b34801561086457600080fd5b5061086d6117d8565b60405161087a9190613128565b60405180910390f35b34801561088f57600080fd5b506108aa60048036038101906108a59190613143565b6117fc565b005b3480156108b857600080fd5b506108c1611813565b6040516108ce91906137cb565b60405180910390f35b60006108e282611839565b9050919050565b6060600080546108f890613815565b80601f016020809104026020016040519081016040528092919081815260200182805461092490613815565b80156109715780601f1061094657610100808354040283529160200191610971565b820191906000526020600020905b81548152906001019060200180831161095457829003601f168201915b5050505050905090565b6000610986826118b3565b506109908261193b565b9050919050565b6109a982826109a4611978565b611980565b5050565b600d6020528060005260406000206000915054906101000a900460ff1681565b66038d7ea4c680003414610a16576040517f08c379a0000000000000000000000000000000000000000000000000000000008152600401610a0d90613892565b60405180910390fd5b60006001811115610a2a57610a2961369a565b5b600e60009054906101000a900460ff166001811115610a4c57610a4b61369a565b5b03610b7f57610a5a33610d66565b610a99576040517f08c379a0000000000000000000000000000000000000000000000000000000008152600401610a90906138fe565b60405180910390fd5b600d60003373ffffffffffffffffffffffffffffffffffffffff1673ffffffffffffffffffffffffffffffffffffffff16815260200190815260200160002060009054906101000a900460ff1615610b26576040517f08c379a0000000000000000000000000000000000000000000000000000000008152600401610b1d9061396a565b60405180910390fd5b6001600d60003373ffffffffffffffffffffffffffffffffffffffff1673ffffffffffffffffffffffffffffffffffffffff16815260200190815260200160002060006101000a81548160ff0219169083151502179055505b6001600a6000828254610b9291906139b9565b92505081905550610ba533600a54611992565b565b600073ffffffffffffffffffffffffffffffffffffffff168273ffffffffffffffffffffffffffffffffffffffff1603610c195760006040517f64a0ae92000000000000000000000000000000000000000000000000000000008152600401610c109190612faf565b60405180910390fd5b6000610c2d8383610c28611978565b611a8b565b90508373ffffffffffffffffffffffffffffffffffffffff168173ffffffffffffffffffffffffffffffffffffffff1614610ca3578382826040517f64283d7b000000000000000000000000000000000000000000000000000000008152600401610c9a939291906139ed565b60405180910390fd5b50505050565b600060076000838152602001908152602001600020600101549050919050565b610cd282610ca9565b610cdb81611ca5565b610ce58383611cb9565b50505050565b610cf3611978565b73ffffffffffffffffffffffffffffffffffffffff168173ffffffffffffffffffffffffffffffffffffffff1614610d57576040517f6697b23200000000000000000000000000000000000000000000000000000000815260040160405180910390fd5b610d618282611dab565b505050565b6000610d7c826008611e9e90919063ffffffff16565b9050919050565b610d8b611ece565b600047905060008111610dd3576040517f08c379a0000000000000000000000000000000000000000000000000000000008152600401610dca90613a70565b60405180910390fd5b610ddb611393565b73ffffffffffffffffffffffffffffffffffffffff166108fc829081150290604051600060405180830381858888f19350505050158015610e20573d6000803e3d6000fd5b5050565b610e3f838383604051806020016040528060008152506115f8565b505050565b610e6e7f97667070c54ef182b0f5858b034beac1b6f3089aa2d3188bb1e8929f4fa9b929336113bd565b80610eab57503373ffffffffffffffffffffffffffffffffffffffff16610e93611393565b73ffffffffffffffffffffffffffffffffffffffff16145b610eea576040517f08c379a0000000000000000000000000000000000000000000000000000000008152600401610ee190613b02565b60405180910390fd5b60005b82829050811015610f4157610f33838383818110610f0e57610f0d613b22565b5b9050602002016020810190610f239190613036565b6008611f5590919063ffffffff16565b508080600101915050610eed565b505050565b610f707f97667070c54ef182b0f5858b034beac1b6f3089aa2d3188bb1e8929f4fa9b929336113bd565b80610fad57503373ffffffffffffffffffffffffffffffffffffffff16610f95611393565b73ffffffffffffffffffffffffffffffffffffffff16145b610fec576040517f08c379a0000000000000000000000000000000000000000000000000000000008152600401610fe390613b02565b60405180910390fd5b80600c9081610ffb9190613cf3565b5050565b6060600061100d6008611f85565b905060008167ffffffffffffffff81111561102b5761102a61323a565b5b6040519080825280602002602001820160405280156110595781602001602082028036833780820191505090505b50905060005b828110156110d55761107b816008611f9a90919063ffffffff16565b82828151811061108e5761108d613b22565b5b602002602001019073ffffffffffffffffffffffffffffffffffffffff16908173ffffffffffffffffffffffffffffffffffffffff1681525050808060010191505061105f565b50809250505090565b60006110e9826118b3565b9050919050565b60008073ffffffffffffffffffffffffffffffffffffffff168273ffffffffffffffffffffffffffffffffffffffff16036111635760006040517f89c62b6400000000000000000000000000000000000000000000000000000000815260040161115a9190612faf565b60405180910390fd5b600360008373ffffffffffffffffffffffffffffffffffffffff1673ffffffffffffffffffffffffffffffffffffffff168152602001908152602001600020549050919050565b6111b2611ece565b6111bc6000611fb4565b565b6111e87f97667070c54ef182b0f5858b034beac1b6f3089aa2d3188bb1e8929f4fa9b929336113bd565b8061122557503373ffffffffffffffffffffffffffffffffffffffff1661120d611393565b73ffffffffffffffffffffffffffffffffffffffff16145b611264576040517f08c379a000000000000000000000000000000000000000000000000000000000815260040161125b90613b02565b60405180910390fd5b80600e60006101000a81548160ff021916908360018111156112895761128861369a565b5b021790555050565b6112bb7f97667070c54ef182b0f5858b034beac1b6f3089aa2d3188bb1e8929f4fa9b929336113bd565b806112f857503373ffffffffffffffffffffffffffffffffffffffff166112e0611393565b73ffffffffffffffffffffffffffffffffffffffff16145b611337576040517f08c379a000000000000000000000000000000000000000000000000000000000815260040161132e90613b02565b60405180910390fd5b60005b8282905081101561138e5761138083838381811061135b5761135a613b22565b5b90506020020160208101906113709190613036565b600861207a90919063ffffffff16565b50808060010191505061133a565b505050565b6000600660009054906101000a900473ffffffffffffffffffffffffffffffffffffffff16905090565b60006007600084815260200190815260200160002060000160008373ffffffffffffffffffffffffffffffffffffffff1673ffffffffffffffffffffffffffffffffffffffff16815260200190815260200160002060009054906101000a900460ff16905092915050565b60606001805461143790613815565b80601f016020809104026020016040519081016040528092919081815260200182805461146390613815565b80156114b05780601f10611485576101008083540402835291602001916114b0565b820191906000526020600020905b81548152906001019060200180831161149357829003601f168201915b5050505050905090565b6114c2611ece565b600b60009054906101000a900473ffffffffffffffffffffffffffffffffffffffff1673ffffffffffffffffffffffffffffffffffffffff1663954fa5ee30836040518363ffffffff1660e01b815260040161151f929190613dc5565b6020604051808303816000875af115801561153e573d6000803e3d6000fd5b505050506040513d601f19601f820116820180604052508101906115629190613e03565b5050565b61156e611ece565b60005b828290508110156115d6576001600a600082825461158f91906139b9565b925050819055506115c98383838181106115ac576115ab613b22565b5b90506020020160208101906115c19190613036565b600a54611992565b8080600101915050611571565b505050565b6000801b81565b6115f46115ed611978565b83836120aa565b5050565b611603848484610ba7565b61160f84848484612219565b50505050565b66038d7ea4c6800081565b606061162b826118b3565b5060006116366123d0565b905060008151116116565760405180602001604052806000815250611681565b8061166084612462565b604051602001611671929190613e6c565b6040516020818303038152906040525b915050919050565b61169282610ca9565b61169b81611ca5565b6116a58383611dab565b50505050565b600e60009054906101000a900460ff1681565b6000600560008473ffffffffffffffffffffffffffffffffffffffff1673ffffffffffffffffffffffffffffffffffffffff16815260200190815260200160002060008373ffffffffffffffffffffffffffffffffffffffff1673ffffffffffffffffffffffffffffffffffffffff16815260200190815260200160002060009054906101000a900460ff16905092915050565b61175a611ece565b600073ffffffffffffffffffffffffffffffffffffffff168173ffffffffffffffffffffffffffffffffffffffff16036117cc5760006040517f1e4fbdf70000000000000000000000000000000000000000000000000000000081526004016117c39190612faf565b60405180910390fd5b6117d581611fb4565b50565b7f97667070c54ef182b0f5858b034beac1b6f3089aa2d3188bb1e8929f4fa9b92981565b611804611ece565b61180e8282611cb9565b505050565b600b60009054906101000a900473ffffffffffffffffffffffffffffffffffffffff1681565b60007f7965db0b000000000000000000000000000000000000000000000000000000007bffffffffffffffffffffffffffffffffffffffffffffffffffffffff1916827bffffffffffffffffffffffffffffffffffffffffffffffffffffffff191614806118ac57506118ab82612530565b5b9050919050565b6000806118bf83612612565b9050600073ffffffffffffffffffffffffffffffffffffffff168173ffffffffffffffffffffffffffffffffffffffff160361193257826040517f7e273289000000000000000000000000000000000000000000000000000000008152600401611929919061349d565b60405180910390fd5b80915050919050565b60006004600083815260200190815260200160002060009054906101000a900473ffffffffffffffffffffffffffffffffffffffff169050919050565b600033905090565b61198d838383600161264f565b505050565b600073ffffffffffffffffffffffffffffffffffffffff168273ffffffffffffffffffffffffffffffffffffffff1603611a045760006040517f64a0ae920000000000000000000000000000000000000000000000000000000081526004016119fb9190612faf565b60405180910390fd5b6000611a1283836000611a8b565b9050600073ffffffffffffffffffffffffffffffffffffffff168173ffffffffffffffffffffffffffffffffffffffff1614611a865760006040517f73c6ac6e000000000000000000000000000000000000000000000000000000008152600401611a7d9190612faf565b60405180910390fd5b505050565b600080611a9784612612565b9050600073ffffffffffffffffffffffffffffffffffffffff168373ffffffffffffffffffffffffffffffffffffffff1614611ad957611ad8818486612814565b5b600073ffffffffffffffffffffffffffffffffffffffff168173ffffffffffffffffffffffffffffffffffffffff1614611b6a57611b1b60008560008061264f565b6001600360008373ffffffffffffffffffffffffffffffffffffffff1673ffffffffffffffffffffffffffffffffffffffff168152602001908152602001600020600082825403925050819055505b600073ffffffffffffffffffffffffffffffffffffffff168573ffffffffffffffffffffffffffffffffffffffff1614611bed576001600360008773ffffffffffffffffffffffffffffffffffffffff1673ffffffffffffffffffffffffffffffffffffffff168152602001908152602001600020600082825401925050819055505b846002600086815260200190815260200160002060006101000a81548173ffffffffffffffffffffffffffffffffffffffff021916908373ffffffffffffffffffffffffffffffffffffffff160217905550838573ffffffffffffffffffffffffffffffffffffffff168273ffffffffffffffffffffffffffffffffffffffff167fddf252ad1be2c89b69c2b068fc378daa952ba7f163c4a11628f55a4df523b3ef60405160405180910390a4809150509392505050565b611cb681611cb1611978565b6128d8565b50565b6000611cc583836113bd565b611da05760016007600085815260200190815260200160002060000160008473ffffffffffffffffffffffffffffffffffffffff1673ffffffffffffffffffffffffffffffffffffffff16815260200190815260200160002060006101000a81548160ff021916908315150217905550611d3d611978565b73ffffffffffffffffffffffffffffffffffffffff168273ffffffffffffffffffffffffffffffffffffffff16847f2f8788117e7eff1d82e926ec794901d17c78024a50270940304540a733656f0d60405160405180910390a460019050611da5565b600090505b92915050565b6000611db783836113bd565b15611e935760006007600085815260200190815260200160002060000160008473ffffffffffffffffffffffffffffffffffffffff1673ffffffffffffffffffffffffffffffffffffffff16815260200190815260200160002060006101000a81548160ff021916908315150217905550611e30611978565b73ffffffffffffffffffffffffffffffffffffffff168273ffffffffffffffffffffffffffffffffffffffff16847ff6391f5c32d9c69d2a47ea670b442974b53935d1edc7fd64eb21e047a839171b60405160405180910390a460019050611e98565b600090505b92915050565b6000611ec6836000018373ffffffffffffffffffffffffffffffffffffffff1660001b612929565b905092915050565b611ed6611978565b73ffffffffffffffffffffffffffffffffffffffff16611ef4611393565b73ffffffffffffffffffffffffffffffffffffffff1614611f5357611f17611978565b6040517f118cdaa7000000000000000000000000000000000000000000000000000000008152600401611f4a9190612faf565b60405180910390fd5b565b6000611f7d836000018373ffffffffffffffffffffffffffffffffffffffff1660001b61294c565b905092915050565b6000611f9382600001612a60565b9050919050565b6000611fa98360000183612a71565b60001c905092915050565b6000600660009054906101000a900473ffffffffffffffffffffffffffffffffffffffff16905081600660006101000a81548173ffffffffffffffffffffffffffffffffffffffff021916908373ffffffffffffffffffffffffffffffffffffffff1602179055508173ffffffffffffffffffffffffffffffffffffffff168173ffffffffffffffffffffffffffffffffffffffff167f8be0079c531659141344cd1fd0a4f28419497f9722a3daafe3b4186f6b6457e060405160405180910390a35050565b60006120a2836000018373ffffffffffffffffffffffffffffffffffffffff1660001b612a9c565b905092915050565b600073ffffffffffffffffffffffffffffffffffffffff168273ffffffffffffffffffffffffffffffffffffffff160361211b57816040517f5b08ba180000000000000000000000000000000000000000000000000000000081526004016121129190612faf565b60405180910390fd5b80600560008573ffffffffffffffffffffffffffffffffffffffff1673ffffffffffffffffffffffffffffffffffffffff16815260200190815260200160002060008473ffffffffffffffffffffffffffffffffffffffff1673ffffffffffffffffffffffffffffffffffffffff16815260200190815260200160002060006101000a81548160ff0219169083151502179055508173ffffffffffffffffffffffffffffffffffffffff168373ffffffffffffffffffffffffffffffffffffffff167f17307eab39ab6107e8899845ad3d59bd9653f200f220920489ca2b5937696c318360405161220c9190612e3e565b60405180910390a3505050565b60008373ffffffffffffffffffffffffffffffffffffffff163b11156123ca578273ffffffffffffffffffffffffffffffffffffffff1663150b7a0261225d611978565b8685856040518563ffffffff1660e01b815260040161227f9493929190613ee5565b6020604051808303816000875af19250505080156122bb57506040513d601f19601f820116820180604052508101906122b89190613f46565b60015b61233f573d80600081146122eb576040519150601f19603f3d011682016040523d82523d6000602084013e6122f0565b606091505b50600081510361233757836040517f64a0ae9200000000000000000000000000000000000000000000000000000000815260040161232e9190612faf565b60405180910390fd5b805181602001fd5b63150b7a0260e01b7bffffffffffffffffffffffffffffffffffffffffffffffffffffffff1916817bffffffffffffffffffffffffffffffffffffffffffffffffffffffff1916146123c857836040517f64a0ae920000000000000000000000000000000000000000000000000000000081526004016123bf9190612faf565b60405180910390fd5b505b50505050565b6060600c80546123df90613815565b80601f016020809104026020016040519081016040528092919081815260200182805461240b90613815565b80156124585780601f1061242d57610100808354040283529160200191612458565b820191906000526020600020905b81548152906001019060200180831161243b57829003601f168201915b5050505050905090565b60606000600161247184612b0c565b01905060008167ffffffffffffffff8111156124905761248f61323a565b5b6040519080825280601f01601f1916602001820160405280156124c25781602001600182028036833780820191505090505b509050600082602001820190505b600115612525578080600190039150507f3031323334353637383961626364656600000000000000000000000000000000600a86061a8153600a858161251957612518613f73565b5b049450600085036124d0575b819350505050919050565b60007f80ac58cd000000000000000000000000000000000000000000000000000000007bffffffffffffffffffffffffffffffffffffffffffffffffffffffff1916827bffffffffffffffffffffffffffffffffffffffffffffffffffffffff191614806125fb57507f5b5e139f000000000000000000000000000000000000000000000000000000007bffffffffffffffffffffffffffffffffffffffffffffffffffffffff1916827bffffffffffffffffffffffffffffffffffffffffffffffffffffffff1916145b8061260b575061260a82612c5f565b5b9050919050565b60006002600083815260200190815260200160002060009054906101000a900473ffffffffffffffffffffffffffffffffffffffff169050919050565b80806126885750600073ffffffffffffffffffffffffffffffffffffffff168273ffffffffffffffffffffffffffffffffffffffff1614155b156127bc576000612698846118b3565b9050600073ffffffffffffffffffffffffffffffffffffffff168373ffffffffffffffffffffffffffffffffffffffff161415801561270357508273ffffffffffffffffffffffffffffffffffffffff168173ffffffffffffffffffffffffffffffffffffffff1614155b8015612716575061271481846116be565b155b1561275857826040517fa9fbf51f00000000000000000000000000000000000000000000000000000000815260040161274f9190612faf565b60405180910390fd5b81156127ba57838573ffffffffffffffffffffffffffffffffffffffff168273ffffffffffffffffffffffffffffffffffffffff167f8c5be1e5ebec7d5bd14f71427d1e84f3dd0314c0f7b2291e5b200ac8c7c3b92560405160405180910390a45b505b836004600085815260200190815260200160002060006101000a81548173ffffffffffffffffffffffffffffffffffffffff021916908373ffffffffffffffffffffffffffffffffffffffff16021790555050505050565b61281f838383612cc9565b6128d357600073ffffffffffffffffffffffffffffffffffffffff168373ffffffffffffffffffffffffffffffffffffffff160361289457806040517f7e27328900000000000000000000000000000000000000000000000000000000815260040161288b919061349d565b60405180910390fd5b81816040517f177e802f0000000000000000000000000000000000000000000000000000000081526004016128ca929190613fa2565b60405180910390fd5b505050565b6128e282826113bd565b6129255780826040517fe2517d3f00000000000000000000000000000000000000000000000000000000815260040161291c929190613fcb565b60405180910390fd5b5050565b600080836001016000848152602001908152602001600020541415905092915050565b60008083600101600084815260200190815260200160002054905060008114612a5457600060018261297e9190613ff4565b90506000600186600001805490506129969190613ff4565b9050808214612a055760008660000182815481106129b7576129b6613b22565b5b90600052602060002001549050808760000184815481106129db576129da613b22565b5b90600052602060002001819055508387600101600083815260200190815260200160002081905550505b85600001805480612a1957612a18614028565b5b600190038181906000526020600020016000905590558560010160008681526020019081526020016000206000905560019350505050612a5a565b60009150505b92915050565b600081600001805490509050919050565b6000826000018281548110612a8957612a88613b22565b5b9060005260206000200154905092915050565b6000612aa88383612929565b612b01578260000182908060018154018082558091505060019003906000526020600020016000909190919091505582600001805490508360010160008481526020019081526020016000208190555060019050612b06565b600090505b92915050565b600080600090507a184f03e93ff9f4daa797ed6e38ed64bf6a1f0100000000000000008310612b6a577a184f03e93ff9f4daa797ed6e38ed64bf6a1f0100000000000000008381612b6057612b5f613f73565b5b0492506040810190505b6d04ee2d6d415b85acef81000000008310612ba7576d04ee2d6d415b85acef81000000008381612b9d57612b9c613f73565b5b0492506020810190505b662386f26fc100008310612bd657662386f26fc100008381612bcc57612bcb613f73565b5b0492506010810190505b6305f5e1008310612bff576305f5e1008381612bf557612bf4613f73565b5b0492506008810190505b6127108310612c24576127108381612c1a57612c19613f73565b5b0492506004810190505b60648310612c475760648381612c3d57612c3c613f73565b5b0492506002810190505b600a8310612c56576001810190505b80915050919050565b60007f01ffc9a7000000000000000000000000000000000000000000000000000000007bffffffffffffffffffffffffffffffffffffffffffffffffffffffff1916827bffffffffffffffffffffffffffffffffffffffffffffffffffffffff1916149050919050565b60008073ffffffffffffffffffffffffffffffffffffffff168373ffffffffffffffffffffffffffffffffffffffff1614158015612d8157508273ffffffffffffffffffffffffffffffffffffffff168473ffffffffffffffffffffffffffffffffffffffff161480612d425750612d4184846116be565b5b80612d8057508273ffffffffffffffffffffffffffffffffffffffff16612d688361193b565b73ffffffffffffffffffffffffffffffffffffffff16145b5b90509392505050565b6000604051905090565b600080fd5b600080fd5b60007fffffffff0000000000000000000000000000000000000000000000000000000082169050919050565b612dd381612d9e565b8114612dde57600080fd5b50565b600081359050612df081612dca565b92915050565b600060208284031215612e0c57612e0b612d94565b5b6000612e1a84828501612de1565b91505092915050565b60008115159050919050565b612e3881612e23565b82525050565b6000602082019050612e536000830184612e2f565b92915050565b600081519050919050565b600082825260208201905092915050565b60005b83811015612e93578082015181840152602081019050612e78565b60008484015250505050565b6000601f19601f8301169050919050565b6000612ebb82612e59565b612ec58185612e64565b9350612ed5818560208601612e75565b612ede81612e9f565b840191505092915050565b60006020820190508181036000830152612f038184612eb0565b905092915050565b6000819050919050565b612f1e81612f0b565b8114612f2957600080fd5b50565b600081359050612f3b81612f15565b92915050565b600060208284031215612f5757612f56612d94565b5b6000612f6584828501612f2c565b91505092915050565b600073ffffffffffffffffffffffffffffffffffffffff82169050919050565b6000612f9982612f6e565b9050919050565b612fa981612f8e565b82525050565b6000602082019050612fc46000830184612fa0565b92915050565b612fd381612f8e565b8114612fde57600080fd5b50565b600081359050612ff081612fca565b92915050565b6000806040838503121561300d5761300c612d94565b5b600061301b85828601612fe1565b925050602061302c85828601612f2c565b9150509250929050565b60006020828403121561304c5761304b612d94565b5b600061305a84828501612fe1565b91505092915050565b60008060006060848603121561307c5761307b612d94565b5b600061308a86828701612fe1565b935050602061309b86828701612fe1565b92505060406130ac86828701612f2c565b9150509250925092565b6000819050919050565b6130c9816130b6565b81146130d457600080fd5b50565b6000813590506130e6816130c0565b92915050565b60006020828403121561310257613101612d94565b5b6000613110848285016130d7565b91505092915050565b613122816130b6565b82525050565b600060208201905061313d6000830184613119565b92915050565b6000806040838503121561315a57613159612d94565b5b6000613168858286016130d7565b925050602061317985828601612fe1565b9150509250929050565b600080fd5b600080fd5b600080fd5b60008083601f8401126131a8576131a7613183565b5b8235905067ffffffffffffffff8111156131c5576131c4613188565b5b6020830191508360208202830111156131e1576131e061318d565b5b9250929050565b600080602083850312156131ff576131fe612d94565b5b600083013567ffffffffffffffff81111561321d5761321c612d99565b5b61322985828601613192565b92509250509250929050565b600080fd5b7f4e487b7100000000000000000000000000000000000000000000000000000000600052604160045260246000fd5b61327282612e9f565b810181811067ffffffffffffffff821117156132915761329061323a565b5b80604052505050565b60006132a4612d8a565b90506132b08282613269565b919050565b600067ffffffffffffffff8211156132d0576132cf61323a565b5b6132d982612e9f565b9050602081019050919050565b82818337600083830152505050565b6000613308613303846132b5565b61329a565b90508281526020810184848401111561332457613323613235565b5b61332f8482856132e6565b509392505050565b600082601f83011261334c5761334b613183565b5b813561335c8482602086016132f5565b91505092915050565b60006020828403121561337b5761337a612d94565b5b600082013567ffffffffffffffff81111561339957613398612d99565b5b6133a584828501613337565b91505092915050565b600081519050919050565b600082825260208201905092915050565b6000819050602082019050919050565b6133e381612f8e565b82525050565b60006133f583836133da565b60208301905092915050565b6000602082019050919050565b6000613419826133ae565b61342381856133b9565b935061342e836133ca565b8060005b8381101561345f57815161344688826133e9565b975061345183613401565b925050600181019050613432565b5085935050505092915050565b60006020820190508181036000830152613486818461340e565b905092915050565b61349781612f0b565b82525050565b60006020820190506134b2600083018461348e565b92915050565b600281106134c557600080fd5b50565b6000813590506134d7816134b8565b92915050565b6000602082840312156134f3576134f2612d94565b5b6000613501848285016134c8565b91505092915050565b61351381612e23565b811461351e57600080fd5b50565b6000813590506135308161350a565b92915050565b6000806040838503121561354d5761354c612d94565b5b600061355b85828601612fe1565b925050602061356c85828601613521565b9150509250929050565b600067ffffffffffffffff8211156135915761359061323a565b5b61359a82612e9f565b9050602081019050919050565b60006135ba6135b584613576565b61329a565b9050828152602081018484840111156135d6576135d5613235565b5b6135e18482856132e6565b509392505050565b600082601f8301126135fe576135fd613183565b5b813561360e8482602086016135a7565b91505092915050565b6000806000806080858703121561363157613630612d94565b5b600061363f87828801612fe1565b945050602061365087828801612fe1565b935050604061366187828801612f2c565b925050606085013567ffffffffffffffff81111561368257613681612d99565b5b61368e878288016135e9565b91505092959194509250565b7f4e487b7100000000000000000000000000000000000000000000000000000000600052602160045260246000fd5b600281106136da576136d961369a565b5b50565b60008190506136eb826136c9565b919050565b60006136fb826136dd565b9050919050565b61370b816136f0565b82525050565b60006020820190506137266000830184613702565b92915050565b6000806040838503121561374357613742612d94565b5b600061375185828601612fe1565b925050602061376285828601612fe1565b9150509250929050565b6000819050919050565b600061379161378c61378784612f6e565b61376c565b612f6e565b9050919050565b60006137a382613776565b9050919050565b60006137b582613798565b9050919050565b6137c5816137aa565b82525050565b60006020820190506137e060008301846137bc565b92915050565b7f4e487b7100000000000000000000000000000000000000000000000000000000600052602260045260246000fd5b6000600282049050600182168061382d57607f821691505b6020821081036138405761383f6137e6565b5b50919050565b7f496e636f72726563742076616c75652073656e74000000000000000000000000600082015250565b600061387c601483612e64565b915061388782613846565b602082019050919050565b600060208201905081810360008301526138ab8161386f565b9050919050565b7f4e6f7420696e2077686974656c69737400000000000000000000000000000000600082015250565b60006138e8601083612e64565b91506138f3826138b2565b602082019050919050565b60006020820190508181036000830152613917816138db565b9050919050565b7f416c7265616479206d696e74656420696e207468697320706861736500000000600082015250565b6000613954601c83612e64565b915061395f8261391e565b602082019050919050565b6000602082019050818103600083015261398381613947565b9050919050565b7f4e487b7100000000000000000000000000000000000000000000000000000000600052601160045260246000fd5b60006139c482612f0b565b91506139cf83612f0b565b92508282019050808211156139e7576139e661398a565b5b92915050565b6000606082019050613a026000830186612fa0565b613a0f602083018561348e565b613a1c6040830184612fa0565b949350505050565b7f4e6f2066756e647320617661696c61626c650000000000000000000000000000600082015250565b6000613a5a601283612e64565b9150613a6582613a24565b602082019050919050565b60006020820190508181036000830152613a8981613a4d565b9050919050565b7f4d7573742068617665206f70657261746f7220726f6c65206f72206265206f7760008201527f6e65720000000000000000000000000000000000000000000000000000000000602082015250565b6000613aec602383612e64565b9150613af782613a90565b604082019050919050565b60006020820190508181036000830152613b1b81613adf565b9050919050565b7f4e487b7100000000000000000000000000000000000000000000000000000000600052603260045260246000fd5b60008190508160005260206000209050919050565b60006020601f8301049050919050565b600082821b905092915050565b600060088302613bb37fffffffffffffffffffffffffffffffffffffffffffffffffffffffffffffffff82613b76565b613bbd8683613b76565b95508019841693508086168417925050509392505050565b6000613bf0613beb613be684612f0b565b61376c565b612f0b565b9050919050565b6000819050919050565b613c0a83613bd5565b613c1e613c1682613bf7565b848454613b83565b825550505050565b600090565b613c33613c26565b613c3e818484613c01565b505050565b5b81811015613c6257613c57600082613c2b565b600181019050613c44565b5050565b601f821115613ca757613c7881613b51565b613c8184613b66565b81016020851015613c90578190505b613ca4613c9c85613b66565b830182613c43565b50505b505050565b600082821c905092915050565b6000613cca60001984600802613cac565b1980831691505092915050565b6000613ce38383613cb9565b9150826002028217905092915050565b613cfc82612e59565b67ffffffffffffffff811115613d1557613d1461323a565b5b613d1f8254613815565b613d2a828285613c66565b600060209050601f831160018114613d5d5760008415613d4b578287015190505b613d558582613cd7565b865550613dbd565b601f198416613d6b86613b51565b60005b82811015613d9357848901518255600182019150602085019450602081019050613d6e565b86831015613db05784890151613dac601f891682613cb9565b8355505b6001600288020188555050505b505050505050565b6000604082019050613dda6000830185612fa0565b613de76020830184612fa0565b9392505050565b600081519050613dfd81612f15565b92915050565b600060208284031215613e1957613e18612d94565b5b6000613e2784828501613dee565b91505092915050565b600081905092915050565b6000613e4682612e59565b613e508185613e30565b9350613e60818560208601612e75565b80840191505092915050565b6000613e788285613e3b565b9150613e848284613e3b565b91508190509392505050565b600081519050919050565b600082825260208201905092915050565b6000613eb782613e90565b613ec18185613e9b565b9350613ed1818560208601612e75565b613eda81612e9f565b840191505092915050565b6000608082019050613efa6000830187612fa0565b613f076020830186612fa0565b613f14604083018561348e565b8181036060830152613f268184613eac565b905095945050505050565b600081519050613f4081612dca565b92915050565b600060208284031215613f5c57613f5b612d94565b5b6000613f6a84828501613f31565b91505092915050565b7f4e487b7100000000000000000000000000000000000000000000000000000000600052601260045260246000fd5b6000604082019050613fb76000830185612fa0565b613fc4602083018461348e565b9392505050565b6000604082019050613fe06000830185612fa0565b613fed6020830184613119565b9392505050565b6000613fff82612f0b565b915061400a83612f0b565b92508282039050818111156140225761402161398a565b5b92915050565b7f4e487b7100000000000000000000000000000000000000000000000000000000600052603160045260246000fdfea2646970667358221220a8e063909bc07b007be1af60902461fd87e4de6bf107bfc0a66dfdd54607cebb64736f6c63430008180033",
  "linkReferences": {},
  "deployedLinkReferences": {}
}