{
  "_format": "hh-sol-artifact-1",
  "contractName": "Lock",
  "sourceName": "contracts/Lock.sol",
  "abi": [
    {
      "inputs": [],
      "stateMutability": "nonpayable",
      "type": "constructor"
    },
    {
      "inputs": [
        {
          "internalType": "address",
          "name": "sender",
          "type": "address"
        },
        {
          "internalType": "uint256",
          "name": "tokenId",
          "type": "uint256"
        },
        {
          "internalType": "address",
          "name": "owner",
          "type": "address"
        }
      ],
      "name": "ERC721IncorrectOwner",
      "type": "error"
    },
    {
      "inputs": [
        {
          "internalType": "address",
          "name": "operator",
          "type": "address"
        },
        {
          "internalType": "uint256",
          "name": "tokenId",
          "type": "uint256"
        }
      ],
      "name": "ERC721InsufficientApproval",
      "type": "error"
    },
    {
      "inputs": [
        {
          "internalType": "address",
          "name": "approver",
          "type": "address"
        }
      ],
      "name": "ERC721InvalidApprover",
      "type": "error"
    },
    {
      "inputs": [
        {
          "internalType": "address",
          "name": "operator",
          "type": "address"
        }
      ],
      "name": "ERC721InvalidOperator",
      "type": "error"
    },
    {
      "inputs": [
        {
          "internalType": "address",
          "name": "owner",
          "type": "address"
        }
      ],
      "name": "ERC721InvalidOwner",
      "type": "error"
    },
    {
      "inputs": [
        {
          "internalType": "address",
          "name": "receiver",
          "type": "address"
        }
      ],
      "name": "ERC721InvalidReceiver",
      "type": "error"
    },
    {
      "inputs": [
        {
          "internalType": "address",
          "name": "sender",
          "type": "address"
        }
      ],
      "name": "ERC721InvalidSender",
      "type": "error"
    },
    {
      "inputs": [
        {
          "internalType": "uint256",
          "name": "tokenId",
          "type": "uint256"
        }
      ],
      "name": "ERC721NonexistentToken",
      "type": "error"
    },
    {
      "inputs": [
        {
          "internalType": "address",
          "name": "owner",
          "type": "address"
        }
      ],
      "name": "OwnableInvalidOwner",
      "type": "error"
    },
    {
      "inputs": [
        {
          "internalType": "address",
          "name": "account",
          "type": "address"
        }
      ],
      "name": "OwnableUnauthorizedAccount",
      "type": "error"
    },
    {
      "anonymous": false,
      "inputs": [
        {
          "indexed": true,
          "internalType": "address",
          "name": "owner",
          "type": "address"
        },
        {
          "indexed": true,
          "internalType": "address",
          "name": "approved",
          "type": "address"
        },
        {
          "indexed": true,
          "internalType": "uint256",
          "name": "tokenId",
          "type": "uint256"
        }
      ],
      "name": "Approval",
      "type": "event"
    },
    {
      "anonymous": false,
      "inputs": [
        {
          "indexed": true,
          "internalType": "address",
          "name": "owner",
          "type": "address"
        },
        {
          "indexed": true,
          "internalType": "address",
          "name": "operator",
          "type": "address"
        },
        {
          "indexed": false,
          "internalType": "bool",
          "name": "approved",
          "type": "bool"
        }
      ],
      "name": "ApprovalForAll",
      "type": "event"
    },
    {
      "anonymous": false,
      "inputs": [
        {
          "indexed": true,
          "internalType": "address",
          "name": "previousOwner",
          "type": "address"
        },
        {
          "indexed": true,
          "internalType": "address",
          "name": "newOwner",
          "type": "address"
        }
      ],
      "name": "OwnershipTransferred",
      "type": "event"
    },
    {
      "anonymous": false,
      "inputs": [
        {
          "indexed": true,
          "internalType": "address",
          "name": "from",
          "type": "address"
        },
        {
          "indexed": true,
          "internalType": "address",
          "name": "to",
          "type": "address"
        },
        {
          "indexed": true,
          "internalType": "uint256",
          "name": "tokenId",
          "type": "uint256"
        }
      ],
      "name": "Transfer",
      "type": "event"
    },
    {
      "inputs": [
        {
          "internalType": "address[]",
          "name": "addresses",
          "type": "address[]"
        }
      ],
      "name": "addToWhitelist",
      "outputs": [],
      "stateMutability": "nonpayable",
      "type": "function"
    },
    {
      "inputs": [
        {
          "internalType": "address",
          "name": "to",
          "type": "address"
        }
      ],
      "name": "airdrop",
      "outputs": [],
      "stateMutability": "nonpayable",
      "type": "function"
    },
    {
      "inputs": [
        {
          "internalType": "address",
          "name": "to",
          "type": "address"
        },
        {
          "internalType": "uint256",
          "name": "tokenId",
          "type": "uint256"
        }
      ],
      "name": "approve",
      "outputs": [],
      "stateMutability": "nonpayable",
      "type": "function"
    },
    {
      "inputs": [
        {
          "internalType": "address",
          "name": "owner",
          "type": "address"
        }
      ],
      "name": "balanceOf",
      "outputs": [
        {
          "internalType": "uint256",
          "name": "",
          "type": "uint256"
        }
      ],
      "stateMutability": "view",
      "type": "function"
    },
    {
      "inputs": [
        {
          "internalType": "address[]",
          "name": "addresses",
          "type": "address[]"
        }
      ],
      "name": "batchAirdrop",
      "outputs": [],
      "stateMutability": "nonpayable",
      "type": "function"
    },
    {
      "inputs": [],
      "name": "blastContract",
      "outputs": [
        {
          "internalType": "contract IBlast",
          "name": "",
          "type": "address"
        }
      ],
      "stateMutability": "view",
      "type": "function"
    },
    {
      "inputs": [
        {
          "internalType": "address",
          "name": "recipient",
          "type": "address"
        }
      ],
      "name": "claimGasFees",
      "outputs": [],
      "stateMutability": "nonpayable",
      "type": "function"
    },
    {
      "inputs": [
        {
          "internalType": "uint256",
          "name": "tokenId",
          "type": "uint256"
        }
      ],
      "name": "getApproved",
      "outputs": [
        {
          "internalType": "address",
          "name": "",
          "type": "address"
        }
      ],
      "stateMutability": "view",
      "type": "function"
    },
    {
      "inputs": [
        {
          "internalType": "address",
          "name": "owner",
          "type": "address"
        },
        {
          "internalType": "address",
          "name": "operator",
          "type": "address"
        }
      ],
      "name": "isApprovedForAll",
      "outputs": [
        {
          "internalType": "bool",
          "name": "",
          "type": "bool"
        }
      ],
      "stateMutability": "view",
      "type": "function"
    },
    {
      "inputs": [
        {
          "internalType": "address",
          "name": "addr",
          "type": "address"
        }
      ],
      "name": "isWhitelisted",
      "outputs": [
        {
          "internalType": "bool",
          "name": "",
          "type": "bool"
        }
      ],
      "stateMutability": "view",
      "type": "function"
    },
    {
      "inputs": [],
      "name": "name",
      "outputs": [
        {
          "internalType": "string",
          "name": "",
          "type": "string"
        }
      ],
      "stateMutability": "view",
      "type": "function"
    },
    {
      "inputs": [],
      "name": "owner",
      "outputs": [
        {
          "internalType": "address",
          "name": "",
          "type": "address"
        }
      ],
      "stateMutability": "view",
      "type": "function"
    },
    {
      "inputs": [
        {
          "internalType": "uint256",
          "name": "tokenId",
          "type": "uint256"
        }
      ],
      "name": "ownerOf",
      "outputs": [
        {
          "internalType": "address",
          "name": "",
          "type": "address"
        }
      ],
      "stateMutability": "view",
      "type": "function"
    },
    {
      "inputs": [
        {
          "internalType": "address[]",
          "name": "addresses",
          "type": "address[]"
        }
      ],
      "name": "removeFromWhitelist",
      "outputs": [],
      "stateMutability": "nonpayable",
      "type": "function"
    },
    {
      "inputs": [],
      "name": "renounceOwnership",
      "outputs": [],
      "stateMutability": "nonpayable",
      "type": "function"
    },
    {
      "inputs": [
        {
          "internalType": "address",
          "name": "from",
          "type": "address"
        },
        {
          "internalType": "address",
          "name": "to",
          "type": "address"
        },
        {
          "internalType": "uint256",
          "name": "tokenId",
          "type": "uint256"
        }
      ],
      "name": "safeTransferFrom",
      "outputs": [],
      "stateMutability": "nonpayable",
      "type": "function"
    },
    {
      "inputs": [
        {
          "internalType": "address",
          "name": "from",
          "type": "address"
        },
        {
          "internalType": "address",
          "name": "to",
          "type": "address"
        },
        {
          "internalType": "uint256",
          "name": "tokenId",
          "type": "uint256"
        },
        {
          "internalType": "bytes",
          "name": "data",
          "type": "bytes"
        }
      ],
      "name": "safeTransferFrom",
      "outputs": [],
      "stateMutability": "nonpayable",
      "type": "function"
    },
    {
      "inputs": [
        {
          "internalType": "address",
          "name": "operator",
          "type": "address"
        },
        {
          "internalType": "bool",
          "name": "approved",
          "type": "bool"
        }
      ],
      "name": "setApprovalForAll",
      "outputs": [],
      "stateMutability": "nonpayable",
      "type": "function"
    },
    {
      "inputs": [
        {
          "internalType": "string",
          "name": "baseURI",
          "type": "string"
        }
      ],
      "name": "setBaseURI",
      "outputs": [],
      "stateMutability": "nonpayable",
      "type": "function"
    },
    {
      "inputs": [
        {
          "internalType": "bytes4",
          "name": "interfaceId",
          "type": "bytes4"
        }
      ],
      "name": "supportsInterface",
      "outputs": [
        {
          "internalType": "bool",
          "name": "",
          "type": "bool"
        }
      ],
      "stateMutability": "view",
      "type": "function"
    },
    {
      "inputs": [],
      "name": "symbol",
      "outputs": [
        {
          "internalType": "string",
          "name": "",
          "type": "string"
        }
      ],
      "stateMutability": "view",
      "type": "function"
    },
    {
      "inputs": [
        {
          "internalType": "uint256",
          "name": "tokenId",
          "type": "uint256"
        }
      ],
      "name": "tokenURI",
      "outputs": [
        {
          "internalType": "string",
          "name": "",
          "type": "string"
        }
      ],
      "stateMutability": "view",
      "type": "function"
    },
    {
      "inputs": [
        {
          "internalType": "address",
          "name": "from",
          "type": "address"
        },
        {
          "internalType": "address",
          "name": "to",
          "type": "address"
        },
        {
          "internalType": "uint256",
          "name": "tokenId",
          "type": "uint256"
        }
      ],
      "name": "transferFrom",
      "outputs": [],
      "stateMutability": "nonpayable",
      "type": "function"
    },
    {
      "inputs": [
        {
          "internalType": "address",
          "name": "newOwner",
          "type": "address"
        }
      ],
      "name": "transferOwnership",
      "outputs": [],
      "stateMutability": "nonpayable",
      "type": "function"
    }
  ],
  "bytecode": "0x60806040523480156200001157600080fd5b50336040518060400160405280600d81526020017f4d79455243373231546f6b656e000000000000000000000000000000000000008152506040518060400160405280600381526020017f4d4554000000000000000000000000000000000000000000000000000000000081525081600090816200009091906200054b565b508060019081620000a291906200054b565b505050600073ffffffffffffffffffffffffffffffffffffffff168173ffffffffffffffffffffffffffffffffffffffff16036200011a5760006040517f1e4fbdf700000000000000000000000000000000000000000000000000000000815260040162000111919062000677565b60405180910390fd5b6200012b816200020b60201b60201c565b50734300000000000000000000000000000000000002600a60006101000a81548173ffffffffffffffffffffffffffffffffffffffff021916908373ffffffffffffffffffffffffffffffffffffffff160217905550600a60009054906101000a900473ffffffffffffffffffffffffffffffffffffffff1673ffffffffffffffffffffffffffffffffffffffff16634e606c476040518163ffffffff1660e01b8152600401600060405180830381600087803b158015620001ec57600080fd5b505af115801562000201573d6000803e3d6000fd5b5050505062000694565b6000600660009054906101000a900473ffffffffffffffffffffffffffffffffffffffff16905081600660006101000a81548173ffffffffffffffffffffffffffffffffffffffff021916908373ffffffffffffffffffffffffffffffffffffffff1602179055508173ffffffffffffffffffffffffffffffffffffffff168173ffffffffffffffffffffffffffffffffffffffff167f8be0079c531659141344cd1fd0a4f28419497f9722a3daafe3b4186f6b6457e060405160405180910390a35050565b600081519050919050565b7f4e487b7100000000000000000000000000000000000000000000000000000000600052604160045260246000fd5b7f4e487b7100000000000000000000000000000000000000000000000000000000600052602260045260246000fd5b600060028204905060018216806200035357607f821691505b6020821081036200036957620003686200030b565b5b50919050565b60008190508160005260206000209050919050565b60006020601f8301049050919050565b600082821b905092915050565b600060088302620003d37fffffffffffffffffffffffffffffffffffffffffffffffffffffffffffffffff8262000394565b620003df868362000394565b95508019841693508086168417925050509392505050565b6000819050919050565b6000819050919050565b60006200042c620004266200042084620003f7565b62000401565b620003f7565b9050919050565b6000819050919050565b62000448836200040b565b62000460620004578262000433565b848454620003a1565b825550505050565b600090565b6200047762000468565b620004848184846200043d565b505050565b5b81811015620004ac57620004a06000826200046d565b6001810190506200048a565b5050565b601f821115620004fb57620004c5816200036f565b620004d08462000384565b81016020851015620004e0578190505b620004f8620004ef8562000384565b83018262000489565b50505b505050565b600082821c905092915050565b6000620005206000198460080262000500565b1980831691505092915050565b60006200053b83836200050d565b9150826002028217905092915050565b6200055682620002d1565b67ffffffffffffffff811115620005725762000571620002dc565b5b6200057e82546200033a565b6200058b828285620004b0565b600060209050601f831160018114620005c35760008415620005ae578287015190505b620005ba85826200052d565b8655506200062a565b601f198416620005d3866200036f565b60005b82811015620005fd57848901518255600182019150602085019450602081019050620005d6565b868310156200061d578489015162000619601f8916826200050d565b8355505b6001600288020188555050505b505050505050565b600073ffffffffffffffffffffffffffffffffffffffff82169050919050565b60006200065f8262000632565b9050919050565b620006718162000652565b82525050565b60006020820190506200068e600083018462000666565b92915050565b612d7b80620006a46000396000f3fe608060405234801561001057600080fd5b50600436106101585760003560e01c8063715018a6116100c3578063a22cb4651161007c578063a22cb465146103ad578063b88d4fde146103c9578063c87b56dd146103e5578063e985e9c514610415578063f2fde38b14610445578063fce14af61461046157610158565b8063715018a6146103135780637f6497831461031d5780638da5cb5b1461033957806395d89b4114610357578063992f9f4b146103755780639edfbec91461039157610158565b80633af32abf116101155780633af32abf1461022f57806342842e0e1461025f578063548db1741461027b57806355f804b3146102975780636352211e146102b357806370a08231146102e357610158565b806301ffc9a71461015d57806306fdde031461018d578063081812fc146101ab578063095ea7b3146101db57806321860a05146101f757806323b872dd14610213575b600080fd5b61017760048036038101906101729190611f74565b61047f565b6040516101849190611fbc565b60405180910390f35b610195610561565b6040516101a29190612067565b60405180910390f35b6101c560048036038101906101c091906120bf565b6105f3565b6040516101d2919061212d565b60405180910390f35b6101f560048036038101906101f09190612174565b61060f565b005b610211600480360381019061020c91906121b4565b610625565b005b61022d600480360381019061022891906121e1565b61069e565b005b610249600480360381019061024491906121b4565b6107a0565b6040516102569190611fbc565b60405180910390f35b610279600480360381019061027491906121e1565b6107bd565b005b61029560048036038101906102909190612299565b6107dd565b005b6102b160048036038101906102ac9190612416565b610841565b005b6102cd60048036038101906102c891906120bf565b61085c565b6040516102da919061212d565b60405180910390f35b6102fd60048036038101906102f891906121b4565b61086e565b60405161030a919061246e565b60405180910390f35b61031b610928565b005b61033760048036038101906103329190612299565b61093c565b005b6103416109a0565b60405161034e919061212d565b60405180910390f35b61035f6109ca565b60405161036c9190612067565b60405180910390f35b61038f600480360381019061038a91906121b4565b610a5c565b005b6103ab60048036038101906103a69190612299565b610b08565b005b6103c760048036038101906103c291906124b5565b610bec565b005b6103e360048036038101906103de9190612596565b610c02565b005b6103ff60048036038101906103fa91906120bf565b610c1f565b60405161040c9190612067565b60405180910390f35b61042f600480360381019061042a9190612619565b610c88565b60405161043c9190611fbc565b60405180910390f35b61045f600480360381019061045a91906121b4565b610d1c565b005b610469610da2565b60405161047691906126b8565b60405180910390f35b60007f80ac58cd000000000000000000000000000000000000000000000000000000007bffffffffffffffffffffffffffffffffffffffffffffffffffffffff1916827bffffffffffffffffffffffffffffffffffffffffffffffffffffffff1916148061054a57507f5b5e139f000000000000000000000000000000000000000000000000000000007bffffffffffffffffffffffffffffffffffffffffffffffffffffffff1916827bffffffffffffffffffffffffffffffffffffffffffffffffffffffff1916145b8061055a575061055982610dc8565b5b9050919050565b60606000805461057090612702565b80601f016020809104026020016040519081016040528092919081815260200182805461059c90612702565b80156105e95780601f106105be576101008083540402835291602001916105e9565b820191906000526020600020905b8154815290600101906020018083116105cc57829003601f168201915b5050505050905090565b60006105fe82610e32565b5061060882610eba565b9050919050565b610621828261061c610ef7565b610eff565b5050565b61062d610f11565b610636816107a0565b610675576040517f08c379a000000000000000000000000000000000000000000000000000000000815260040161066c9061277f565b60405180910390fd5b60016009600082825461068891906127ce565b9250508190555061069b81600954610f98565b50565b600073ffffffffffffffffffffffffffffffffffffffff168273ffffffffffffffffffffffffffffffffffffffff16036107105760006040517f64a0ae92000000000000000000000000000000000000000000000000000000008152600401610707919061212d565b60405180910390fd5b6000610724838361071f610ef7565b611091565b90508373ffffffffffffffffffffffffffffffffffffffff168173ffffffffffffffffffffffffffffffffffffffff161461079a578382826040517f64283d7b00000000000000000000000000000000000000000000000000000000815260040161079193929190612802565b60405180910390fd5b50505050565b60006107b68260076112ab90919063ffffffff16565b9050919050565b6107d883838360405180602001604052806000815250610c02565b505050565b6107e5610f11565b60005b8282905081101561083c5761082e83838381811061080957610808612839565b5b905060200201602081019061081e91906121b4565b60076112db90919063ffffffff16565b5080806001019150506107e8565b505050565b610849610f11565b80600b90816108589190612a0a565b5050565b600061086782610e32565b9050919050565b60008073ffffffffffffffffffffffffffffffffffffffff168273ffffffffffffffffffffffffffffffffffffffff16036108e15760006040517f89c62b640000000000000000000000000000000000000000000000000000000081526004016108d8919061212d565b60405180910390fd5b600360008373ffffffffffffffffffffffffffffffffffffffff1673ffffffffffffffffffffffffffffffffffffffff168152602001908152602001600020549050919050565b610930610f11565b61093a600061130b565b565b610944610f11565b60005b8282905081101561099b5761098d83838381811061096857610967612839565b5b905060200201602081019061097d91906121b4565b60076113d190919063ffffffff16565b508080600101915050610947565b505050565b6000600660009054906101000a900473ffffffffffffffffffffffffffffffffffffffff16905090565b6060600180546109d990612702565b80601f0160208091040260200160405190810160405280929190818152602001828054610a0590612702565b8015610a525780601f10610a2757610100808354040283529160200191610a52565b820191906000526020600020905b815481529060010190602001808311610a3557829003601f168201915b5050505050905090565b610a64610f11565b600a60009054906101000a900473ffffffffffffffffffffffffffffffffffffffff1673ffffffffffffffffffffffffffffffffffffffff1663954fa5ee30836040518363ffffffff1660e01b8152600401610ac1929190612adc565b6020604051808303816000875af1158015610ae0573d6000803e3d6000fd5b505050506040513d601f19601f82011682018060405250810190610b049190612b1a565b5050565b610b10610f11565b60005b82829050811015610be757610b4e838383818110610b3457610b33612839565b5b9050602002016020810190610b4991906121b4565b6107a0565b610b8d576040517f08c379a0000000000000000000000000000000000000000000000000000000008152600401610b849061277f565b60405180910390fd5b600160096000828254610ba091906127ce565b92505081905550610bda838383818110610bbd57610bbc612839565b5b9050602002016020810190610bd291906121b4565b600954610f98565b8080600101915050610b13565b505050565b610bfe610bf7610ef7565b8383611401565b5050565b610c0d84848461069e565b610c1984848484611570565b50505050565b6060610c2a82610e32565b506000610c35611727565b90506000815111610c555760405180602001604052806000815250610c80565b80610c5f846117b9565b604051602001610c70929190612b83565b6040516020818303038152906040525b915050919050565b6000600560008473ffffffffffffffffffffffffffffffffffffffff1673ffffffffffffffffffffffffffffffffffffffff16815260200190815260200160002060008373ffffffffffffffffffffffffffffffffffffffff1673ffffffffffffffffffffffffffffffffffffffff16815260200190815260200160002060009054906101000a900460ff16905092915050565b610d24610f11565b600073ffffffffffffffffffffffffffffffffffffffff168173ffffffffffffffffffffffffffffffffffffffff1603610d965760006040517f1e4fbdf7000000000000000000000000000000000000000000000000000000008152600401610d8d919061212d565b60405180910390fd5b610d9f8161130b565b50565b600a60009054906101000a900473ffffffffffffffffffffffffffffffffffffffff1681565b60007f01ffc9a7000000000000000000000000000000000000000000000000000000007bffffffffffffffffffffffffffffffffffffffffffffffffffffffff1916827bffffffffffffffffffffffffffffffffffffffffffffffffffffffff1916149050919050565b600080610e3e83611887565b9050600073ffffffffffffffffffffffffffffffffffffffff168173ffffffffffffffffffffffffffffffffffffffff1603610eb157826040517f7e273289000000000000000000000000000000000000000000000000000000008152600401610ea8919061246e565b60405180910390fd5b80915050919050565b60006004600083815260200190815260200160002060009054906101000a900473ffffffffffffffffffffffffffffffffffffffff169050919050565b600033905090565b610f0c83838360016118c4565b505050565b610f19610ef7565b73ffffffffffffffffffffffffffffffffffffffff16610f376109a0565b73ffffffffffffffffffffffffffffffffffffffff1614610f9657610f5a610ef7565b6040517f118cdaa7000000000000000000000000000000000000000000000000000000008152600401610f8d919061212d565b60405180910390fd5b565b600073ffffffffffffffffffffffffffffffffffffffff168273ffffffffffffffffffffffffffffffffffffffff160361100a5760006040517f64a0ae92000000000000000000000000000000000000000000000000000000008152600401611001919061212d565b60405180910390fd5b600061101883836000611091565b9050600073ffffffffffffffffffffffffffffffffffffffff168173ffffffffffffffffffffffffffffffffffffffff161461108c5760006040517f73c6ac6e000000000000000000000000000000000000000000000000000000008152600401611083919061212d565b60405180910390fd5b505050565b60008061109d84611887565b9050600073ffffffffffffffffffffffffffffffffffffffff168373ffffffffffffffffffffffffffffffffffffffff16146110df576110de818486611a89565b5b600073ffffffffffffffffffffffffffffffffffffffff168173ffffffffffffffffffffffffffffffffffffffff1614611170576111216000856000806118c4565b6001600360008373ffffffffffffffffffffffffffffffffffffffff1673ffffffffffffffffffffffffffffffffffffffff168152602001908152602001600020600082825403925050819055505b600073ffffffffffffffffffffffffffffffffffffffff168573ffffffffffffffffffffffffffffffffffffffff16146111f3576001600360008773ffffffffffffffffffffffffffffffffffffffff1673ffffffffffffffffffffffffffffffffffffffff168152602001908152602001600020600082825401925050819055505b846002600086815260200190815260200160002060006101000a81548173ffffffffffffffffffffffffffffffffffffffff021916908373ffffffffffffffffffffffffffffffffffffffff160217905550838573ffffffffffffffffffffffffffffffffffffffff168273ffffffffffffffffffffffffffffffffffffffff167fddf252ad1be2c89b69c2b068fc378daa952ba7f163c4a11628f55a4df523b3ef60405160405180910390a4809150509392505050565b60006112d3836000018373ffffffffffffffffffffffffffffffffffffffff1660001b611b4d565b905092915050565b6000611303836000018373ffffffffffffffffffffffffffffffffffffffff1660001b611b70565b905092915050565b6000600660009054906101000a900473ffffffffffffffffffffffffffffffffffffffff16905081600660006101000a81548173ffffffffffffffffffffffffffffffffffffffff021916908373ffffffffffffffffffffffffffffffffffffffff1602179055508173ffffffffffffffffffffffffffffffffffffffff168173ffffffffffffffffffffffffffffffffffffffff167f8be0079c531659141344cd1fd0a4f28419497f9722a3daafe3b4186f6b6457e060405160405180910390a35050565b60006113f9836000018373ffffffffffffffffffffffffffffffffffffffff1660001b611c84565b905092915050565b600073ffffffffffffffffffffffffffffffffffffffff168273ffffffffffffffffffffffffffffffffffffffff160361147257816040517f5b08ba18000000000000000000000000000000000000000000000000000000008152600401611469919061212d565b60405180910390fd5b80600560008573ffffffffffffffffffffffffffffffffffffffff1673ffffffffffffffffffffffffffffffffffffffff16815260200190815260200160002060008473ffffffffffffffffffffffffffffffffffffffff1673ffffffffffffffffffffffffffffffffffffffff16815260200190815260200160002060006101000a81548160ff0219169083151502179055508173ffffffffffffffffffffffffffffffffffffffff168373ffffffffffffffffffffffffffffffffffffffff167f17307eab39ab6107e8899845ad3d59bd9653f200f220920489ca2b5937696c31836040516115639190611fbc565b60405180910390a3505050565b60008373ffffffffffffffffffffffffffffffffffffffff163b1115611721578273ffffffffffffffffffffffffffffffffffffffff1663150b7a026115b4610ef7565b8685856040518563ffffffff1660e01b81526004016115d69493929190612bfc565b6020604051808303816000875af192505050801561161257506040513d601f19601f8201168201806040525081019061160f9190612c5d565b60015b611696573d8060008114611642576040519150601f19603f3d011682016040523d82523d6000602084013e611647565b606091505b50600081510361168e57836040517f64a0ae92000000000000000000000000000000000000000000000000000000008152600401611685919061212d565b60405180910390fd5b805181602001fd5b63150b7a0260e01b7bffffffffffffffffffffffffffffffffffffffffffffffffffffffff1916817bffffffffffffffffffffffffffffffffffffffffffffffffffffffff19161461171f57836040517f64a0ae92000000000000000000000000000000000000000000000000000000008152600401611716919061212d565b60405180910390fd5b505b50505050565b6060600b805461173690612702565b80601f016020809104026020016040519081016040528092919081815260200182805461176290612702565b80156117af5780601f10611784576101008083540402835291602001916117af565b820191906000526020600020905b81548152906001019060200180831161179257829003601f168201915b5050505050905090565b6060600060016117c884611cf4565b01905060008167ffffffffffffffff8111156117e7576117e66122eb565b5b6040519080825280601f01601f1916602001820160405280156118195781602001600182028036833780820191505090505b509050600082602001820190505b60011561187c578080600190039150507f3031323334353637383961626364656600000000000000000000000000000000600a86061a8153600a85816118705761186f612c8a565b5b04945060008503611827575b819350505050919050565b60006002600083815260200190815260200160002060009054906101000a900473ffffffffffffffffffffffffffffffffffffffff169050919050565b80806118fd5750600073ffffffffffffffffffffffffffffffffffffffff168273ffffffffffffffffffffffffffffffffffffffff1614155b15611a3157600061190d84610e32565b9050600073ffffffffffffffffffffffffffffffffffffffff168373ffffffffffffffffffffffffffffffffffffffff161415801561197857508273ffffffffffffffffffffffffffffffffffffffff168173ffffffffffffffffffffffffffffffffffffffff1614155b801561198b57506119898184610c88565b155b156119cd57826040517fa9fbf51f0000000000000000000000000000000000000000000000000000000081526004016119c4919061212d565b60405180910390fd5b8115611a2f57838573ffffffffffffffffffffffffffffffffffffffff168273ffffffffffffffffffffffffffffffffffffffff167f8c5be1e5ebec7d5bd14f71427d1e84f3dd0314c0f7b2291e5b200ac8c7c3b92560405160405180910390a45b505b836004600085815260200190815260200160002060006101000a81548173ffffffffffffffffffffffffffffffffffffffff021916908373ffffffffffffffffffffffffffffffffffffffff16021790555050505050565b611a94838383611e47565b611b4857600073ffffffffffffffffffffffffffffffffffffffff168373ffffffffffffffffffffffffffffffffffffffff1603611b0957806040517f7e273289000000000000000000000000000000000000000000000000000000008152600401611b00919061246e565b60405180910390fd5b81816040517f177e802f000000000000000000000000000000000000000000000000000000008152600401611b3f929190612cb9565b60405180910390fd5b505050565b600080836001016000848152602001908152602001600020541415905092915050565b60008083600101600084815260200190815260200160002054905060008114611c78576000600182611ba29190612ce2565b9050600060018660000180549050611bba9190612ce2565b9050808214611c29576000866000018281548110611bdb57611bda612839565b5b9060005260206000200154905080876000018481548110611bff57611bfe612839565b5b90600052602060002001819055508387600101600083815260200190815260200160002081905550505b85600001805480611c3d57611c3c612d16565b5b600190038181906000526020600020016000905590558560010160008681526020019081526020016000206000905560019350505050611c7e565b60009150505b92915050565b6000611c908383611b4d565b611ce9578260000182908060018154018082558091505060019003906000526020600020016000909190919091505582600001805490508360010160008481526020019081526020016000208190555060019050611cee565b600090505b92915050565b600080600090507a184f03e93ff9f4daa797ed6e38ed64bf6a1f0100000000000000008310611d52577a184f03e93ff9f4daa797ed6e38ed64bf6a1f0100000000000000008381611d4857611d47612c8a565b5b0492506040810190505b6d04ee2d6d415b85acef81000000008310611d8f576d04ee2d6d415b85acef81000000008381611d8557611d84612c8a565b5b0492506020810190505b662386f26fc100008310611dbe57662386f26fc100008381611db457611db3612c8a565b5b0492506010810190505b6305f5e1008310611de7576305f5e1008381611ddd57611ddc612c8a565b5b0492506008810190505b6127108310611e0c576127108381611e0257611e01612c8a565b5b0492506004810190505b60648310611e2f5760648381611e2557611e24612c8a565b5b0492506002810190505b600a8310611e3e576001810190505b80915050919050565b60008073ffffffffffffffffffffffffffffffffffffffff168373ffffffffffffffffffffffffffffffffffffffff1614158015611eff57508273ffffffffffffffffffffffffffffffffffffffff168473ffffffffffffffffffffffffffffffffffffffff161480611ec05750611ebf8484610c88565b5b80611efe57508273ffffffffffffffffffffffffffffffffffffffff16611ee683610eba565b73ffffffffffffffffffffffffffffffffffffffff16145b5b90509392505050565b6000604051905090565b600080fd5b600080fd5b60007fffffffff0000000000000000000000000000000000000000000000000000000082169050919050565b611f5181611f1c565b8114611f5c57600080fd5b50565b600081359050611f6e81611f48565b92915050565b600060208284031215611f8a57611f89611f12565b5b6000611f9884828501611f5f565b91505092915050565b60008115159050919050565b611fb681611fa1565b82525050565b6000602082019050611fd16000830184611fad565b92915050565b600081519050919050565b600082825260208201905092915050565b60005b83811015612011578082015181840152602081019050611ff6565b60008484015250505050565b6000601f19601f8301169050919050565b600061203982611fd7565b6120438185611fe2565b9350612053818560208601611ff3565b61205c8161201d565b840191505092915050565b60006020820190508181036000830152612081818461202e565b905092915050565b6000819050919050565b61209c81612089565b81146120a757600080fd5b50565b6000813590506120b981612093565b92915050565b6000602082840312156120d5576120d4611f12565b5b60006120e3848285016120aa565b91505092915050565b600073ffffffffffffffffffffffffffffffffffffffff82169050919050565b6000612117826120ec565b9050919050565b6121278161210c565b82525050565b6000602082019050612142600083018461211e565b92915050565b6121518161210c565b811461215c57600080fd5b50565b60008135905061216e81612148565b92915050565b6000806040838503121561218b5761218a611f12565b5b60006121998582860161215f565b92505060206121aa858286016120aa565b9150509250929050565b6000602082840312156121ca576121c9611f12565b5b60006121d88482850161215f565b91505092915050565b6000806000606084860312156121fa576121f9611f12565b5b60006122088682870161215f565b93505060206122198682870161215f565b925050604061222a868287016120aa565b9150509250925092565b600080fd5b600080fd5b600080fd5b60008083601f84011261225957612258612234565b5b8235905067ffffffffffffffff81111561227657612275612239565b5b6020830191508360208202830111156122925761229161223e565b5b9250929050565b600080602083850312156122b0576122af611f12565b5b600083013567ffffffffffffffff8111156122ce576122cd611f17565b5b6122da85828601612243565b92509250509250929050565b600080fd5b7f4e487b7100000000000000000000000000000000000000000000000000000000600052604160045260246000fd5b6123238261201d565b810181811067ffffffffffffffff82111715612342576123416122eb565b5b80604052505050565b6000612355611f08565b9050612361828261231a565b919050565b600067ffffffffffffffff821115612381576123806122eb565b5b61238a8261201d565b9050602081019050919050565b82818337600083830152505050565b60006123b96123b484612366565b61234b565b9050828152602081018484840111156123d5576123d46122e6565b5b6123e0848285612397565b509392505050565b600082601f8301126123fd576123fc612234565b5b813561240d8482602086016123a6565b91505092915050565b60006020828403121561242c5761242b611f12565b5b600082013567ffffffffffffffff81111561244a57612449611f17565b5b612456848285016123e8565b91505092915050565b61246881612089565b82525050565b6000602082019050612483600083018461245f565b92915050565b61249281611fa1565b811461249d57600080fd5b50565b6000813590506124af81612489565b92915050565b600080604083850312156124cc576124cb611f12565b5b60006124da8582860161215f565b92505060206124eb858286016124a0565b9150509250929050565b600067ffffffffffffffff8211156125105761250f6122eb565b5b6125198261201d565b9050602081019050919050565b6000612539612534846124f5565b61234b565b905082815260208101848484011115612555576125546122e6565b5b612560848285612397565b509392505050565b600082601f83011261257d5761257c612234565b5b813561258d848260208601612526565b91505092915050565b600080600080608085870312156125b0576125af611f12565b5b60006125be8782880161215f565b94505060206125cf8782880161215f565b93505060406125e0878288016120aa565b925050606085013567ffffffffffffffff81111561260157612600611f17565b5b61260d87828801612568565b91505092959194509250565b600080604083850312156126305761262f611f12565b5b600061263e8582860161215f565b925050602061264f8582860161215f565b9150509250929050565b6000819050919050565b600061267e612679612674846120ec565b612659565b6120ec565b9050919050565b600061269082612663565b9050919050565b60006126a282612685565b9050919050565b6126b281612697565b82525050565b60006020820190506126cd60008301846126a9565b92915050565b7f4e487b7100000000000000000000000000000000000000000000000000000000600052602260045260246000fd5b6000600282049050600182168061271a57607f821691505b60208210810361272d5761272c6126d3565b5b50919050565b7f41646472657373206973206e6f742077686974656c6973746564000000000000600082015250565b6000612769601a83611fe2565b915061277482612733565b602082019050919050565b600060208201905081810360008301526127988161275c565b9050919050565b7f4e487b7100000000000000000000000000000000000000000000000000000000600052601160045260246000fd5b60006127d982612089565b91506127e483612089565b92508282019050808211156127fc576127fb61279f565b5b92915050565b6000606082019050612817600083018661211e565b612824602083018561245f565b612831604083018461211e565b949350505050565b7f4e487b7100000000000000000000000000000000000000000000000000000000600052603260045260246000fd5b60008190508160005260206000209050919050565b60006020601f8301049050919050565b600082821b905092915050565b6000600883026128ca7fffffffffffffffffffffffffffffffffffffffffffffffffffffffffffffffff8261288d565b6128d4868361288d565b95508019841693508086168417925050509392505050565b60006129076129026128fd84612089565b612659565b612089565b9050919050565b6000819050919050565b612921836128ec565b61293561292d8261290e565b84845461289a565b825550505050565b600090565b61294a61293d565b612955818484612918565b505050565b5b818110156129795761296e600082612942565b60018101905061295b565b5050565b601f8211156129be5761298f81612868565b6129988461287d565b810160208510156129a7578190505b6129bb6129b38561287d565b83018261295a565b50505b505050565b600082821c905092915050565b60006129e1600019846008026129c3565b1980831691505092915050565b60006129fa83836129d0565b9150826002028217905092915050565b612a1382611fd7565b67ffffffffffffffff811115612a2c57612a2b6122eb565b5b612a368254612702565b612a4182828561297d565b600060209050601f831160018114612a745760008415612a62578287015190505b612a6c85826129ee565b865550612ad4565b601f198416612a8286612868565b60005b82811015612aaa57848901518255600182019150602085019450602081019050612a85565b86831015612ac75784890151612ac3601f8916826129d0565b8355505b6001600288020188555050505b505050505050565b6000604082019050612af1600083018561211e565b612afe602083018461211e565b9392505050565b600081519050612b1481612093565b92915050565b600060208284031215612b3057612b2f611f12565b5b6000612b3e84828501612b05565b91505092915050565b600081905092915050565b6000612b5d82611fd7565b612b678185612b47565b9350612b77818560208601611ff3565b80840191505092915050565b6000612b8f8285612b52565b9150612b9b8284612b52565b91508190509392505050565b600081519050919050565b600082825260208201905092915050565b6000612bce82612ba7565b612bd88185612bb2565b9350612be8818560208601611ff3565b612bf18161201d565b840191505092915050565b6000608082019050612c11600083018761211e565b612c1e602083018661211e565b612c2b604083018561245f565b8181036060830152612c3d8184612bc3565b905095945050505050565b600081519050612c5781611f48565b92915050565b600060208284031215612c7357612c72611f12565b5b6000612c8184828501612c48565b91505092915050565b7f4e487b7100000000000000000000000000000000000000000000000000000000600052601260045260246000fd5b6000604082019050612cce600083018561211e565b612cdb602083018461245f565b9392505050565b6000612ced82612089565b9150612cf883612089565b9250828203905081811115612d1057612d0f61279f565b5b92915050565b7f4e487b7100000000000000000000000000000000000000000000000000000000600052603160045260246000fdfea2646970667358221220737949d96f042fc54bb9bab89177cd8a76c4695fd6f163d3aa751bf1ef1f393b64736f6c63430008180033",
  "linkReferences": {},
  "deployedLinkReferences": {}
}